:020000040800F2
:1080000000F10020E981000843A5000869990008F3
:108010003FA50008CD8D000801B600080000000053
:108020000000000000000000000000004581000882
:10803000699300080000000089810008D1AC0008A5
:1080400003820008038200080382000803820008FC
:1080500003820008038200080382000803820008EC
:1080600003820008038200080382000803820008DC
:1080700003820008038200080382000803820008CC
:1080800003820008038200080382000803820008BC
:1080900003820008038200080382000803820008AC
:1080A000038200080382000803820008038200089C
:1080B00051AD0008D5AD0008038200080382000816
:1080C000038200080382000803820008038200087C
:1080D00003820008E1B1000803820008F1B1000842
:1080E0006D930008038200080382000803820008E1
:1080F000038200080382000803820008038200084C
:10810000038200080382000803820008038200083B
:10811000038200080382000803820008038200082B
:10812000038200080382000803820008038200081B
:10813000DFF80CD000F0E6FC004800472B040108F3
:1081400000F10020204B19680868B0E8F00F80F3B8
:108150000988BFF36F8F4FF0000080F311884EF055
:108160000D0E70470000000006480068006880F3AC
:10817000088862B661B6BFF34F8FBFF36F8F00DF21
:1081800000BF00BF08ED00E0EFF30980BFF36F8F81
:108190000D4B1A6820E9F00F106008B54FF0100081
:1081A00080F311880BF08AFA4FF0000080F31188F9
:1081B000BDE8084019680868B0E8F00F80F3098846
:1081C000BFF36F8F704700BF0C010020EFF31180E9
:1081D0004FF0100181F31188704780F311887047C8
:1081E000EFF30580704700000648804706480047C7
:1081F000FEE7FEE7FEE7FEE7FEE7FEE7FEE7FEE757
:10820000FEE7FEE7F1AC0008318100082DE9F05FE0
:108210000546002092469B468846064681464024F5
:108220001BE0284641464746224600F09CFB534649
:108230005A46C01A914110D311461846224600F002
:1082400083FB2D1A67EB01084F46224601200021CF
:1082500000F07AFB17EB00094E41201EA4F1010447
:10826000DFDC484631462A464346BDE8F09F40EAF7
:1082700001039B0703D009E008C9121F08C0042AA4
:10828000FAD203E011F8013B00F8013B521EF9D28B
:108290007047D2B201E000F8012B491EFBD27047B3
:1082A0000022F6E710B513460A4604461946FFF7C2
:1082B000F0FF204610BD421E12F8013F002BFBD1FB
:1082C00011F8013B02F8013B002BF9D1704730B5A2
:1082D00005462A460B4612F8010B13F8014B08B16C
:1082E000A042F8D01CB1002802D06D1CF1E728464E
:1082F00030BD10B5044604E00B7800F8013B03B133
:10830000491C521EF8D2204610BD421C10F8011B19
:108310000029FBD1801A704710B5002200E0521CE2
:10832000835C8C5CA34201D1002BF8D1D8B2E1B2BE
:10833000401A10BD30B504460020034600E05B1C27
:10834000934203D2E05CCD5C401BF8D030BD0346C5
:1083500011F8012B00F8012B002AF9D118467047BB
:1083600030B505460020034600E05B1C934205D271
:10837000EC5CC85C201A01D1002CF6D130BD0000A5
:1083800070B50F4D00B92868002412E00A4602E0DB
:108390009E4203D0521C1378002BF9D1DAB222434B
:1083A00005D02BB124B1002100F8011B04E00446E4
:1083B000401C0678002EE9D12860204670BD0000E0
:1083C00098040020F0B480EA0102D40F4200B2EB1E
:1083D000410F02D20246084611464A0042D0C30D60
:1083E000DDB2C1F3C752AD1A202D35DAC1F3160143
:1083F00041F4000204B15242C5F1200602FA06F12E
:108400002A411044B3EBD05F23D0C4B1012DA0EBBF
:10841000C35009DCF0BC4FF0004202EAC352DBB2A9
:1084200000F5000000F0CABA400000F1807000EBD7
:10843000C350A0F1807040EAD170490009E04908BA
:1084400041EAC071A0EBC35000F50000400800EB0A
:10845000C350F0BC00F0A9BA6142012202EB410115
:10846000001BF6E7F0BC704781F00041AAE780F0FE
:108470000040A7E780EA010210B502F00043400087
:1084800022D04A001FD0010E01EB1261C0F356004A
:10849000C2F3560240F4000042F40002A0FB0220A6
:1084A00000047F39140400D0401C50EA124001D46B
:1084B0004000491EC2B20C0604EBD010401C40081C
:1084C000802A02D003E0002010BD20F00100002926
:1084D00000DA0020184310BD30B480EA010202F037
:1084E000004530F0004221F0004013D090B1C30DA0
:1084F000D40DC2F31601C0F31600E41A41F40001D2
:1085000040F400027D34914201D3641C00E0490034
:10851000002C02DA30BC002070474FF4000000232A
:10852000914201D3891A034340084FEA4101F7D130
:1085300051B1914202D14FF0004105E002D24FF01B
:10854000010101E06FF0010103EBC450284430BC8D
:1085500000F02BBA2DE9FE4F804681EA0300C00FE0
:108560000C46009021F0004123F00045B8EB0200DA
:10857000A94105D24046214690461C460B4602467C
:1085800023F00040104347D0270DC7F30A00C3F380
:108590000A510290401A019040286BDAC3F313008D
:1085A00040F4801B0098924620B10023D2EB030ACE
:1085B00063EB0B0B01985946C0F14002504600F0A6
:1085C000C3F906460D4650465946019A00F0DBF9BC
:1085D00010EB08006141002487EA115284EAE77336
:1085E0001A4340D0009A62B3019A012A4FEA075217
:1085F00015DC001B61EB02014FF0004202EA07525A
:10860000CDE90042001C41F5801132462B4600F0B6
:1086100012FA03B0BDE8F08F40462146F9E7001B8F
:1086200061EB0201001C41F5801300185B4120182A
:10863000A2F5001747EB030140EAD570B6196D416A
:1086400011E06D084FEA360645EAC0754FEA075259
:10865000001B61EB0201001C41F5801149084FEA43
:1086600030000019514132462B4603B0BDE8F04FAF
:1086700000F0D2B90098012240000023D0EB0202A2
:1086800063EBE073009821464FEAE074B8EB00001A
:1086900061EB0401E9E783F000435BE781F000410F
:1086A00058E72DE9FE4F81EA030404F0004421F06D
:1086B000004100944FF0000B23F0004350EA010406
:1086C0005ED052EA03045BD0C3F30A54C1F30A55E7
:1086D0002C44A4F2F3340194A0FB0254C1F313011F
:1086E00041F48011C3F3130343F4801301FB0244EC
:1086F00000FB034E840A970A44EA815447EA8357F1
:10870000A4FB076802958D0A05FB07854FEA932CA9
:1087100004FB0C542705029D4FEA065847EA16371A
:10872000B5EB08056EEB070C870E920E47EA811732
:1087300042EA8312A7FB0201B6EB0B0164EB0004D3
:108740002B0D43EA0C335E1844EB1C50DA465146BD
:10875000E7FB0201C5F313044FEA0B3343EA14535A
:108760004FEA0432019C43EA0603A4F10C0402948C
:10877000009CCDE900B400F05EF903B0BDE8F08FD5
:1087800000200146F9E72DE9F04D81EA030404F0E9
:10879000004B21F0004514464FF0000A23F0004141
:1087A00050EA050220D054EA01021DD0C5F30A5751
:1087B0000246C5F31303C1F31300C1F30A5640F494
:1087C000801543F48013A7EB0608101BD64608F269
:1087D000FD3873EB050002D308F1010801E092189F
:1087E0005B41B8F1000F03DA00200146BDE8F08DCF
:1087F00000204FF48011064684460EE0171B73EBF1
:10880000050705D3121B63EB050306434CEA010C75
:1088100049084FEA300092185B4150EA0107EDD158
:1088200052EA030012D082EA040083EA05010843F9
:1088300005D0101BAB4106D20122002306E0002226
:108840004FF0004302E06FF0010253101AEB0600F4
:108850004CEB085110EB0A0041EB0B01BDE8F04D69
:1088600000F0DAB896230022114600F0A7B820F0F5
:108870000040C10DC0F3160040F400007F2901DA6A
:1088800000207047962903DCC1F19601C84070476B
:1088900096398840704700F0004230F000400AD01E
:1088A000C10D01F56071C0F3160042EA0151C20822
:1088B00040071143704700200146704730B5041E41
:1088C00071F1000404DB4FF00044404264EB01010D
:1088D000141E73F1000405DB1C464FF000435242A6
:1088E00063EB04038B4208BF824230BD30B5041EE7
:1088F00071F1000404DB4FF00044404264EB0101DD
:10890000141E73F1000405DB1C464FF00043524275
:1089100063EB0403994208BF904230BD30B50B466B
:10892000014600202022012409E021FA02F59D429F
:1089300005D303FA02F5491B04FA02F52844151E73
:10894000A2F10102F1DC30BD202A04DB203A00FA5A
:1089500002F1002070479140C2F1200320FA03F396
:10896000194390407047202A04DB203A21FA02F094
:108970000021704721FA02F3D040C2F12002914059
:10898000084319467047202A06DBCB17203A41FAE4
:1089900002F043EAE07306E041FA02F3D040C2F18C
:1089A000200291400843194670470029A8BF70472C
:1089B000401C490008BF20F00100704710B4B0FA15
:1089C00080FC00FA0CF050EA010404BF10BC7047B0
:1089D00049B1CCF1200421FA04F411FA0CF118BFCA
:1089E000012121430843A3EB0C01CB1D4FEA006199
:1089F0004FEA102042BF002010BC704700EBC3506C
:108A000010440029A4BF10BC7047401C490008BF97
:108A100020F0010010BC704710B5141E73F1000463
:108A200008DA401C41F1000192185B411A4301D160
:108A300020F0010010BD2DE9F04D92469B4611B18A
:108A4000B1FA81F202E0B0FA80F220329046FFF7EC
:108A50007BFF04460F4640EA0A0041EA0B015346F9
:108A60005A46084313D0114653EA010019D0C8F101
:108A700040025046FFF777FF05460E4650465946DE
:108A80004246FFF761FF084305D0012004E020467D
:108A90003946BDE8F08D0020054346EAE0762C43D8
:108AA00037430A986305E40AA0EB08000022FD0A98
:108AB00044EA47540A3002D500200146E9E701059F
:108AC00010196941DDE9084500196941BDE8F04D1B
:108AD000A2E7C1F30A52C1F3130140F2FF3341F49C
:108AE00080119A4202DA00200146704740F2334377
:108AF0009A42A2F2334202DC5242FFF734BFFFF740
:108B000023BF0000064C074D06E0E06840F001037B
:108B100094E8070098471034AC42F6D3FFF70CFBFB
:108B2000506801087068010870B58C1810F8015B76
:108B300015F0070301D110F8013B2A1106D110F8F6
:108B4000012B03E010F8016B01F8016B5B1EF9D1FA
:108B50002B0705D40023521E0DD401F8013BFAE780
:108B600010F8013BCB1A921C03E013F8015B01F8EB
:108B7000015B521EF9D5A142D8D3002070BD000080
:108B8000F8B5002447F230550322002101200BF0F4
:108B900091FA2C4908600846006820B92AA002F022
:108BA00039FE00BFFEE70BF049F92E490860084680
:108BB000006820B92CA002F02DFE00BFFEE70022C5
:108BC000012102200BF076FA2E4908600846006861
:108BD00010B92DA002F01EFE0BF030F92F490860ED
:108BE0000846006820B92EA002F014FE00BFFEE780
:108BF00033482346012247F23051009031A00BF058
:108C00009DFF324908600846006820B930A002F094
:108C100001FE00BFFEE70BF093FD06466420002333
:108C2000324601210090294800680BF0D5FF08B9B1
:108C3000012000E00020012802D12BA002F0EAFD73
:108C4000F8BD00001400002063726561746520782F
:108C500053656D6170686F7265206661696C0D0A9D
:108C600000000000240000206372656174652045E7
:108C700076656E7447726F7570206661696C0D0A57
:108C8000000000002C000020517565756543726579
:108C9000617465206661696C0D0A0000280000207F
:108CA000637265617465207855706461746145769E
:108CB000656E7447726F7570206661696C0D0A008D
:108CC000192E010854696D65720000001C00002017
:108CD000637265617465207854696D65727320668E
:108CE00061696C0D0A000000537461727420706930
:108CF0006E672054696D6572206661696C210D0A8A
:108D0000000000001FB500201B4ACDE900020290C0
:108D100003464FF4007219A103901C480BF064FC49
:108D200000201B4A0223CDE9012000930390034653
:108D30004FF4806217A11A480BF056FC0020194A24
:108D40000323CDE901200093039003464FF4007202
:108D500015A118480BF048FC0020174A0423CDE960
:108D600001200093039003464FF4006213A11648BC
:108D70000BF03AFC1FBD0000080000207654617320
:108D80006B5461736B57454200000000A137010826
:108D900000000020765461736B557365724946007C
:108DA0003D37010810000020765461736B537461E5
:108DB00072740000F13401080C00002076546173D5
:108DC0006B4D736750726F009131010800BFFEE771
:108DD000014609B909487047012901D10020FAE785
:108DE000022901D10648F6E7032901D10020F2E764
:108DF000042901D10020EEE70020ECE7A00C0020C0
:108E0000C812002008B525208DF8000002208DF83A
:108E1000010000208DF8020001208DF80300684653
:108E200001F090FB27208DF8000004208DF8010050
:108E300000208DF8020001208DF80300684601F043
:108E400081FB08BD38B504460D460020009006227F
:108E500022494FF4106002F053FC204800781F496B
:108E6000497808431D49897808431C49C978084353
:108E70001A490979084319494979084378B9002002
:108E80001649087008204870DC2088700020C870DF
:108E90000871487106224FF4106002F089FC1048F6
:108EA00004701048056010481049086004226946A3
:108EB0004FF4706002F07CFC042269464FF470604D
:108EC00002F076FC04226946900102F071FC09F080
:108ED0005FF800200649087038BD0000EC01002052
:108EE000B4010020E001002078563412DC0100209B
:108EF000CD01002070B575480078062801D1052005
:108F000070BD734909788900491C4FF4407202EB27
:108F1000C10002F0CFFB222806D000234422022108
:108F20006B48007809F0DEFD012507F075FEC4B23C
:108F3000664890F9000005287ED2DFE800F0030FB4
:108F40002F58840000206349087048708870C870EA
:108F500009F0CEF901205D490870B3E0022C19D167
:108F60005DA002F057FC62480068007C5949087017
:108F70005F480068407C48705D480068807C88706D
:108F80005B480068C07CC87009F0D4FA02204F49E1
:108F9000087002E006F028FB054693E0052C17D187
:108FA00054A002F037FC06F0D1FA40B157480068EF
:108FB000804708F0EDFF03204449087016E008F0F0
:108FC000E7FF5348006880470020404908700DE0E3
:108FD000062C08D14FA002F01DFC08F0D9FF01209B
:108FE0003A49087002E006F0FFFA05466AE00425F7
:108FF0004E480068401C28B34D4800684B4909683A
:10900000B0EB510F1ED94BA002F004FC00243148F4
:109010000078504908702F48407848702D48807873
:1090200088702C48C078C8704B480068401C4A497A
:10903000086009F07FFA00E043E008F0A9FF04208F
:10904000224908703EE00425052C2BD1002043491D
:109050000870404800781F490978884211D13D487E
:1090600040781C49497888420BD13A4880781949A0
:109070008978884205D13748C0781649C97888422E
:1090800007D0032536480068804736A002F0C2FBAF
:1090900002E038A002F0BEFB08F07AFF03200B4983
:1090A00008700DE0062C08D137A002F0B3FB08F0E1
:1090B0006FFF01200549087002E006F095FA0546A9
:1090C00000E000BF00BF28461AE70000CD010020E5
:1090D000B4010020BD0100203E2052656365697621
:1090E0006520444843505F4F464645520D0A0000F4
:1090F000E00100203E2052656365697665204448A2
:1091000043505F41434B0D0A00000000F401002072
:10911000FC0100203E205265636569766520444865
:1091200043505F4E41434B0D0A000000D001002028
:10913000D40100203E204D61696E7461696E732018
:109140007468652049502061646472657373200DF2
:109150000A000000B9010020DC010020CE0100203F
:10916000F80100203E4950206368616E6765642EF7
:109170000D0A00003E495020697320636F6E7469C8
:109180006E7565642E0D0A003E2052656365697632
:109190006520444843505F4E41434B2C2046616953
:1091A0006C656420746F206D61696E7461696E20F6
:1091B00069700D0A0000000021B1026842F001024E
:1091C000026004E002684FF6FE731A4002607047C6
:1091D00001684FF6FE72114001600021016041609C
:1091E0008160C1604B49884208D14A4908394968C1
:1091F00041F00F01474A083A51608AE0454914316D
:10920000884208D143490839496841F0F001414A90
:10921000083A51607DE03F492831884208D13D49F4
:109220000839496841F470613A4A083A516070E07F
:1092300038493C31884208D136490839496841F4F7
:109240007041344A083A516063E0324950318842F3
:1092500008D130490839496841F470212D4A083A4B
:10926000516056E02B496431884208D129490839B8
:10927000496841F47001274A083A516049E025499C
:109280007831884208D123490839496841F0706132
:10929000204A083A51603CE01F49884206D1011F2C
:1092A000096841F00F01021F116032E01A491431C0
:1092B000884208D11849091F096841F0F001164A8F
:1092C000121F116025E014492831884208D1124943
:1092D000091F096841F470610F4A121F116018E0FC
:1092E0000D493C31884208D10B49091F096841F4F6
:1092F0007041094A121F11600BE007495031884242
:1093000007D10549091F096841F47021024A121F5B
:1093100011607047080002400804024010B50022A6
:10932000026847F6F0739A430C6A8B6823430C6912
:1093300023434C6923438C692343CC6923434C6A00
:1093400023438C6A23431A430260CB6843600B6853
:1093500083604B68C36010BD02480068401C01492F
:1093600008607047080200207047000008B5002020
:1093700000904FF4006000F053F845280ED04FF4F1
:10938000006000F047F869461E4800680BF0A7F837
:10939000009818B14FF080501B4908604FF480606E
:1093A00000F03EF845282CD04FF4806000F032F8F1
:1093B000142006F079FB4FF48061144800F0C6FADF
:1093C00060B9042005F020FB06F0C6FF002010491C
:1093D000A1F8E200082005F0E7FA12E04FF48061FE
:1093E0000A4800F0B3FA01280BD1042005F0EEFA88
:1093F00006F0BCFF00200649A1F8E2000C2005F0B1
:10940000D3FA08BD1400002004ED00E0001C014068
:10941000F0C30020014908607047000014040140B7
:10942000014600200022074B1B6803EA0102054B9E
:1094300014331B680B4013B10AB1012000E0002077
:109440007047000000040140002123498279002A6E
:109450003AD00A46126803689A430B461A600A1DFE
:10946000126803689A430B1D1A60027911440A6856
:1094700003681A430A60184A0832126803689A435C
:10948000154B08331A601A1D126803689A43124B71
:109490000C331A604279102A0ED11A1F1268036821
:1094A0001A430D4B08331A601A1D126803681A43D9
:1094B000094B0C331A600DE00749427911440A68E0
:1094C00003681A430A6005E0027911440A680368D8
:1094D0009A430A6070470000000401402DE9FF41F3
:1094E000C4B005460E461746DDF83C814E9C002070
:1094F00041904090FC2101A8FEF7D2FE3F48006851
:10950000009042A806F0BAFD0020ADF803003C48E8
:109510000168CDF805108088ADF809008DF80B5072
:1095200030680390706804908DF81470BDF81C01C9
:10953000ADF815004298CDF81700BDF80C01ADF854
:109540001B009DF80E018DF81D008DF81E40D4B152
:1095500000200FE0BDF8001118F80110BDF800213F
:10956000114489B24091BDF80011491C89B2409163
:10957000411CC8B2A042EDDBBDF8002141460DF10F
:109580001F00FEF774FEBDF80001213080B240904C
:10959000BDF80001ADF80000BDF80001801E69466D
:1095A000084418490968016016480068401C1549BC
:1095B00008609DF800209DF8010002EB0020801C4F
:1095C00081B2684604F0C8FD4190BDF80001801CDE
:1095D0006844BDF8041101809DF800209DF8011039
:1095E00002EB01210B1D0649DA3991F8C0006A46E9
:1095F00005A107F0E9F948B0BDE8F081EC5D01088C
:10960000CAC40020940400202F696F745F676174DE
:10961000657761792F6465766963655F616C6172F6
:109620006D2F7265706F7274000000000149C86090
:10963000704700000020024030B5044604254FF476
:10964000302000F07BF80546042D17D10C48006946
:1096500040F002000A49086108464461006940F090
:10966000400008614FF4302000F068F805460448D7
:10967000006941F6FD71084001490861284630BD86
:109680000020024004200B49C96801F0010109B122
:1096900001200EE00749C96801F0040109B1022068
:1096A00007E00449C96801F0100109B1032000E096
:1096B00004207047002002400348006940F0800009
:1096C0000149086170470000002002400146002067
:1096D0000A46C2F30A031BB1012303EBD22000E0C8
:1096E000D00A704770B504460D460426F00200F01B
:1096F00025F80646042E11D10948006940F0010002
:10970000074908612580F00200F018F80646044871
:10971000006941F6FE71084001490861304670BD9C
:1097200000200240024803494860034848607047EF
:109730002301674500200240AB89EFCD00B502460A
:109740000423FFF79FFF034603E0FFF79BFF034659
:10975000521E012B01D1002AF7D102B90523184668
:1097600000BD000030B500228B071C0F0F2303FA49
:1097700004F20B4B8C1053F824309343084C8D109B
:1097800044F8253023468C1053F824308C07240FDE
:1097900000FA04F42343024C8D1044F8253030BD08
:1097A000080001402DE9F041024600250026002076
:1097B00000230024002791F803C00CF00F0591F856
:1097C00003C00CF0100CBCF1000F03D091F802C0E4
:1097D0004CEA050591F800C0BCF1000F31D01468C7
:1097E00000202BE04FF0010C0CFA00F3B1F800C0A0
:1097F0000CEA03069E4220D183004FF00F0C0CFAB6
:1098000003F7BC4305FA03FC4CEA040491F803C0D7
:10981000BCF1280F06D14FF0010C0CFA00FCC2F885
:1098200014C00AE091F803C0BCF1480F05D14FF015
:10983000010C0CFA00FCC2F810C0401C0828D1D35F
:109840001460B1F800C0BCF1FF0F34DD5468002093
:109850002EE000F1080C4FF0010808FA0CF3B1F803
:1098600000C00CEA03069E4221D183004FF00F0C8A
:109870000CFA03F7BC4305FA03FC4CEA040491F824
:1098800003C0BCF1280F05D100F1080C08FA0CF850
:10989000C2F8148091F803C0BCF1480F07D100F161
:1098A000080C4FF0010808FA0CF8C2F81080401CB0
:1098B0000828CED35460BDE8F0810000F0B50A4618
:1098C000002300240021002500F00046B6F1004FDF
:1098D00002D11D4EF16901E01B4E7168C0F30345D2
:1098E00083B200F44016B6F5401F08D121F0706134
:1098F000154E766826F07066134F7E6012E000F415
:109900008016B6F5801F06D1032606FA05F4A1439A
:1099100041F0706106E0460D360103FA06F6B143E8
:1099200041F0706122B1460D360103FA06F631436B
:1099300000F00046B6F1004F02D1034EF16101E0A4
:10994000014E7160F0BD00000000014002460020A1
:1099500093680B400BB1012000E00020704741618B
:10996000704701617047000009A100200CE00A5C0B
:10997000124B1A8000BF114A121F128802F04002D7
:10998000002AF8D0421CD0B22A28F0D300BFFEE74C
:109990000D0A456E74657220486172644661756C8B
:1099A000745F48616E646C65722C205379737465C2
:1099B0006D2048616C742E0D0A00000004380140CF
:1099C000F0B599B0054664216846FEF769FC642746
:1099D0003946684600F094FCC4B2224669462846DF
:1099E00009F098F9C6B2A6420BD0022004F0EEFFAF
:1099F000032004F0EBFF042004F0E8FF002019B07E
:109A0000F0BD0120FBE7000010B500200F49086001
:109A10000F48006820F070400D4908600846006853
:109A200040F04050086000200A49C1F89C01022023
:109A300006F04AF8012005490860022006F044F8C3
:109A400000200449C1F8980110BD0000988121420E
:109A5000000C0140008021420C48806940F0080061
:109A60000A4988610A48006820F07F400849086078
:109A70000846006840F04C50086005480C3000680B
:109A800040F0C00002490C310860704700100240ED
:109A9000000C014010B500200F4908600F48006815
:109AA00020F070400D4908600846006840F04050C2
:109AB000086001200A49C1F89C01022006F004F860
:109AC000012005490860022005F0FEFF002004493E
:109AD000C1F8980110BD000098812142000C01409E
:109AE0000080214270B5054600241748006820F028
:109AF0007040154908600846006840F00040086062
:109B0000002616E0002011490860022005F0DCFF65
:109B100001200F49C1F898016006040E0B487C38FB
:109B2000006808B1601CC4B2012005F0CDFF701CB4
:109B3000C6B2082EE6DB15B9FFF7ACFF01E0FFF770
:109B400063FF204670BD0000000C01409881214257
:109B50000080214270B504461548006820F070402E
:109B6000134908600846006840F040500860002033
:109B700010490860002517E0E0090E49091D08603A
:109B80006006040E022005F09FFF01200A49C1F87B
:109B90009801022005F098FF002006490860022085
:109BA00005F092FF681CC5B2082DE5DB70BD000012
:109BB000000C0140988121420080214210B50F48DD
:109BC000006820F070400D4908600846006840F0C9
:109BD0004050086001200A4908600A49C1F898010C
:109BE000042005F071FF002005490860042005F0FD
:109BF0006BFF00200349C1F8980110BD000C014023
:109C00009C8121420080214210B50F48006820F05D
:109C100070400D4908600846006840F040500860F8
:109C200000200A4908600A49C1F89C01042005F097
:109C30004BFF012005490860042005F045FF012085
:109C40000349C1F89C0110BD000C014098812142DC
:109C50000080214210B500241448006820F07040B4
:109C6000124908600846006840F000400860012082
:109C70000F49086005F028FF01200E49C1F898013E
:109C800005F022FF07E0601CC4B2FA2C03DDFFF7E9
:109C9000BBFF012010BD0648803800680028F2D1C3
:109CA0000349091F086000BFF4E70000000C0140F1
:109CB0009C812142008021424CF6CC400149086041
:109CC000704700000030004010B500F001F810BDF2
:109CD0004AF6AA20014908607047000000300040A1
:109CE0000149486070470000003000400149886029
:109CF00070470000003000400149086070470000D4
:109D00000030004000B585B00121052000F08CFC3A
:109D10000121880300F088FC4FF40070ADF81000BA
:109D200018208DF8130003208DF8120004A9414873
:109D3000FFF738FD4FF48060ADF8100004208DF877
:109D4000130004A93B48FFF72DFD4FF4E1300090CC
:109D50000020ADF80400ADF80600ADF80800ADF83D
:109D60000C000C20ADF80A006946334801F0B6FA41
:109D7000012240F22551304801F08AFA01212E4893
:109D800001F047FA40212C4801F03AFA012108205D
:109D900000F04AFC10208DF8130003208DF812000B
:109DA0000420ADF8100004A92448FFF7FBFC0121B2
:109DB000092000F039FC0121880400F015FC4FF463
:109DC0008060ADF8100018208DF8130003208DF886
:109DD000120004A91948FFF7E5FC4FF40060ADF844
:109DE000100004208DF8130004A91448FFF7DAFCD2
:109DF00004A91248FFF7D6FC4FF4E1300090002090
:109E0000ADF80400ADF80600ADF80800ADF80C00A0
:109E10000C20ADF80A006946094801F05FFA0121FB
:109E2000074801F0F6F94021054801F0E9F905B0CD
:109E300000BD00000008014000380140000C014056
:109E4000004800402DE9FF4704460D461646994656
:109E500000200390029600278046009002A807F099
:109E600031FE8DF80C000398C0F30310022800D0D7
:109E70001FE001A9029800F0A1F880460299084469
:109E80000290DDE9011047180298381A022800DA1A
:109E90000FE002A807F016FE8DF80000009800F011
:109EA0000100207002A807F00DFE28704FF0010895
:109EB00000BF404604B0BDE8F0872DE9FF5F0646CD
:109EC0000C4617469846DDE90FABDDF838900020C8
:109ED000039011980290002500200190009002A8A4
:109EE00007F0F0FD8DF80C000398C0F30310032871
:109EF00000D032E00398C0F3C00030700398C0F384
:109F000041002060039800F0010038706946029813
:109F100000F054F8019002990844029000990298C8
:109F200045182A4602A9484607F0E0FD10B10298FC
:109F3000281A00D511E02068002804DD02A807F0E7
:109F4000C8FDA8F800000298281ACBF80000029873
:109F5000CAF800000120019000BF019804B0BDE8DC
:109F6000F09F2DE9F84305460C4601260027002006
:109F7000206000BF4FF0FF38781C0746042801DD41
:109F800000BF17E001216846A8478046B8F1010FDD
:109F900000D00FE09DF8001001F07F01206801FB68
:109FA00006002060F6019DF8000000F08000002807
:109FB000E0D100BF3846BDE8F883000070B5044624
:109FC0000D460348046029460248FFF7CAFF70BDEA
:109FD0007801002011F2000830B50246002300BFCE
:109FE0000846CD1701EB5565ED11A1EBC515ECB297
:109FF000CD1701EB5565E911002901DD44F080041E
:10A0000018465B1C14540029EADC184630BD0000D9
:10A01000401C802801DA401C0AE0B0F5804F01DACC
:10A02000801C05E00349884201DAC01C00E0001DE5
:10A0300070470000FFFF1F002DE9FC4104460F465A
:10A0400015464FF0FF3800200190002600900121B6
:10A050002046A847012800D01EE001266946284670
:10A06000FFF77FFF601C0099FFF7B6FF06440098DA
:10A070003044B84200DD0FE0009830B1A0190099DB
:10A08000A8470099884200D006E020788DF80400A7
:10A090000198C0F3031800BF4046BDE8FC812DE9DC
:10A0A000FC4704460E4615461F46DDF82880002072
:10A0B000019081460094042E02DA6FF0010924E039
:10A0C000019865F307100190019867F3C3000190B0
:10A0D000062D01D1012100E00021019861F3420029
:10A0E00001909DF80410684609F06BFE022100986B
:10A0F000FFF772FF0099084400904146684609F056
:10A1000066FE0098A0EB040900BF4846BDE8FC8746
:10A110002DE9FE4305460E461446029500200190A7
:10A12000009000274FF0FF38204600F0A5F80746C2
:10A130008146FFF76DFFB04202DD6FF001088FE04E
:10A1400000208DF80400019820F0F00010300190FC
:10A150009DF8041002A809F034FE39460298FFF772
:10A160003BFF029908440290207A042808D13EA1BE
:10A1700002A809F012FE042102A809F022FE07E05D
:10A180003BA102A809F009FE032102A809F019FE6B
:10A1900000208DF80000A17E009861F3410000903E
:10A1A000E07E08B1012100E00021009861F3820007
:10A1B00000900098C0F3800058B194F83D100098CA
:10A1C00061F3C400009094F83C10009861F34510CE
:10A1D0000090206C08B9A06C20B1009820F080009D
:10A1E00080300090E06C08B9606D20B1009820F0DC
:10A1F0004000403000909DF8001002A809F0E1FDF9
:10A20000218B02A809F0E3FD02A8D4E90423E16848
:10A2100009F0F5FDE07E58B102A8D4E90A23616A8D
:10A2200009F0EDFD02A8D4E90D23216B09F0E7FD4B
:10A230000098C0F3C01028B102A8D4E91123216C02
:10A2400009F0DDFD0098C0F3801028B102A8D4E920
:10A250001423E16C09F0D3FD0298A0EB050800BFC0
:10A260004046BDE8FE8300004D51545400000000FC
:10A270004D5149736470000070B504460025207A82
:10A28000032801D10C2503E0207A042800D10A25F7
:10A29000D4E90412E06800F046F9801C0544E07E31
:10A2A00068B1D4E90A12606A00F03DF9861CD4E96D
:10A2B0000D12206B00F037F93044801C0544206CEF
:10A2C00008B9A06C30B1D4E91112206C00F02BF960
:10A2D000801C0544E06C08B9606D30B1D4E91412FB
:10A2E000E06C00F020F9801C0544284670BD70B574
:10A2F00004460D460E222946204600F0EEF870BDB9
:10A3000070B504460D460C222946204600F0E5F8BB
:10A3100070BDF8B505460E461446002304223146AA
:10A3200028460094FFF7BBFEF8BD2DE9F04F87B03B
:10A3300005460F4690461C46DDE915B6DDE9109A44
:10A34000069500200590049003900096204612A9DF
:10A350000EC900F042F804900290FFF759FEB8428F
:10A3600003DD6FF00100039033E0059820F0F0006A
:10A3700030300590059868F3C3000590059864F3A4
:10A3800042000590059869F3000005909DF81410AF
:10A3900006A809F016FD04990698FFF71DFE069918
:10A3A0000844069006A812A90EC909F028FD002C41
:10A3B00003DD514606A809F00AFD324659460698C3
:10A3C000FDF755FF0698304406900698401B039011
:10A3D00000BF039807B0BDE8F08F7FB50546089E23
:10A3E000002401A807C800F09EF8801C30440444F3
:10A3F000002D00DDA41C204604B070BD2DE9FF5FD8
:10A4000005460E4617469846DDE90E9A039500204C
:10A4100002900190009000245146484600F046F812
:10A4200083460190FFF7F4FDB04202DDA01E0090CC
:10A4300038E000208DF80800029820F0F00080300D
:10A440000290029867F3C3000290029820F0060081
:10A45000801C02909DF8081003A809F0B2FC019935
:10A460000398FFF7B9FD039908440390414603A8F8
:10A4700009F0ADFC00240FE004EB44000AEB800C73
:10A4800003A89CE80E0009F0BAFC109810F82410FC
:10A4900003A809F096FC641C4C45EDDB0398401BB7
:10A4A000009000BF009804B0BDE8F09F2DE9F04196
:10A4B00005460E46022700240AE004EB440006EBA2
:10A4C000800393E8070000F02EF8C01C0744641CCA
:10A4D000AC42F2DB3846BDE8F0812DE9FC41044690
:10A4E0000D46164600200190471E0094022D01DA09
:10A4F000871E15E000208DF80400019866F3071010
:10A5000001909DF80410684609F05BFC002100985A
:10A51000FFF762FD0099084400900098071B00BFF8
:10A520003846BDE8FC8137B50024009820B100987A
:10A53000FDF7EBFE044600E0019C20463EBD00BF57
:10A54000FEE7704770B5002100230F22C47804B3E2
:10A55000154C246804F4E064C4F5E064210AC1F1F8
:10A560000403CA40447804FA03F184781440214378
:10A5700009010E4C0678A155047804F01F0501244A
:10A58000AC4005786D11AD0005F1E025C5F800413E
:10A5900009E0047804F01F050124AC40044D06785E
:10A5A000761145F8264070BD0CED00E000E400E0B7
:10A5B00080E100E002490143024A11607047000057
:10A5C0000000FA050CED00E029B1064A5269024389
:10A5D000044B5A6104E0034A52698243014B5A61B9
:10A5E000704700000010024029B1064AD2690243B8
:10A5F000044BDA6104E0034AD2698243014BDA6119
:10A60000704700000010024029B1064A1269024357
:10A61000044B1A6104E0034A12698243014B1A6138
:10A62000704700000010024029B1064A92690243B7
:10A63000044B9A6104E0034A92698243014B9A6198
:10A64000704700000010024029B1064AD268024358
:10A65000044BDA6004E0034AD2688243014BDA60BB
:10A6600070470000001002400348406A40F08070CC
:10A6700001494862704700000010024030B50021D7
:10A680000022002400232D4D6D6805F00C0121B13E
:10A69000042905D0082923D105E0294D056022E0D1
:10A6A000274D05601FE0254D6D6805F47012234DA0
:10A6B0006D6805F48034022505EB92421CB9214DEA
:10A6C000554305600BE01D4D6D6805F400351DB167
:10A6D0001C4D5543056002E0194D5543056002E0ED
:10A6E000174D056000BF00BF144D6D6805F0F00107
:10A6F0000909154D6B5C0568DD4045600F4D6D68BF
:10A7000005F4E061090A104D6B5C4568DD40856029
:10A710000A4D6D6805F46051C90A0B4D6B5C4568C4
:10A72000DD40C560054D6D6805F44041890B074D5E
:10A730006B5CC568B5FBF3F5056130BD00100240E8
:10A7400000127A0000093D00F600002006010020FA
:10A7500010B501460022002300204A11012A02D12F
:10A76000094C236806E0022A02D1074C236A01E063
:10A77000054C636A01F01F02012494401C400CB197
:10A78000012000E0002010BD0010024001490860D7
:10A7900070470000800442427047000004200149D5
:10A7A00008607047100C01400420014908607047A0
:10A7B000140C014030B502460B46FF20002113E087
:10A7C000555C684008240BE000F0800525B1312578
:10A7D00085EA4005E8B201E04506280E651EECB2A8
:10A7E000002CF1DC4D1CE9B29942E9DB30BD0000E0
:10A7F0002DE9F04104462046FEF734F8804607492B
:10A80000FDF738FE07460649FDF766FE0646FEF7E9
:10A810002EF8C5B22846BDE8F08100000000C8420D
:10A8200000FF7F472DE9F04704462046FEF71AF85F
:10A8300081460949FDF71EFE80460849FDF74CFE9A
:10A8400007460749FDF710FE0646FEF710F80546D5
:10A850002846BDE8F087000000002F4300FF7F4737
:10A8600000003442F0B505460E46144631462846EF
:10A87000FFF7A0FF0746A74201D00120F0BD00204E
:10A88000FCE710B5FA2005F01FF942F2362000F07F
:10A8900001F810BD10B50446FFF790F98820FFF7C6
:10A8A00059F9FFF7D7F9C4F30720FFF753F9FFF77A
:10A8B000D1F9E0B2FFF74EF9FFF7CCF9FFF7A4F9B1
:10A8C00010BD00002DE9F84F04460D460026B246A3
:10A8D0000027B04652E035494FF4604000F068F878
:10A8E000324800788DF80000304840788DF801003B
:10A8F0002E4880788DF802009DF8022002216846DB
:10A90000FFF7B0FF064666B928484078274909781E
:10A9100040EA01294846FFF785FF801E2070002786
:10A9200000E001272148C0788DF800001F48007919
:10A930008DF801001D4840798DF802009DF8022035
:10A9400002216846FFF78EFF06466EB99DF80100AA
:10A950009DF8001040EA01294846FFF749FF0D30F5
:10A9600028704FF0000801E04FF001081FB9B8F15E
:10A97000000F00D108E00A2005F0A6F85046411C5F
:10A9800001F0FF0A0228A6DB00BF17B9B8F1000FDB
:10A9900009D0FA2005F098F842F23620FFF77AFF46
:10A9A000962005F091F8BDE8F88F0000F000002037
:10A9B00070B505460C46FFF701F98820FFF7CAF885
:10A9C000FFF748F9C5F30720FFF7C4F8FFF742F98E
:10A9D000E8B2FFF7BFF8FFF73DF9FFF7EFF889207E
:10A9E000FFF7B8F8FFF736F9C8B90120FFF77AF892
:10A9F00020700120FFF776F860700120FFF772F8F1
:10AA0000A0700120FFF76EF8E0700120FFF76AF8F0
:10AA100020710020FFF766F86071FFF7F5F870BD50
:10AA200010B54FF400410248FEF79BFF10BD000037
:10AA30000008014010B54FF400410248FEF78FFFB7
:10AA400010BD00000008014021B1028842F0400220
:10AA5000028004E002884FF6BF731A4002807047FC
:10AA600000B585B000F076F800F030F80020ADF8C1
:10AA70000C00ADF800004FF48270ADF80200002029
:10AA8000ADF80400ADF80600ADF808004FF4007012
:10AA9000ADF80A000020ADF80E000720ADF8100058
:10AAA0006946044800F038F801210248FFF7CCFF5E
:10AAB00005B000BD003C0040012080F3108800BFBD
:10AAC0007047002080F3108800BF704708B5382019
:10AAD000ADF8000003208DF8020018208DF8030067
:10AAE00069460B48FEF75EFE4FF40040ADF80000EB
:10AAF00003208DF8020010208DF8030069460548F8
:10AB0000FEF750FE4FF400410248FEF72AFF08BD51
:10AB1000000C01400008014010B50022028802F438
:10AB200041520B884C8823438C882343CC88234391
:10AB30000C8923434C8923438C892343CC892343A9
:10AB40001A430280838B4FF2FF74234083830B8A66
:10AB5000038210BD10B501210420FFF765FD01211E
:10AB6000C803FFF741FD01210820FFF75DFD01212A
:10AB70000846FFF759FD01210148FEF79FFE10BD71
:10AB80000002300000BF0B48008800F002000028DF
:10AB9000F9D0FF200749091D088000BF054800883B
:10ABA00000F001000028F9D00248001D0088C0B262
:10ABB00070470000083C004000BF0A49098801F0C6
:10ABC00002010029F9D00749091D088000BF054985
:10ABD000098801F001010029F9D00249091D0988FD
:10ABE00070470000083C004010B500F001F810BDAF
:10ABF0000CB50020019000903348006840F480308C
:10AC00003149086000BF3048006800F4003000900F
:10AC10000198401C0190009818B90198B0F5A06FF8
:10AC2000F1D12948006800F4003010B101200090F3
:10AC300001E0002000900098012843D123480068DB
:10AC400040F01000214908600846006820F0030029
:10AC500008600846006840F0020008601A48406832
:10AC6000194948600846406848600846406840F412
:10AC7000806048600846406820F47C1048600846C0
:10AC8000406840F4E81048600846006840F0807072
:10AC9000086000BF0C48006800F000700028F9D080
:10ACA0000948406820F003000749486008464068AA
:10ACB00040F00200486000BF0348406800F00C000C
:10ACC0000828F9D10CBD000000100240002002400D
:10ACD00010B5FDF77BFA09F039FD18B14FF080503F
:10ACE000024908600020FDF778FA10BD04ED00E08D
:10ACF00010B51348006840F001001149086008468B
:10AD00004068104908400E494860084600680E49EE
:10AD100008400B4908600846006820F4802008605D
:10AD20000846406820F4FE0048604FF41F00886029
:10AD3000FFF75AFF4FF000600449086010BD0000A3
:10AD4000001002400000FFF8FFFFF6FE08ED00E0F3
:10AD500010B50121880700F061F9452830D00121A4
:10AD6000880700F058F81748B0F8E200401C154971
:10AD7000A1F8E2000846B0F8E200322820D1FF2016
:10AD800081F84C00022081F859005A220E4803F045
:10AD900097FEA8B905F0FAFD642004F085FE00BF17
:10ADA000BFF34F8F0948006800F4E060084908438A
:10ADB000001D06490860BFF34F8F00BF00BFFEE7CC
:10ADC00010BD0000F0C3002000FE07080CED00E0FD
:10ADD0000000FA0510B501210B4800F01FF990B1F1
:10ADE0000121094800F017F808480068401C07498D
:10ADF0000860084600680A21B0FBF1F201FB12006E
:10AE000008B9FEF7A9FA10BD000400408800002030
:10AE1000CA4302827047CA430282704721B1028846
:10AE200042F00102028004E002884FF6FE731A40ED
:10AE30000280704710B504466848844208D1012159
:10AE4000C014FFF701FC0021E014FFF7FDFBC4E094
:10AE5000B4F1804F08D101210846FFF7D5FB00214E
:10AE60000120FFF7D1FBB8E05D48844208D1012101
:10AE70000220FFF7C9FB00210220FFF7C5FBACE071
:10AE80005848844208D101210420FFF7BDFB00216E
:10AE90000420FFF7B9FBA0E05348844208D1012108
:10AEA0000820FFF7B1FB00210820FFF7ADFB94E07D
:10AEB0004E48844208D101211020FFF7A5FB002154
:10AEC0001020FFF7A1FB88E04948844208D1012106
:10AED0002020FFF799FB00212020FFF795FB7CE065
:10AEE0004448844208D101214014FFF7ADFB002102
:10AEF0006014FFF7A9FB70E03F48844209D10121AB
:10AF0000C804FFF7A1FB00214FF40020FFF79CFBD2
:10AF100063E03A48844209D101210805FFF794FB18
:10AF200000214FF48010FFF78FFB56E03448844235
:10AF300009D101214805FFF787FB00214FF40010DC
:10AF4000FFF782FB49E02F48844208D101214020CD
:10AF5000FFF75AFB00214020FFF756FB3DE02A484F
:10AF6000844208D101218020FFF74EFB0021802080
:10AF7000FFF74AFB31E02548844208D101218015C2
:10AF8000FFF742FB0021A015FFF73EFB25E020481C
:10AF9000844209D101210804FFF756FB00214FF438
:10AFA0008030FFF751FB18E01A48844209D1012193
:10AFB0004804FFF749FB00214FF40030FFF744FB42
:10AFC0000BE01548844208D101218804FFF73CFBBF
:10AFD00000214FF48020FFF737FB10BD002C01400B
:10AFE0000004004000080040000C00400010004039
:10AFF0000014004000340140004C0140005001406A
:10B000000054014000180040001C00400020004097
:10B0100000400140004401400048014030B5024674
:10B02000002000230024158A05EA0103958905EA1A
:10B03000010413B10CB1012000E0002030BD1AB1B1
:10B0400083890B43838102E083898B43838170472B
:10B05000002202881D4B98420ED01D4B98420BD007
:10B06000B0F1804F08D01B4B984205D01A4B984244
:10B0700002D01A4B984204D14FF68F731A404B8876
:10B080001A43174B984207D0164B984204D04FF6FC
:10B09000FF431A40CB881A4302808B8883850B8834
:10B0A00003850A4B98420BD0094B984208D00E4BAF
:10B0B000984205D00D4B984202D00D4B984201D1D9
:10B0C0000B7A03860123838270470000002C014025
:10B0D000003401400004004000080040000C004023
:10B0E00000100040001400400040014000440140B6
:10B0F000004801400EB501210320FFF775FA2748EB
:10B10000FFF798FE4FF08040FFF794FEC820ADF89F
:10B11000040048F6A040ADF800000020ADF806009D
:10B12000ADF8020069461D48FFF792FF01211B4858
:10B13000FFF76EFE012211461848FFF780FF00203E
:10B1400016492431088000211448FFF767FE40F2B9
:10B15000E730ADF8040041F6FF00ADF80000002034
:10B16000ADF80600ADF8020069464FF08040FFF7E9
:10B170006FFF01218807FFF74BFE01221146900760
:10B18000FFF75DFF00204FF08041888400214FF0E1
:10B190008040FFF743FE00F003F80EBD00040040BE
:10B1A00008B51D208DF8000001208DF80100002059
:10B1B0008DF8020001208DF803006846FFF7C2F900
:10B1C0001C208DF8000008208DF8010000208DF86B
:10B1D000020001208DF803006846FFF7B3F908BDAF
:10B1E00010B5024800F018F910BD0000A00C0020B6
:10B1F00010B5024800F010F910BD0000C812002080
:10B2000001F40072B2F5007F00D100BFCA43028092
:10B21000704721B1828942F40052828104E0828920
:10B220004DF6FF731A40828170471AB1838A0B432F
:10B23000838202E0838A8B438382704770B5024623
:10B24000002400230025002040F66A16B14200D1F8
:10B2500000BFC1F3421501F01F03012606FA03F3F4
:10B26000012D02D19689334006E0022D02D1168AC3
:10B27000334001E0968A33400C12012606FA04F4AA
:10B280001688344013B10CB1012000E0002070BDDD
:10B29000F0B50346002400260025002040F66A177A
:10B2A000B94200D100BF1846C1F3421401F01F0695
:10B2B000012707FA06F5012C01D10C3004E0022C1D
:10B2C00001D1103000E014301AB107682F43076035
:10B2D00002E00768AF430760F0BD00002DE9F047CA
:10B2E00086B005460E460024A24600BFA1460027B0
:10B2F000B08900B100BF2F462C8A4CF6FF70044085
:10B30000F08804432C82AC894EF6F3100440B088D8
:10B3100031890843718908430443AC81AC8A4FF6F4
:10B32000FF400440B0890443AC8201A8FFF7A6F9AE
:10B330001F48874202D1DDF810A001E0DDF80CA023
:10B34000A88900F4004040B10AEBCA0000EB0A10E3
:10B3500031684900B0FBF1F807E00AEBCA0000EBE6
:10B360000A1031688900B0FBF1F86420B8FBF0F0F6
:10B3700004012009642101FB1089A88900F4004020
:10B3800040B1322000EBC900B0FBF1F000F0070043
:10B39000044308E0322000EB09106421B0FBF1F017
:10B3A00000F00F0004432C8106B0BDE8F0870000D8
:10B3B0000038014001468888C0F308007047C1F397
:10B3C00008028280704730B502460B4600211FE01C
:10B3D000108B0844D48990FBF4F504FB15009468A5
:10B3E000205C5A2812D0148B9068005D18705A2087
:10B3F000158B94686055108B401C80B21083D489E3
:10B40000A04201DB00201083012030BD481CC1B2E6
:10B410000329DDDB0020F8E770B5044640F2255132
:10B420002068FFF70BFFE0B12068FFF7C3FFC5B24C
:10B43000E18AA0684554E08A401C80B2E082E1893C
:10B44000884201DB0020E082608BE189884202DAD9
:10B45000608B401C6083606A10B12846616A88472F
:10B4600000BF40F227712068FFF7E8FE08B3A08A0A
:10B4700060B9002240F227712068FFF709FF01221E
:10B4800040F226612068FFF703FF37E0638A6268B5
:10B49000D15C2068FFF793FF608A401C80B2608215
:10B4A000A189884201DB00206082A08A401EA08220
:10B4B00024E040F226612068FFF7C0FEF0B1A08AC8
:10B4C00050B9002240F226612068FFF7E1FE206AB1
:10B4D000A0B1206A804711E0638A6268D15C20686D
:10B4E000FFF76DFF608A401C80B26082A1898842AC
:10B4F00001DB00206082A08A401EA08270BDF8B5EA
:10B5000004460E461746002525E00CE007F0A2FC95
:10B51000A08A009007F0C0FCA089BDF80010884206
:10B5200000DD01E000BFF1E700BF705D228A6168C5
:10B53000885407F08FFC208A401C80B22082A189A9
:10B54000884201DB00202082A08A401CA08207F0F4
:10B55000A3FC681C85B2BD42D7DB012240F22771F3
:10B560002068FFF795FEF8BD10B51A481A49086023
:10B570001A4848601A4888604FF4806088814010FB
:10B58000C881002008824882C88208834883888254
:10B59000C86108624862134813490860134848604C
:10B5A000134888604FF400608881C88100200882B9
:10B5B0004882C8820883488388820E48C8610E4842
:10B5C00008620E4848620A46D18990685A22FCF700
:10B5D00060FE10BD00380140A00C0020C80C002007
:10B5E000C810002000480040C8120020F0120020BF
:10B5F000F01A00209DA70008A9A7000899A7000835
:10B6000000BFFEE70EB501210802FFF70DF801218A
:10B610000846FFF709F84FF40060ADF80800032072
:10B620008DF80A0048208DF80B0002A91748FEF794
:10B63000B9F84FF40040ADF8080010208DF80B0069
:10B6400002A91248FEF7AEF84FF400410F48FEF78A
:10B6500086F90A2004F028FA4FF400410B48FEF75F
:10B6600080F90B210620FEF77DF84FF40060009072
:10B6700000208DF804000C208DF8050001208DF8C5
:10B6800006006846FDF7E0FE0EBD00000020014008
:10B6900008B528208DF8000002208DF80100002058
:10B6A0008DF8020001208DF803006846FEF74AFF7E
:10B6B00008BD000070B504461049886880470F49EE
:10B6C0000869804700BF0D48C169C4F30740884737
:10B6D0000A48C169C4F307208847E0B2074AD16924
:10B6E0008847064988698047054604494869804774
:10B6F0000249C8688047284670BD00008C010020C0
:10B700002DE9F04104460E4617460025A846144987
:10B710008868804712490869804700BF1048C1699E
:10B72000C4F3074088470E48C169C4F3072088471F
:10B73000E0B20B4AD169884700BF06E00849886932
:10B7400080477055681C85B200BFBD42F6DB0449D6
:10B75000486980470249C8688047BDE8F081000019
:10B760008C01002070B504460D461049886880475A
:10B770000E490869804744F004040C48C169C4F3C9
:10B78000074088470948C169C4F307208847E0B2E9
:10B79000064AD16988470548C16928468847034950
:10B7A000486980470149C868804770BD8C01002006
:10B7B0002DE9F04104460E4617460025A8461449D7
:10B7C0008868804712490869804744F0040410489B
:10B7D000C169C4F3074088470D48C169C4F3072015
:10B7E0008847E0B20A4AD169884700BF06E0705D29
:10B7F000074AD1698847681C85B200BFBD42F6DBA5
:10B800000349486980470249C8688047BDE8F0811C
:10B810008C0100200FB4054B10B503A9044A02980F
:10B8200000F0EEF810BC5DF814FB0000FDFD000810
:10B830009C0400200FB4084B10B504A902AA039879
:10B8400000F0DEF8044602A9002000F070FC20465B
:10B8500010BC5DF814FB00002FC1000802E008C80E
:10B86000121F08C1002AFAD170477047002001E07A
:10B8700001C1121F002AFBD1704700002DE9FF5FB4
:10B8800082B00021DDE90430020DDDF840B0034351
:10B8900018D044F61050A2F2FF324243151411980A
:10B8A00001281FD0A5EB0B00401C5FEA000A4FF0F7
:10B8B00000064E4FDFF83891B046504615D5CAF114
:10B8C000000413E0119801244AA3012801D16FEA72
:10B8D0000B010298119AC0E90031C0E9024206B09A
:10B8E000BDE8F09FCBF10000DFE704460021404AAD
:10B8F000491842EB0450CDE9001012E0E00707D0F0
:10B9000032463B4640464946FCF7CBFE80468946D8
:10B9100032463B4610461946FCF7C3FE06460F4624
:10B920006410002CEAD1DDE90401DDE90023BAF15D
:10B93000000F06DAFCF7B5FE42464B46FCF7B1FEB7
:10B9400005E0FCF720FF42464B46FCF71CFF04468F
:10B950000E460022284BFCF7C9FF03D84FF0FF30FA
:10B96000014607E00022254B20463146FCF7F2FD58
:10B97000FDF7AFF8102409E0002C0ADB0A220023AF
:10B98000FCF744FC039B30321A55641E50EA010256
:10B99000F2D1641C039AC4F111031444119A012AD0
:10B9A00003D0012208430DD10AE0084304D000204F
:10B9B0004FF0110B119072E7A3EB0B056D1E0DE01C
:10B9C0005B4504DD4FF0000205F1010504E003DAF8
:10B9D0004FF00002A5F10105002AECD00298119960
:10B9E000C0E90231C0E9004579E7000000001440D9
:10B9F0000000F03F300000000000F0430000E03F96
:10BA00002DE9FF4F95B09B468946064600250FE27B
:10BA1000252877D100242746F84A0121059400E023
:10BA2000044316F8013F203B01FA03F01042F7D11E
:10BA300030782A2811D06FF02F033078A0F130022F
:10BA4000092A16D8059A44F0020402EB820203EB9D
:10BA500042021044761C0590EFE759F8042B05923A
:10BA6000002A03DA504244F40054059044F00204E2
:10BA7000761C30782E2816D116F8010F44F00404F5
:10BA80002A280DD06FF02F023078A0F13003092B57
:10BA900009D807EB870302EB4303C718761CF3E7CB
:10BAA00059F8047B761C30786C280FD006DC4C28C3
:10BAB00017D068280DD06A2814D104E0742810D05B
:10BAC0007A280FD10DE044F400140AE044F4801405
:10BAD00001E044F440147278824202D104F58014EB
:10BAE000761C761C307866280BD013DC582877D06B
:10BAF00009DC002875D04528F6D04628F4D0472820
:10BB00001AD19DE118E0632835D0642879D06528E2
:10BB100012D195E1702873D008DC6728F1D069282C
:10BB20006FD06E280DD06F2806D1B5E073282CD0C9
:10BB3000752875D0782874D05A46179990476D1C8F
:10BB400075E1C4F30250022809D003280DD0D9F8BA
:10BB5000001004280DD00D6009F1040967E1D9F83F
:10BB60000010EA17C1E90052F6E7D9F800100D807D
:10BB7000F2E70D70F0E719F8041B8DF800100020B3
:10BB80008DF80100EA46012003E059F804AB4FF0BC
:10BB9000FF3061074FF0000102D40DE008F1010110
:10BBA0008846B9420FDA8045F8DB1AF808100029F8
:10BBB000F4D108E008F1010188468142FADB1AF865
:10BBC00008100029F6D105985B46A0EB080721462E
:10BBD0003846179A00F094FA284400EB080507E06D
:10BBE0004DE029E10DE01AF8010B5A4617999047EC
:10BBF000B8F10108F7D25B4621463846179A13E19F
:10BC000042E00A220092C4F302524FF0000A022AD4
:10BC100008D059F804CB032A4FEAEC710AD00DE0A2
:10BC200029E02AE009F1070121F00702F2E802C148
:10BC3000914609E00FFA8CFC4FEAEC71042A03D11B
:10BC40004FFA8CFC4FEAEC71002907DA0A46002112
:10BC5000DCF1000C61EB02012D2202E0220504D58B
:10BC60002B228DF80420012203E0E20701D02022DC
:10BC7000F7E7904659E00A2102E010220DE010217A
:10BC80004FF0000A00910BE010224FF0000A44F040
:10BC900004040827009203E008224FF0000A0092F3
:10BCA000C4F30252022A05D059F804CB0021032A1A
:10BCB00008D009E009F1070121F00702F2E802C10A
:10BCC000914605E01FFA8CFC042A01D10CF0FF0C10
:10BCD0004FF00008220728D5702806D0009B83F07B
:10BCE000100353EA0A0305D00EE040228DF8042029
:10BCF000012208E05CEA010206D030228DF804201F
:10BD00008DF8050002229046009B83F0080353EA59
:10BD10000A030AD15CEA010201D1620705D530228B
:10BD20008DF804204FF001087F1E582804D034A05D
:10BD300003900EA802900DE036A0F9E75346604646
:10BD4000009AFCF763FA84460398825C0298401ECE
:10BD5000029002705CEA0100F0D1029806A9081A6C
:10BD600000F1200A600702D524F4803400E00127A6
:10BD7000574502DDA7EB0A0000E0002000EB0A01B6
:10BD8000009005984144401A0590E00306D45B46B4
:10BD90002146179A059800F0B3F90544002706E0FC
:10BDA00001A85A46C05D179990476D1C7F1C4745F6
:10BDB000F6DBE0030CD55B462146179A059800F0A8
:10BDC0009FF9054404E030205A46179990476D1CAE
:10BDD0000099481E00900029F5DC08E002980299BD
:10BDE0005A460078491C0291179990476D1CBAF188
:10BDF0000001AAF1010AF1DC65E100000928010057
:10BE000030313233343536373839616263646566D0
:10BE10000000000030313233343536373839414292
:10BE2000434445460000000000F058F90544761CE4
:10BE3000307800287FF4ECAD19B02846BDE8F08FCB
:10BE4000620700D4062709F1070222F0070CFCE87C
:10BE50000223E14603F000485FEA080C02D00FF22B
:10BE6000702C0DE05FEA045C02D50FF2682C07E04D
:10BE70005FEAC47C02D00FF2602C01E0AFF2700CDC
:10BE80004FF0FF3823F00043CDF850C065280CD0A8
:10BE900006DC452809D046281DD047283DD13DE085
:10BEA000662818D067287ED138E00021112F01DBE9
:10BEB000112000E0781CCDE9000106A90EA8FFF7CB
:10BEC000DDFCDDE90F010E9A03910021009207F1DC
:10BED000010A04914DE04FF000400097CDE90110B8
:10BEE00006A90EA8FFF7CAFCDDE90F0203920E9B1C
:10BEF00011990022DDF80CA00093049211B9791C6D
:10BF000000EB010AB7EB0A0004D4C0F1FF3007F1DF
:10BF1000010A0490AAEB0700019044E0012F00DA27
:10BF200001270021112F01DD112000E03846CDE965
:10BF3000000106A90EA8FFF7A1FCDDE90F010E9A8A
:10BF40000391002104910092BA4621070CD4039971
:10BF5000514500DA8A46BAF1010F05DD009AAAF1CF
:10BF60000101515C302908D0B84202DA10F1040F07
:10BF700006DA0121CDE9011015E0AAF10101E9E796
:10BF8000002805DC049901440491AAEB000102E0B9
:10BF9000411C514500DD8A460499401A401C01901D
:10BFA0004FF000400290200704D40198504501DB77
:10BFB000CDF8048000208DF84F0002980DF14F0756
:10BFC000B0F1004F25D02B200E9002984FF00208C0
:10BFD00000280CDA404202902D200E9007E00A2142
:10BFE0000298FCF79BFC3031029007F8011DB8F174
:10BFF0000001A8F10108F2DC02980028EFD1791EB7
:10C000000E980870307800F0200040F0450007F8E6
:10C01000020D12A8C01B00F107081498007800B1A7
:10C02000012000EB0A01019801EBE0710598414401
:10C03000401A401E0590E00306D45B462146179A3D
:10C04000059800F05DF805441498007818B15A4638
:10C05000179990476D1CE00324D55B462146179A3B
:10C06000059800F04DF805441CE00498002807DB13
:10C07000DDE90301884203DD0098405C179901E087
:10C08000179930205A469047049805F10105401C45
:10C0900004900198401E019004D12E205A46179911
:10C0A00090476D1CBAF10001AAF1010ADDDC05E040
:10C0B00017F8010B5A46179990476D1CB8F100010B
:10C0C000A8F10108F4DC5B462146179A0598ABE617
:10C0D0002D0000002B000000200000002DE9F041A1
:10C0E000044600251E461746880404D405E0394658
:10C0F0002020B0476D1C641EF9D52846BDE8F081AC
:10C100002DE9F041044600251E469046C80301D59E
:10C11000302700E02027880404D505E04146384652
:10C12000B0476D1C641EF9D52846BDE8F0810A6849
:10C13000531C0B601070704770B1084A52F82120F0
:10C1400012680260054A52F8212052684260034A90
:10C1500052F8212092688260704700000804002095
:10C1600070B592B000200F90109011900C900D902F
:10C170000E900A900B9006900790089009905A2212
:10C180008E498F4802F084FC0546012D02D1002023
:10C1900012B070BD01210FA8FFF7CEFF0FA807C88E
:10C1A0000CAB07C3BDF83800ADF828009DF83A0085
:10C1B0008DF82A009DF835008DF82B009DF8304051
:10C1C0002007040E04F0F0049DF8320000F00F0088
:10C1D0008DF832009DF8320004438DF82C409DF814
:10C1E00036402007040E04F0F0049DF8370000F0FC
:10C1F0000F008DF837009DF8370004438DF82D406F
:10C200009DF8280000F0FE008DF828006B48DA3019
:10C210000A990160BDF82C1081800020674981F8DF
:10C22000E00081F8BF00084690F85A00192802DDA6
:10C23000002081F85A00042262496048FCF77AF82D
:10C2400088BB6148FCF761F8064632465E495B48A8
:10C25000001DFCF785F830BB5848001DFCF755F869
:10C260000646324658495548001DFCF779F8D0B9C2
:10C270005648FCF74AF80646324654494F481830AB
:10C28000FCF76EF878B94D481830FCF73EF80646D2
:10C2900032464E4949481830FCF762F818B9FF2079
:10C2A000464981F84C00454890F84C00CF2830D0E2
:10C2B000424844490968016040F25B703F49A1F877
:10C2C0004A004148FCF721F8064632463E493B48C1
:10C2D000001DFBF7CCFF3D48FCF717F80646324639
:10C2E0003A4936481830FBF7C2FF3748FCF70DF8DB
:10C2F0003249091D00220A543448FCF706F8014669
:10C300002E4818300022425400202C4981F8C000E9
:10C3100003E00120294981F8C0004FF47A702749D1
:10C32000A1F8C200084690F8DF0091F8DE2091F8ED
:10C33000DD10224B93F8DC30CDE90231CDE9042049
:10C340001E4890F8DB001D4991F8DA1000231A46C8
:10C35000CDE900101EA106A8FFF76CFA102206A96D
:10C360001648C830FBF783FF0021144880F8D81026
:10C37000102206A91F48FBF77AFF102206A91E48C3
:10C38000FBF775FF102206A91C48FBF770FF10226F
:10C3900006A91B48FBF76BFF102206A91948FBF7FB
:10C3A00066FF102206A91848FBF761FF102206A9B4
:10C3B0001648FBF75CFF0120EAE60000F0C300200E
:10C3C00000FE070803040020D8030020E203002039
:10C3D0002530327825303278253032782530327861
:10C3E0002530327825303278253032782530327851
:10C3F0000000000087020020CD020020AA020020D9
:10C4000040030020F3020020670300201A030020ED
:10C410002DE9F04192B005460E4600240027342154
:10C4200005A8FBF73DFF14222BA16846FBF71FFF71
:10C4300042208DF8010028680190686802903068F9
:10C440000390B088ADF810009DF80170022404E05C
:10C450001DF804004740601CC4B29DF80300001D95
:10C46000A042F5DC0DF80470CA21601C0DF8001024
:10C4700014226946022003F066F9002428E04FF4F4
:10C480007A7006F047FEFDF71FFC4FF000081AE037
:10C49000342105A8FBF704FF05A800F0C9FB01281B
:10C4A0000DD19DF81500422809D1062203A908A83C
:10C4B000FBF740FF18B9012012B0BDE8F08108F188
:10C4C000010000F0FF08B8F1320FE1DB601CC4B2DC
:10C4D0003C2CD4DB0020EFE75A42000E00000000A5
:10C4E000000000000000000000000000F0B593B064
:10C4F000342106A8FBF7D4FE0024002504A803F08D
:10C50000BDFD9DF810109DF8110001EB0020A0F575
:10C51000FA60002809D49DF810109DF8110001EB75
:10C520000020A0F5FA60642801DD13B0F0BD9DF88D
:10C530001500282190FBF1F201FB120078B99DF85B
:10C5400016003B2190FBF1F201FB120038B901F01B
:10C550002FFC9DF81600801CC0B28DF816009DF8C7
:10C5600016009DF81510CDE900109DF810709DF88B
:10C57000116007EB0626B0B29DF814309DF8132029
:10C580009DF8121000F060FC05468CE19DF8190042
:10C5900041287DD1002414E104EB4401C64A02EB9A
:10C5A000C100062209A9FBF7C5FE002871D104EBE2
:10C5B0004401C14A02EBC10101F1080006220DF15C
:10C5C0003501FBF7B7FE78B104EB4400BA4901EB43
:10C5D000C000DDF835108160BDF8391081810DF1A2
:10C5E000350109A801F050FD04EB4401B24A02EB09
:10C5F000C10101F1120006220DF12B01FBF79AFE99
:10C6000080B104EB4400AC4901EBC000DDF82B1015
:10C61000C0F81210BDF82F10C1820DF12B0109A82E
:10C6200001F0CAFC04EB4400A34901EBC000807B8D
:10C630009DF83B1088420FD09DF83B0060B19DF8FB
:10C640003B0004EB44019C4A02EBC10188739DF856
:10C650003B1009A801F088FA04EB4400964901EB6D
:10C66000C000407C9DF83C10884237D000200290EA
:10C6700003909DF83C0004EB44018F4A02EBC1019A
:10C68000487404EB4400114601EBC000407C01E01B
:10C69000FEE094E0012810D109980290BDF828002E
:10C6A000ADF80C000020009040F25E23022202A9A7
:10C6B00001901046FCF712FF0FE009980290BDF8B8
:10C6C0002800ADF80C000020009040F25F23022209
:10C6D00002A901901046FCF701FF00BF04EB4400E3
:10C6E000754901EBC00080799DF83110884209D16D
:10C6F00004EB4400704901EBC000C0799DF8331091
:10C70000884221D09DF83E2007AB0DF12A0109A8EF
:10C7100001F090FA9DF8310004EB4401664A02EB07
:10C72000C10188719DF8330004EB440102EBC101A3
:10C73000C8716420B5FBF0F100FB115004EB44011B
:10C7400002EBC10108741FE06420B5FBF0F100FBAF
:10C75000115004EB4401584A02EBC101097C401A14
:10C760000A2811D96420B5FBF0F100FB115004EB4D
:10C77000440102EBC10108749DF83E2007AB0DF1A6
:10C780002A0109A801F056FA04EB44004A4901EBDA
:10C79000C000C07B9DF83D1088420FD09DF83D0041
:10C7A00060B19DF83D0004EB4401434A02EBC10136
:10C7B000C8739DF83D1009A801F0DAF806E0601C86
:10C7C00084B23E4800688442FFF4E6AE00BF3B48B6
:10C7D0000068844263D139480068401C37490860CA
:10C7E0006420B5FBF0F100FB115004EB4401324A28
:10C7F00002EBC1010874314800684FF49671B0FB38
:10C80000F1F201FB12002D49086004EB44002A49B3
:10C8100001EBC00009990160BDF82810818004EB8C
:10C820004400254901EBC000DDF835108160BDF8FA
:10C83000391081810DF1350109A801F025FC9DF821
:10C84000310004EB44011C4A02EBC10188719DF8E0
:10C85000330004EB440102EBC101C8719DF83E2096
:10C8600007AB0DF12A0109A801F0E4F90DF12B0144
:10C8700009A801F0A1FB04EB44000F4901EBC00043
:10C88000DDF82B10C0F81210BDF82F10C18206E0A1
:10C890009DF81900442802D107A800F05FF934215F
:10C8A00006A8FBF7FDFC06A800F0C2F901283FF43A
:10C8B0006DAE00BF39E60000DCC40020600400203B
:10C8C000F0B591B0054600240026342104A8FBF7FA
:10C8D000E7FC27A30FCB8DE80F002868019068685C
:10C8E000029040208DF801009DF80160022404E0D0
:10C8F0001DF804004640601CC4B29DF80300001DF2
:10C90000A042F5DC8DF80C60CA208DF80D000024E3
:10C9100029E09DF803109DF8020001EB0020801D26
:10C9200082B26946022002F00EFF4FF4FA7006F060
:10C93000F1FBFDF7C9F9342104A8FBF7B1FC00278E
:10C940000DE004A800F074F9012806D19DF811004B
:10C95000402802D1012011B0F0BD781CC7B2322F9F
:10C96000EFDB601CC4B20A2CD3DB0020F3E700002D
:10C970005A40000800000000000000000000000015
:10C980007FB505460024002612A30FCB8DE80F00CB
:10C9900041208DF8010028680190686802909DF898
:10C9A0000160022404E01DF804004640601CC4B28B
:10C9B0009DF80300001DA042F5DC0DF80460CA21BB
:10C9C000601C0DF800100E226946022002F0BBFE2A
:10C9D0007FBD00005A410008000000000000000078
:10C9E00049CA00001FB505A30FCB8DE80F000E222A
:10C9F0006946022002F0A7FE1FBD00005A4400084D
:10CA000000000000000000004CCA00000146CA17E8
:10CA100001EB92729210A1EB820292B9642091FB19
:10CA2000F0F200FB121050B94FF4C87091FBF0F215
:10CA300000FB121008B9012070470020FCE701201C
:10CA4000FAE70020F8E700002DE9F043ADF2344D9D
:10CA50000646894614460025002734210DF58060DE
:10CA6000FBF71EFC4FF47C7104A8FBF719FC3A4B52
:10CA7000D3E90020D3E90213CDE90213CDE9002068
:10CA800043208DF8010004F10800C11700EB11618B
:10CA9000090A8DF80210C11700EB11610912A0EB11
:10CAA0000121C9B28DF803103068019070680290BE
:10CAB0002246494603A8FBF7DAFB9DF801700225E0
:10CAC00004E01DF805004740681CC5B29DF803004E
:10CAD000001DA842F5DC04F10C000DF80070CA211D
:10CAE000401C0DF800109DF803109DF8020001EBAA
:10CAF0000020801D82B26946022002F024FE00253B
:10CB000025E0FDF7E1F84FF47A7006F003FB4FF0F3
:10CB1000000817E034210DF58060FBF7C1FB0DF52F
:10CB2000806000F085F8012808D19DF801044328B1
:10CB300004D101200DF2344DBDE8F08308F101006D
:10CB400000F0FF08B8F1320FE4DB681CC5B21E2DFF
:10CB5000D7DB0020EEE70000B05901087FB504469E
:10CB6000002628A30FCB8DE80F002A4890F8E0009C
:10CB7000012800D17FBD28A0FEF74CFE002507E06C
:10CB80002448DA30415D26A0FEF744FE681CC5B299
:10CB9000062DF5DB24A0FEF73DFE002505E0615DD6
:10CBA0001FA0FEF737FE681CC5B2082DF7DB1FA0DB
:10CBB000FEF730FE20680190606802909DF80160E9
:10CBC000022004E01DF800104E40411CC8B29DF840
:10CBD0000310091D8142F5DC8DF80C600E226946B8
:10CBE000022002F0B0FD0B48803021684166616888
:10CBF00081660120074981F8E00001F0C3FB00BF16
:10CC0000B8E700005A4400080000000000000000DF
:10CC10004CCA0000F0C3002030303030000000006B
:10CC20002530325800000000202020000D0A0000AE
:10CC3000F8B505460024002600200090002704E0F7
:10CC40009DF800005A2800D10AE06946022002F04F
:10CC50006BFD012804D12046611CCCB23228EFDBE9
:10CC600000BF322C01D10020F8BD5A2028700124C9
:10CC700008E02919022002F057FD08B90020F3E767
:10CC8000601CC4B2042CF4DBE978A87801EB002026
:10CC9000C6B2B01D322801DD0020E5E7002409E01E
:10CCA000201D4119022002F03FFD08B90020DBE7FA
:10CCB000601CC4B2B01C8442F2DB701D285CCA2820
:10CCC00001D00020D0E76F78022403E0285D4740C0
:10CCD000601CC4B2301D8442F8DB285CB84201D12C
:10CCE0000120C1E70020BFE71FB507A30FCB8DE8E8
:10CCF0000F000E226946022002F025FD0E22694631
:10CD0000022002F020FD1FBD5A450008000000006F
:10CD1000000000004DCA00002DE9F04188B0054632
:10CD20000E4617460024A0461B2101A8FBF7B8FABF
:10CD30001A480068009049208DF8010001208DF804
:10CD400004002868CDF80500A888ADF8090030680F
:10CD5000CDF80B000E2239460DF10F00FBF787FAD4
:10CD60009DF80180022405E01DF8040080EA08080F
:10CD7000601CC4B29DF80300001DA042F4DC0DF855
:10CD80000480CA21601C0DF800101F226946022091
:10CD900002F0D9FC08B0BDE8F0810000CC520108D7
:10CDA0002DE9F041ADF57E7D064688461446002506
:10CDB000002740F2F13101A8FBF772FA2148006820
:10CDC000009049208DF8010002208DF804003068A1
:10CDD000CDF80500B088ADF80900224641460DF1B6
:10CDE0000B00FBF744FAE01DC11700EB1161090AC3
:10CDF0008DF80210C11700EB11610912A0EB01219F
:10CE0000C9B28DF803109DF80170022504E01DF8E9
:10CE100005004740681C85B204F10B00A842F6DC0F
:10CE20000DF80570CA21681C0DF8001004F10D0002
:10CE300082B26946022002F086FC0DF57E7DBDE8D7
:10CE4000F0810000D05201082DE9FE4F06460F4642
:10CE500090469946DDE90CAB002425A207CA8DE86F
:10CE6000070040F2B270864203DB40F63300864290
:10CE700002DD0120BDE8FE8F40F2B2750BE02846CE
:10CE8000FFF7C4FD012802D11C48044401E01C48FE
:10CE90000444681C85B2B542F1DB781EC7B2002598
:10CEA00010E01DF8050040F2A321484304EBC01434
:10CEB0003046FFF7ABFD18B1012D01D111480444F4
:10CEC000681C85B2BD42ECDBA8F1010040F2A32151
:10CED000484304EBC014C9EB4910C0EB092004EB34
:10CEE0000014CAEB0A1004EB80045C442046C1E73E
:10CEF0001F1C1F1E1F1E1F1F1E1F1E1F0085E2015D
:10CF00008033E101805101007FB5054600240026F1
:10CF100016A30FCB8DE80F0046208DF8010000BF4F
:10CF200007E0C4F10700295C201D0DF80010601C0B
:10CF3000C4B2082CF5DB9DF80160022404E01DF862
:10CF400004004640601CC4B29DF80300001DA042CE
:10CF5000F5DC0DF80460CA21601C0DF800100E22EB
:10CF60006946022002F0EFFB7FBD00005A46000830
:10CF7000000000000000000049CA000030B58BB07E
:10CF800004460D46162104A8FBF78AF948480068B4
:10CF900003901A208DF80E0054F80B0FCDF80F00F7
:10CFA0006068CDF81300A068CDF81700E0680B3C6E
:10CFB000CDF81B00A81F20440068089004F10B0165
:10CFC000E01CFFF725FA012823D001208DF81F006F
:10CFD000182103A801F0C0F80A90BDF82800ADF8A8
:10CFE0002400344991F8C0001A2303AA32A103F0A7
:10CFF000EBFCE01CFFF764FC0020009040F25B2398
:10D00000022204F10B0101901046FCF767FA0BB005
:10D0100030BD4FF47A7006F07DF8A5F1210082B2A0
:10D0200004F11B01E01CFFF70FFD012818D10320BC
:10D030008DF81F00182103A801F08EF80A90BDF8A2
:10D040002800ADF824001B4991F8C0001A2303AA58
:10D0500019A103F0B9FC4FF47A7006F05BF8D6E73B
:10D0600002208DF81F00182103A801F075F80A901E
:10D07000BDF82800ADF824000E4991F8C0001A232D
:10D0800003AA0DA103F0A0FCE01CFFF719FC00208F
:10D09000009040F25B23022204F10B010190104644
:10D0A000FCF71CFA4FF47A7006F034F800BFAEE7D4
:10D0B00060570108F0C300202F696F745F676174C7
:10D0C000657761792F6E6F746963652F736D730077
:10D0D0001CB5044640F2DC53E21D694601A8FCF78A
:10D0E000B1FE012802D19DF80000A8B1022001F094
:10D0F0006DFC00200B4981F8BF00607808B900BFC3
:10D10000FEE7042001F080FC4FF47A7006F002F88C
:10D11000042001F05BFC03E00120024981F8BF001C
:10D120001CBD0000F0C30020F8B505460E461746AA
:10D130002978687801EB0021301F814200D0F8BDCA
:10D14000B01E81B2284601F007F80446E21704EB4E
:10D1500012621312721EAA5C934209D1E21704EB09
:10D1600012621212A4EB0223B21EAA5C934200D0F8
:10D17000E5E76A463946284600F068FC00283DD0BD
:10D180009DF80000092837D2DFE800F0053636198F
:10D19000122024292E002978687801EB00201D3800
:10D1A000E62800DDCBE7F1B2284600F0B5F924E02F
:10D1B000FCF78AFD2946304601F060FE1DE0FCF7D1
:10D1C00083FD2946304601F037FD16E0284600F081
:10D1D00003F912E03146284600F00CFB0DE0314621
:10D1E000284600F0D9F908E005A0FEF713FB314608
:10D1F000284600F0A1FA00E000BF00BF00BF9EE794
:10D20000504C41545F524553504F4E53455F524529
:10D210005345540070B596B0044640F2DC51E01D11
:10D2200008AA0BABCDE90132CDE9030105A80AAB91
:10D230000CAA09A9009015A8FCF73FFEBDF828200C
:10D240001E210DA8FDF765F8C5B260782A460DA924
:10D2500005F060FD1B48FBF758F8064632461949B1
:10D260000798FBF77DF838B90B98C178007901EB86
:10D270000020012800D1A0711348FBF746F80646AC
:10D28000324611490798FBF76BF808B90120207165
:10D290000E48FBF73AF8064632460C490798FBF76A
:10D2A0005FF838B90B98C178007901EB00200128AC
:10D2B00000D16071DDE9072081B20B98FFF734FFE0
:10D2C00016B070BD39030020A302002060030020C7
:10D2D00070B50546002600244FF4A850FEF7EAF981
:10D2E00000F0F00404F0F0014FF4A850FEF73AFA11
:10D2F0004FF4B850FEF7DEF9044621464FF4B8501B
:10D30000FEF730FA04F00100F8B1002068704FF425
:10D310000270FEF7CFF900F01F0421464FF40270AF
:10D32000FEF720FA04F0040078B1002002F0B0FD0E
:10D3300006460EB9002070BD254A40F2DC51E81DBA
:10D34000FCF77AFE28700120F5E704F002000228BD
:10D350001FD1012068704FF40A70FEF7ABF900F09E
:10D360001F0421464FF40A70FEF7FCF904F0040094
:10D3700060B3012002F08CFD06460EB90020DAE70A
:10D38000144A40F2DC51E81DFCF756FE28700120DB
:10D39000D1E704F00400042818D1022068704FF48B
:10D3A0001270FEF787F900F01F0421464FF4127047
:10D3B000FEF7D8F904F0040030B1022002F068FD55
:10D3C00006460EB90020B6E70120B4E70020B2E718
:10D3D000632C0108752C010830B58DB0044600207F
:10D3E0000B9006901422414901A8FAF740FFB4F8C7
:10D3F0000F000B90E01CFFF787FD8A208DF80600D8
:10D400000020ADF807003A480168CDF8091080887F
:10D41000ADF80D0037480068049036480068401C9D
:10D4200034490860D4F80B000690B4F80F000B9054
:10D4300001208DF80F00002341F2883201210220E3
:10D4400005F050FB0546022D02D000208DF80F009C
:10D45000BDF82C2006A9022002F090F90546012D06
:10D4600002D000208DF80F0000212348FDF7D1FEE7
:10D470004FF4165007900020ADF82000ADF82200C0
:10D48000ADF82400ADF828000C20ADF8260007A95F
:10D490001948FDF723FF01211748FDF7BAFE322096
:10D4A00005F038FE9DF804209DF8050002EB0020F1
:10D4B000801C81B201A800F04FFE0C90BDF8300036
:10D4C000ADF814009DF804109DF8050001EB002054
:10D4D000031D01AA09A1002003F076FA4FF4FA70A7
:10D4E00005F018FE03F052FA0DB030BD4C5701089C
:10D4F000CAC4002088030020004800402F696F74D0
:10D500005F676174657761792F626C6575706461BE
:10D5100074652F61636B000030B502465A231D4CC1
:10D5200024681C4DED8863551A4BDB885B1C9BB24D
:10D53000184CE380A488A34202DB0023154CE3804F
:10D54000144B5B895B1C134C638100201EE0114B64
:10D550005B89104CA488A34216DA135C0D4C246836
:10D560000C4DED8863550B4BDB885B1C9BB2094C63
:10D57000E380A488A34202DB0023064CE380054B32
:10D580005B895B1C034C6381431CD8B28842DEDBA1
:10D5900030BD0000E49B00202DE9F0470446894699
:10D5A0004FF00008607A142804D8607A0A30205CB2
:10D5B000322801D9BDE8F0875048D4F80310016043
:10D5C000B4F80710A0F84A10627A04F10A01001DAD
:10D5D000FAF74DFE607A0A30225C607A0B3001194E
:10D5E00046481830FAF743FE0021627A4348001D8E
:10D5F0008154607A0A30225C4048183081540422F9
:10D600003F491838FAF796FE90BB3E48FAF77DFE80
:10D6100005462A463B493948001DFAF7A1FE38BBAA
:10D620003648001DFAF771FE05462A46354933484B
:10D63000001DFAF795FED8B93348FAF766FE05469D
:10D640002A4631492D481830FAF78AFE80B92B480E
:10D650001830FAF75AFE05462A462B492748183053
:10D66000FAF77EFE20B9FF20244981F84C0004E03F
:10D67000FFE7CF20214981F84C00FCF753F8352013
:10D68000FBF7D4FF2148FBF7D7FF80461F4E00254C
:10D6900013E01A4911F815706800401C085C47EA4D
:10D6A000002739463046FCF71DF88046B8F1040FD4
:10D6B00000D004E0B61C681CC5B22D2DE9DB00BF0C
:10D6C000B8F1040F16D103F061F94FF47A7005F048
:10D6D00021FD00BFBFF34F8F0D48006800F4E060EC
:10D6E0000C490843001D0A490860BFF34F8F00BF73
:10D6F00000BFFEE7FBF7E0FF00BF5BE7F0C30020E1
:10D7000003040020D8030020E203002000FE0708E5
:10D710000CED00E00000FA050548064908604FF4EA
:10D7200020508880002048810881C8807047000010
:10D73000F09B0020E49B002030B587B004460D46E6
:10D74000142223496846FAF792FDE078012802D1B5
:10D75000A078B42801D007B030BD0120059000208A
:10D76000ADF803001B480168CDF805108088ADF8BE
:10D7700009009DF814008DF80B00A81F20440068D4
:10D7800003909DF800209DF8010002EB0020801C12
:10D7900081B2684600F0E0FC0690BDF81800ADF8D4
:10D7A00010009DF800109DF8010001EB0020031D02
:10D7B0006A4609A1002003F007F94FF47A7005F0DA
:10D7C000A9FC4FF480710A48FCF7CBF800BFC2E710
:10D7D00068570108CAC400202F696F745F676174BD
:10D7E000657761792F72657365742F61636B0000D3
:10D7F000000C014030B5ADF5097D04460D464FF4EF
:10D80000007107A8FAF74CFD162101A8FAF748FDA8
:10D810004E4800680090B5F5007F02DD0DF5097DEA
:10D8200030BDA5F1200080B287901B22214607A8B9
:10D83000FAF71DFDBDF81C02ADF8370001208DF888
:10D840003900A5F1210204F11B010DF13A00FAF7AC
:10D850000EFDA5F11E0081B20DF1370000F07CFC39
:10D860008890E81E07A90844BDF820120180BDF881
:10D870001C02203007A90144A81F2044006808604A
:10D880002178607801EB0020401D80B28790BDF8C0
:10D890001C02ADF81C009DF81C209DF81D0002EB39
:10D8A0000020801C81B207A800F056FC88909DF8EB
:10D8B0001C109DF81D0001EB0020801C07A90844E6
:10D8C000BDF820120180D4F80B00CDF80300D4F885
:10D8D0000F00CDF80700D4F81300CDF80B00D4F8F2
:10D8E0001700CDF80F0003208DF81300A81F204467
:10D8F000006805909DF800209DF8010002EB0020D3
:10D90000801C81B2684600F027FC8890BDF8200298
:10D91000ADF818009DF800209DF8011002EB0121E0
:10D920000B1D0B4991F8C0006A460AA103F04CF8A0
:10D930009DF81C209DF81D0002EB0020001DC1B2C7
:10D9400007A8FFF7E9FD00BF68E70000645701087A
:10D95000F0C300202F696F745F6761746577617928
:10D960002F757365725F696E666F2F61636B000060
:10D9700013B58AB004462A48006808901422284942
:10D98000091D03A8FAF773FC54208DF80E002068D7
:10D99000CDF80F00A088ADF813000020ADF81500F9
:10D9A0009DF82C008DF817001E48006806901D4851
:10D9B0000068401C1B4908609DF80C209DF80D0074
:10D9C00002EB0020801C81B203A800F0C5FB099087
:10D9D000BDF82400ADF81C009DF80C209DF80D103A
:10D9E00002EB01210B1D104991F8C00003AA0FA101
:10D9F00002F0EAFF9DF82C0005280FDA9DF82C00B4
:10DA00008DF8210008A801214FF4FB730222CDE913
:10DA100000100DF10F011046FBF760FD0CB010BDBA
:10DA200098570108A4030020F0C300202F62726100
:10DA300063656C65742F7265706F72742F627261AA
:10DA400063656C65745F696E666F000070B506464D
:10DA50000D46144624A12846FAF739FC18B10020D7
:10DA60002070012070BD23A12846FAF730FC18B1C0
:10DA7000022020700120F5E723A12846FAF727FCB1
:10DA800018B1052020700120ECE722A12846FAF702
:10DA90001EFC18B1042020700120E3E721A12846D4
:10DAA000FAF715FC18B1032020700120DAE722A153
:10DAB0002846FAF70CFC18B1062020700120D1E7A7
:10DAC00021A12846FAF703FC18B107202070012095
:10DAD000C8E721A12846FAF7FAFB18B10820207000
