:020000040800F2
:10800000F8A70020E9810008879B0008A9910008D3
:10801000839B0008018B0008D5AA0008000000001F
:108020000000000000000000000000004581000882
:10803000118E000800000000898100083DA20008A0
:1080400003820008038200080382000803820008FC
:1080500003820008038200080382000803820008EC
:1080600003820008038200080382000803820008DC
:1080700003820008038200080382000803820008CC
:1080800003820008038200080382000803820008BC
:10809000038200080382000803820008158E00088E
:1080A000038200080382000803820008038200089C
:1080B000BDA2000859A3000803820008038200083B
:1080C000038200080382000803820008038200087C
:1080D0000382000805A70008038200080382000845
:1080E000038200080382000803820008038200085C
:1080F000038200080382000803820008038200084C
:10810000038200080382000803820008038200083B
:10811000F5A6000803820008038200080382000815
:10812000038200080382000803820008038200081B
:10813000DFF80CD000F054FB00480047EDE50008E4
:10814000F8A70020204B19680868B0E8F00F80F30A
:108150000988BFF36F8F4FF0000080F311884EF055
:108160000D0E70470000000006480068006880F3AC
:10817000088862B661B6BFF34F8FBFF36F8F00DF21
:1081800000BF00BF08ED00E0EFF30980BFF36F8F81
:108190000D4B1A6820E9F00F106008B54FF0100081
:1081A00080F3118809F032FB4FF0000080F3118852
:1081B000BDE8084019680868B0E8F00F80F3098846
:1081C000BFF36F8F704700BFA4000020EFF3118052
:1081D0004FF0100181F31188704780F311887047C8
:1081E000EFF30580704700000648804706480047C7
:1081F000FEE7FEE7FEE7FEE7FEE7FEE7FEE7FEE757
:10820000FEE7FEE75DA200083181000800487047E4
:10821000B43C010840EA01039B0703D009E008C908
:10822000121F08C0042AFAD203E011F8013B00F83B
:10823000013B521EF9D27047D2B201E000F8012B87
:10824000491EFBD270470022F6E710B513460A46D6
:1082500004461946FFF7F0FF204610BD30B505462D
:108260002A460B4612F8010B13F8014B08B1A04245
:10827000F8D01CB1002802D06D1CF1E7284630BDB3
:10828000421C10F8011B0029FBD1801A704730B541
:1082900004460020034600E05B1C934203D2E05CEE
:1082A000CD5C401BF8D030BD30B5054600200346FC
:1082B00000E05B1C934205D2EC5CC85C201A01D143
:1082C000002CF6D130BD2DE9FE4F804681EA030037
:1082D000C00F0C46009021F0004123F00045B8EBA0
:1082E0000200A94105D24046214690461C460B4655
:1082F000024623F00040104347D0270DC7F30A0081
:10830000C3F30A510290401A019040286BDAC3F37C
:10831000130040F4801B0098924620B10023D2EB5A
:10832000030A63EB0B0B01985946C0F1400250461B
:1083300000F041F906460D4650465946019A00F0B4
:1083400059F910EB08006141002487EA115284EAD0
:10835000E7731A4340D0009A62B3019A012A4FEAA8
:10836000075215DC001B61EB02014FF0004202EAEC
:108370000752CDE90042001C41F5801132462B46E0
:1083800000F059F903B0BDE8F08F40462146F9E707
:10839000001B61EB0201001C41F5801300185B41DA
:1083A0002018A2F5001747EB030140EAD570B61973
:1083B0006D4111E06D084FEA360645EAC0754FEA97
:1083C0000752001B61EB0201001C41F580114908B6
:1083D0004FEA30000019514132462B4603B0BDE848
:1083E000F04F00F019B90098012240000023D0EBB3
:1083F000020263EBE073009821464FEAE074B8EBA9
:10840000000061EB0401E9E783F000435BE781F0E2
:10841000004158E72DE9FE4F81EA030404F00044CF
:1084200021F0004100944FF0000B23F0004350EA8C
:1084300001045ED052EA03045BD0C3F30A54C1F3D3
:108440000A552C44A4F2F3340194A0FB0254C1F366
:10845000130141F48011C3F3130343F4801301FBB0
:10846000024400FB034E840A970A44EA815447EA17
:108470008357A4FB076802958D0A05FB07854FEA21
:10848000932C04FB0C542705029D4FEA065847EA3B
:108490001637B5EB08056EEB070C870E920E47EA10
:1084A000811742EA8312A7FB0201B6EB0B0164EBD2
:1084B00000042B0D43EA0C335E1844EB1C50DA46E3
:1084C0005146E7FB0201C5F313044FEA0B3343EABD
:1084D00014534FEA0432019C43EA0603A4F10C044E
:1084E0000294009CCDE900B400F0A5F803B0BDE80B
:1084F000F08F00200146F9E730B5041E71F1000449
:1085000004DB4FF00044404264EB0101141E73F1A0
:10851000000405DB1C464FF00043524263EB0403AA
:10852000994208BF904230BD30B50B46014600204D
:108530002022012409E021FA02F59D4205D303FA25
:1085400002F5491B04FA02F52844151EA2F10102A6
:10855000F1DC30BD2DE9F05F0546002092469B46D8
:1085600088460646814640241BE028464146474649
:10857000224600F02FF853465A46C01A914110D3B4
:1085800011461846224600F016F82D1A67EB01082E
:108590004F4622460120002100F00DF817EB00099C
:1085A0004E41201EA4F10104DFDC484631462A4634
:1085B0004346BDE8F09F202A04DB203A00FA02F18E
:1085C000002070479140C2F1200320FA03F31943C1
:1085D00090407047202A04DB203A21FA02F0002163
:1085E000704721FA02F3D040C2F1200291400843C3
:1085F00019467047202A06DBCB17203A41FA02F0D1
:1086000043EAE07306E041FA02F3D040C2F12002EF
:10861000914008431946704710B5141E73F10004C9
:1086200008DA401C41F1000192185B411A4301D164
:1086300020F0010010BD2DE9F04D92469B4611B18E
:10864000B1FA81F202E0B0FA80F220329046FFF7F0
:10865000B2FF04460F4640EA0A0041EA0B015346C6
:108660005A46084313D0114653EA010019D0C8F105
:1086700040025046FFF7AEFF05460E4650465946AB
:108680004246FFF798FF084305D0012004E020464A
:108690003946BDE8F08D0020054346EAE0762C43DC
:1086A00037430A986305E40AA0EB08000022FD0A9C
:1086B00044EA47540A3002D500200146E9E70105A3
:1086C00010196941DDE9084500196941BDE8F04D1F
:1086D000A2E72DE9F04D81EA030404F0004B21F0FC
:1086E000004514464FF0000A23F0004150EA05020D
:1086F00020D054EA01021DD0C5F30A570246C5F343
:108700001303C1F31300C1F30A5640F4801543F478
:108710008013A7EB0608101BD64608F2FD3873EB52
:10872000050002D308F1010801E092185B41B8F19D
:10873000000F03DA00200146BDE8F08D00204FF461
:108740008011064684460EE0171B73EB050705D320
:10875000121B63EB050306434CEA010C49084FEA80
:10876000300092185B4150EA0107EDD152EA030054
:1087700012D082EA040083EA0501084305D0101BE9
:10878000AB4106D20122002306E000224FF0004355
:1087900002E06FF0010253101AEB06004CEB085197
:1087A00010EB0A0041EB0B01BDE8F04DFFF734BFC1
:1087B000C1F30A52C1F3130140F2FF3341F48011B7
:1087C0009A4202DA00200146704740F233439A424F
:1087D000A2F2334202DC5242FFF7FCBEFFF7EBBECF
:1087E000064C074D06E0E06840F0010394E80700FE
:1087F00098471034AC42F6D3FFF79EFC043D0108C5
:10880000243D010870B58C1810F8015B15F00703C2
:1088100001D110F8013B2A1106D110F8012B03E019
:1088200010F8016B01F8016B5B1EF9D12B0705D421
:108830000023521E0DD401F8013BFAE710F8013B6A
:10884000CB1A921C03E013F8015B01F8015B521E86
:10885000F9D5A142D8D3002070BD0000F8B500249E
:108860002E4D03220021012009F0BAFD2C49086099
:108870000846006820B92BA002F01CFA00BFFEE7F2
:10888000012009F087FD2E4908600846006820B9DC
:108890002CA002F00FFA00BFFEE709F03FFC2F49C1
:1088A00008600846006820B92DA002F003FA00BF56
:1088B000FEE700220121084609F092FD2F490860D9
:1088C0000846006810B92EA002F0F4F9314823469A
:1088D00001221249009030A00AF0C6FA304908601F
:1088E0000846006820B92FA002F0E4F900BFFEE7B7
:1088F0000AF0BCF8064664200023324601210090AD
:10890000274800680AF0FEFA012803D12BA002F0E4
:10891000D1F902E02FA002F0CDF9F8BDC0D40100DA
:1089200010000020637265617465207853656D6185
:1089300070686F7265206661696C0D0A0000000046
:108940001400002063726561746520784D7574654C
:1089500078206661696C0D0A000000001C00002090
:10896000637265617465204576656E7447726F75D4
:1089700070206661696C0D0A000000002000002074
:108980005175657565437265617465206661696CD2
:108990000D0A00000519010854696D657200000098
:1089A00018000020637265617465207854696D65F4
:1089B0007273206661696C0D0A0000005374617265
:1089C000742070696E672054696D6572204F6B2149
:1089D0000D0A000053746172742070696E67205430
:1089E000696D6572206661696C210D0A00000000E6
:1089F0001FB500201B4A0123CDE9012000930390FD
:108A000003464FF4806218A11B4809F083FF002041
:108A10001A4A0223CDE901200093039003464FF444
:108A2000007217A1194809F075FF0020184A0323A6
:108A3000CDE901200093039003464FF4806215A115
:108A4000174809F067FF0020164A0423CDE90120EA
:108A50000093039003464FF4006213A1154809F0F8
:108A600059FF1FBD04000020765461736B43686595
:108A7000636B4E6574000000D10E01080C000020ED
:108A8000765461736B5374617274000001160108AF
:108A900000000020765461736B557365724946007F
:108AA0008D18010808000020765461736B4D7367C0
:108AB00050726F00D510010810B5012001F0ECF8DC
:108AC000002001F0E9F810BD08B501460020009033
:108AD000034800900098084400900098008808BD62
:108AE000006C004008B500220092044A0092009AEF
:108AF00002440092009A116008BD0000006C004022
:108B000000BFFEE7014609B909487047012901D1B4
:108B10000020FAE7022901D10020F6E7032901D15C
:108B20000448F2E7042901D10020EEE70020ECE739
:108B3000D00A0020F810002008B525208DF800008C
:108B400001208DF8010000208DF8020001208DF831
:108B50000300684601F018F834208DF80000012069
:108B60008DF8010000208DF8020001208DF803002F
:108B7000684601F009F808BD38B504460D460020E6
:108B80000090062222494FF4106002F009F82048B4
:108B900000781F49497808431D49897808431C49D2
:108BA000C97808431A49097908431949497908439A
:108BB00078B900201649087008204870DC208870B9
:108BC0000020C8700871487106224FF4106002F04E
:108BD0003FF81048047010480560104810490860BC
:108BE000042269464FF4706002F032F804226946AC
:108BF0004FF4706002F02CF804226946900102F0F4
:108C000027F807F0C1F900200649087038BD0000B8
:108C1000840100204C010020780100207856341295
:108C2000740100206501002070B5694800780628AD
:108C300001D1052070BD674909788900491C4FF4AE
:108C4000407202EBC10001F085FF222806D000230C
:108C5000442202215F48007807F0FAFE012506F061
:108C6000A1F9C4B25A4890F90000052877D2DFE88C
:108C700000F0030F2C4F7700002057490870487010
:108C80008870C87007F020FB0120514908709CE0F3
:108C9000022C16D151480068007C4F4908704F489B
:108CA0000068407C48704D480068807C88704B4864
:108CB0000068C07CC87007F019FC022044490870A5
:108CC00002E005F0D9F805467FE0052C14D105F047
:108CD00097F840B142480068804707F055F90320F3
:108CE0003B49087013E007F04FF93E4800688047A1
:108CF0000020374908700AE0062C05D107F044F936
:108D000001203349087002E005F0B6F805465CE042
:108D1000042535480068401C00B3344800683249D7
:108D20000968B0EB510F19D900242B48007830495D
:108D3000087029484078487027488078887026480D
:108D4000C078C8702B480068401C2A49086007F0AA
:108D5000CDFB07F019F904201D49087035E033E018
:108D60000425052C24D100202349087020480078D0
:108D700019490978884211D11D4840781649497827
:108D800088420BD11A48807813498978884205D1E6
:108D90001748C0781049C978884203D0032517487E
:108DA0000068804707F0F0F80320094908700AE0DE
:108DB000062C05D107F0E8F801200549087002E00B
:108DC00005F05AF8054600E000BF00BF284631E72D
:108DD000650100204C010020550100207801002091
:108DE0008C01002094010020680100206C0100200B
:108DF0005101002074010020660100209001002034
:108E000002480068401C014908607047A00100202A
:108E10007047000008B500200090202000F01AF8EC
:108E200068B1202000F010F869460548006809F094
:108E3000ECFC009818B14FF080500249086008BD62
:108E40001000002004ED00E00149086070470000B8
:108E500014040140014600200022074B1B6803EA6E
:108E60000102054B14331B680B4013B10AB10120FA
:108E700000E0002070470000000401400021234969
:108E80008279002A3AD00A46126803689A430B4650
:108E90001A600A1D126803689A430B1D1A60027952
:108EA00011440A6803681A430A60184A08321268B3
:108EB00003689A43154B08331A601A1D1268036839
:108EC0009A43124B0C331A604279102A0ED11A1FA2
:108ED000126803681A430D4B08331A601A1D126892
:108EE00003681A43094B0C331A600DE007494279B5
:108EF00011440A6803681A430A6005E002791144C4
:108F00000A6803689A430A60704700000004014041
:108F10000149C860704700000020024030B5044697
:108F200004254FF4302000F07BF80546042D17D1BE
:108F30000C48006940F002000A4908610846446193
:108F4000006940F0400008614FF4302000F068F8FC
:108F500005460448006941F6FD7108400149086171
:108F6000284630BD0020024004200B49C96801F0AA
:108F7000010109B101200EE00749C96801F00401AF
:108F800009B1022007E00449C96801F0100109B1E4
:108F9000032000E0042070470020024003480069DD
:108FA00040F0800001490861704700000020024045
:108FB000014600200A46C2F30A031BB1012303EB5A
:108FC000D22000E0D00A704770B504460D46042652
:108FD000F00200F025F80646042E11D10948006978
:108FE00040F00100074908612580F00200F018F800
:108FF00006460448006941F6FE71084001490861CF
:10900000304670BD002002400248034948600348D2
:10901000486070472301674500200240AB89EFCDCF
:1090200000B502460423FFF79FFF034603E0FFF766
:109030009BFF0346521E012B01D1002AF7D102B932
:109040000523184600BD000030B500228B071C0F19
:109050000F2303FA04F20B4B8C1053F82430934384
:10906000084C8D1044F8253023468C1053F82430DA
:109070008C07240F00FA04F42343024C8D1044F8AB
:10908000253030BD080001402DE9F04102460025A1
:109090000026002000230024002791F803C00CF0D4
:1090A0000F0591F803C00CF0100CBCF1000F03D0B9
:1090B00091F802C04CEA050591F800C0BCF1000F20
:1090C00031D0146800202BE04FF0010C0CFA00F3B3
:1090D000B1F800C00CEA03069E4220D183004FF095
:1090E0000F0C0CFA03F7BC4305FA03FC4CEA04042A
:1090F00091F803C0BCF1280F06D14FF0010C0CFA17
:1091000000FCC2F814C00AE091F803C0BCF1480F9B
:1091100005D14FF0010C0CFA00FCC2F810C0401C45
:109120000828D1D31460B1F800C0BCF1FF0F34DDC2
:10913000546800202EE000F1080C4FF0010808FAF6
:109140000CF3B1F800C00CEA03069E4221D1830063
:109150004FF00F0C0CFA03F7BC4305FA03FC4CEA82
:10916000040491F803C0BCF1280F05D100F1080CEC
:1091700008FA0CF8C2F8148091F803C0BCF1480F4B
:1091800007D100F1080C4FF0010808FA0CF8C2F8FA
:109190001080401C0828CED35460BDE8F0814161A6
:1091A000704701617047000009A100200CE00A5CD3
:1091B000124B1A8000BF114A121F128802F040029F
:1091C000002AF8D0421CD0B22A28F0D300BFFEE714
:1091D0000D0A456E74657220486172644661756C53
:1091E000745F48616E646C65722C2053797374658A
:1091F0006D2048616C742E0D0A0000000438014097
:1092000070B59AB0642101A8FFF71DF864263146B5
:1092100001A800F097FBC4B2214601A807F01CFD8D
:10922000C5B2A54208D0032004F0EEFC03A001F073
:1092300041FD00201AB070BD0120FBE74865617256
:109240007462656174206661696C0A0D000000003B
:109250004CF6CC40014908607047000000300040E7
:1092600010B500F001F810BD4AF6AA2001490860C7
:10927000704700000030004001494860704700001E
:109280000030004001498860704700000030004015
:1092900001490860704700000030004000B585B00B
:1092A0000121052000F0D8FC0121880300F0D4FC46
:1092B0004FF40070ADF8100018208DF81300032053
:1092C0008DF8120004A93948FFF7DEFE4FF48060E4
:1092D000ADF8100004208DF8130004A93348FFF7FF
:1092E000D3FE4FF4E13000900020ADF80400ADF85B
:1092F0000600ADF80800ADF80C000C20ADF80A002F
:1093000069462B4801F06AFA012240F225512848AB
:1093100001F03FFA0121264801F005FA40212448D6
:1093200001F0F8F90121112000F096FC0121C80498
:1093300000F072FC4FF48060ADF8100018208DF83A
:10934000130003208DF8120004A91A48FFF79CFEB1
:109350004FF40060ADF8100004208DF8130004A94C
:109360001448FFF791FE4FF4E13000900020ADF873
:109370000400ADF80600ADF80800ADF80C000C20B4
:10938000ADF80A0069460C4801F028FA012240F2C3
:109390002551094801F0FDF90121074801F0C3F901
:1093A0004021054801F0B6F905B000BD00080140B4
:1093B0000038014000100140004C00400146CA172F
:1093C00001EB92729210A1EB820292B9642091FBA0
:1093D000F0F200FB121050B94FF4C87091FBF0F29C
:1093E00000FB121008B9012070470020FCE70120A3
:1093F000FAE70020F8E72DE9FF4704460D46164638
:10940000994600200390029600278046009002A80B
:1094100006F062FB8DF80C000398C0F303100228DD
:1094200000D01FE001A9029800F0EAF880460299F6
:1094300008440290DDE9011047180298381A022802
:1094400000DA0FE002A806F047FB8DF80000009854
:1094500000F00100207002A806F03EFB28704FF0DB
:10946000010800BF404604B0BDE8F0872DE9FF5F6A
:1094700006460C4617469846DDE90FABDDF83890F6
:109480000020039011980290002500200190009088
:1094900002A806F021FB8DF80C000398C0F303101E
:1094A000032800D032E00398C0F3C0003070039866
:1094B000C0F341002060039800F001003870694655
:1094C000029800F09DF801900299084402900099DA
:1094D000029845182A4602A9484606F011FB10B129
:1094E0000298281A00D511E02068002804DD02A89F
:1094F00006F0F9FAA8F800000298281ACBF8000044
:109500000298CAF800000120019000BF019804B041
:10951000BDE8F09F2DE9FE4F05460E4614461F4656
:10952000DDE90C9B00200290CDF804908046824635
:1095300001A806F0D1FA8DF808000298C0F30310D4
:10954000092800D02CE06946019800F059F88246BD
:10955000019908440190DDE9001000EB0108019831
:10956000A8EB0000022800DA1AE001A806F0BBFA16
:109570002880002020600DE02068B04202DD4FF01E
:10958000FF3A0DE001A806F0A7FA2268511C2160FD
:1095900047F8220001984045EED34FF0010A00BF82
:1095A0005046BDE8FE8F2DE9F84305460C460126DE
:1095B00000270020206000BF4FF0FF38781C0746CE
:1095C000042801DD00BF17E001216846A847804656
:1095D000B8F1010F00D00FE09DF8001001F07F01FD
:1095E000206801FB06002060F6019DF8000000F0F5
:1095F00080000028E0D100BF3846BDE8F8830000B5
:1096000070B504460D460348046029460248FFF73A
:10961000CAFF70BD10010020BDDD000830B5024654
:10962000002300BF0846CD1701EB5565ED11A1EBF6
:10963000C515ECB2CD1701EB5565E911002901DD27
:1096400044F0800418465B1C14540029EADC1846D8
:1096500030BD0000401C802801DA401C0AE0B0F553
:10966000804F01DA801C05E00349884201DAC01C02
:1096700000E0001D70470000FFFF1F002DE9FC41C6
:1096800004460F4615464FF0FF3800200190002693
:10969000009001212046A847012800D01EE00126A5
:1096A00069462846FFF77FFF601C0099FFF7B6FF69
:1096B000064400983044B84200DD0FE0009830B115
:1096C000A0190099A8470099884200D006E02078A8
:1096D0008DF804000198C0F3031800BF4046BDE8B0
:1096E000FC812DE9FC4704460E4615461F46DDF871
:1096F00028800020019081460094042E02DA6FF049
:10970000010924E0019865F307100190019867F3BF
:10971000C3000190062D01D1012100E00021019834
:1097200061F3420001909DF80410684608F0B9FC0E
:1097300002210098FFF772FF00990844009041460B
:10974000684608F0B4FC0098A0EB040900BF484646
:10975000BDE8FC872DE9FE4305460E4614460295FA
:1097600000200190009000274FF0FF38204600F0C5
:10977000A5F807468146FFF76DFFB04202DD6FF0A6
:1097800001088FE000208DF80400019820F0F0001F
:10979000103001909DF8041002A808F082FC3946B0
:1097A0000298FFF73BFF029908440290207A0428B0
:1097B00008D13EA102A808F060FC042102A808F02C
:1097C00070FC07E03BA102A808F057FC032102A8A7
:1097D00008F067FC00208DF80000A17E009861F37E
:1097E00041000090E07E08B1012100E000210098D6
:1097F00061F3820000900098C0F3800058B194F8A3
:109800003D10009861F3C400009094F83C1000985B
:1098100061F345100090206C08B9A06C20B100984D
:1098200020F0800080300090E06C08B9606D20B1BD
:10983000009820F04000403000909DF8001002A8F1
:1098400008F02FFC218B02A808F031FC02A8D4E913
:109850000423E16808F043FCE07E58B102A8D4E993
:109860000A23616A08F03BFC02A8D4E90D23216BAE
:1098700008F035FC0098C0F3C01028B102A8D4E964
:109880001123216C08F02BFC0098C0F3801028B144
:1098900002A8D4E91423E16C08F021FC0298A0EBA3
:1098A000050800BF4046BDE8FE8300004D515454FA
:1098B000000000004D5149736470000070B504460B
:1098C0000025207A032801D10C2503E0207A042802
:1098D00000D10A25D4E90412E06800F046F9801CA2
:1098E0000544E07E68B1D4E90A12606A00F03DF9EF
:1098F000861CD4E90D12206B00F037F93044801C2F
:109900000544206C08B9A06C30B1D4E91112206C68
:1099100000F02BF9801C0544E06C08B9606D30B193
:10992000D4E91412E06C00F020F9801C05442846AC
:1099300070BD70B504460D460E222946204600F043
:10994000EEF870BD70B504460D460C22294620463F
:1099500000F0E5F870BDF8B505460E461446002344
:109960000422314628460094FFF7BBFEF8BD2DE9DE
:10997000F04F87B005460F4690461C46DDE915B608
:10998000DDE9109A0695002005900490039000965A
:10999000204612A90EC900F042F804900290FFF789
:1099A00059FEB84203DD6FF00100039033E00598E3
:1099B00020F0F00030300590059868F3C300059062
:1099C000059864F342000590059869F3000005903E
:1099D0009DF8141006A808F064FB04990698FFF798
:1099E0001DFE06990844069006A812A90EC908F0A3
:1099F00076FB002C03DD514606A808F058FB3246E2
:109A000059460698FEF706FC0698304406900698DC
:109A1000401B039000BF039807B0BDE8F08F7FB5EF
:109A20000546089E002401A807C800F09EF8801C87
:109A300030440444002D00DDA41C204604B070BD59
:109A40002DE9FF5F05460E4617469846DDE90E9A5A
:109A50000395002002900190009000245146484652
:109A600000F046F883460190FFF7F4FDB04202DDB6
:109A7000A01E009038E000208DF80800029820F029
:109A8000F00080300290029867F3C30002900298C1
:109A900020F00600801C02909DF8081003A808F032
:109AA00000FB01990398FFF7B9FD0399084403905F
:109AB000414603A808F0FBFA00240FE004EB440041
:109AC0000AEB800C03A89CE80E0008F008FB109835
:109AD00010F8241003A808F0E4FA641C4C45EDDBF0
:109AE0000398401B009000BF009804B0BDE8F09FB1
:109AF0002DE9F04105460E46022700240AE004EB5A
:109B0000440006EB800393E8070000F02EF8C01C29
:109B10000744641CAC42F2DB3846BDE8F0812DE915
:109B2000FC4104460D46164600200190471E009455
:109B3000022D01DA871E15E000208DF8040001983F
:109B400066F3071001909DF80410684608F0A9FA22
:109B500000210098FFF762FD0099084400900098EA
:109B6000071B00BF3846BDE8FC8137B500240098CC
:109B700020B10098FEF784FB044600E0019C2046DB
:109B80003EBD00BFFEE7704770B5002100230F22E5
:109B9000C47804B3154C246804F4E064C4F5E064AC
:109BA000210AC1F10403CA40447804FA03F184781D
:109BB0001440214309010E4C0678A155047804F0A5
:109BC0001F050124AC4005786D11AD0005F1E025BD
:109BD000C5F8004109E0047804F01F050124AC40F9
:109BE000044D0678761145F8264070BD0CED00E076
:109BF00000E400E080E100E002490143024A116014
:109C0000704700000000FA050CED00E00149086211
:109C10007047000000000E4229B1064AD269024393
:109C2000044BDA6104E0034AD2698243014BDA61F2
:109C3000704700000010024029B1064A1269024331
:109C4000044B1A6104E0034A12698243014B1A6112
:109C5000704700000010024029B1064A9269024391
:109C6000044B9A6104E0034A92698243014B9A6172
:109C7000704700000010024029B1064AD268024332
:109C8000044BDA6004E0034AD2688243014BDA6095
:109C90007047000000100240014908607047000052
:109CA000400442420348406A40F0807001494862E3
:109CB000704700000010024030B50021002200244F
:109CC00000232D4D6D6805F00C0121B1042905D04C
:109CD000082923D105E0294D056022E0274D0560C4
:109CE0001FE0254D6D6805F47012234D6D6805F475
:109CF0008034022505EB92421CB9214D5543056085
:109D00000BE01D4D6D6805F400351DB11C4D55432C
:109D1000056002E0194D5543056002E0174D0560EE
:109D200000BF00BF144D6D6805F0F0010909154D25
:109D30006B5C0568DD4045600F4D6D6805F4E061C2
:109D4000090A104D6B5C4568DD4085600A4D6D6801
:109D500005F46051C90A0B4D6B5C4568DD40C56078
:109D6000054D6D6805F44041890B074D6B5CC56876
:109D7000B5FBF3F5056130BD0010024000127A001A
:109D800000093D008E0000209E00002010B5014615
:109D90000022002300204A11012A02D1094C236825
:109DA00006E0022A02D1074C236A01E0054C636AEF
:109DB00001F01F02012494401C400CB1012000E07E
:109DC000002010BD0010024000210B4A11700A4A09
:109DD000203A82F82010012802D0042808D103E09C
:109DE0000121054A117004E00521034A117000E0C9
:109DF00000BF00BF7047000020100240014908600A
:109E0000704700008004424201490860704700002A
:109E10003C0442420249096A0143014A1162704707
:109E2000001002400348008840F0100001490880FB
:109E30007047000004280040034800884FF6EF7187
:109E400008400149088070470428004029B1064AAB
:109E500012880243044B1A8004E0034A12888243AA
:109E6000014B1A80704700000028004000B50246F0
:109E7000FFF7D8FF100C03490880091D0A80FFF77F
:109E8000DBFF00BD1828004000B50246FFF7CAFFFF
:109E9000C2F3034003490880091D0A80FFF7CCFF85
:109EA00000BD00000828004000BF0348008800F003
:109EB00020000028F9D07047042800400748008897
:109EC0004FF6F77108400549088000BF0348008835
:109ED00000F008000028F9D0704700000428004076
:109EE0002DE9F05F06460F4690469946DDE90AAB3C
:109EF0000024B6F5FA6F03DB40F63300864202DD3C
:109F00000020BDE8F09F40F2B2750AE02846FFF756
:109F100055FA10B11E48044401E01E480444681C70
:109F200085B2B542F2DB781EC7B2002510E01A48B0
:109F3000405D40F2A321484304EBC0143046FFF7D4
:109F40003DFA18B1012D01D114480444681C85B2B2
:109F5000BD42ECDBA8F1010040F2A321484304EB31
:109F6000C014C9EB4910C0EB092004EB0014CAEB84
:109F70000A1004EB80045C440120FFF747FEFFF762
:109F800093FF2046FFF772FFFFF78EFF0120B8E72F
:109F90000085E2018033E101E033010880510100D6
:109FA00010B54FF480510248FFF7FBF810BD0000D8
:109FB000000C014010B54FF480510248FFF7EFF854
:109FC00010BD0000000C014021B1028842F04002A7
:109FD000028004E002884FF6BF731A400280704787
:109FE00000B585B000F076F800F030F80020ADF84C
:109FF0000C00ADF800004FF48270ADF802000020B4
:10A00000ADF80400ADF80600ADF808004FF400709C
:10A01000ADF80A000020ADF80E000720ADF81000E2
:10A020006946044800F038F801210248FFF7CCFFE8
:10A0300005B000BD00380040012080F3108800BF4B
:10A040007047002080F3108800BF704708B54FF4B8
:10A050006040ADF8000003208DF8020018208DF854
:10A06000030069460B48FFF70FF84FF48050ADF836
:10A07000000003208DF8020010208DF803006946CF
:10A080000448FFF701F84FF480510248FFF789F8C0
:10A0900008BD0000000C014010B50022028802F447
:10A0A00041520B884C8823438C882343CC8823431C
:10A0B0000C8923434C8923438C892343CC89234334
:10A0C0001A430280838B4FF2FF74234083830B8AF1
:10A0D000038210BD10B501210820FFF7BDFD01214D
:10A0E0008803FFF799FD01210846FFF7B5FD10BD74
:10A0F00000BF0B48008800F002000028F9D0FF20C4
:10A100000749091D088000BF0548008800F00100CC
:10A110000028F9D00248001D0088C0B27047000036
:10A120000838004000BF0A49098801F002010029EF
:10A13000F9D00749091D088000BF0549098801F0C9
:10A1400001010029F9D00249091D09887047000062
:10A150000838004010B500F001F810BD0CB5002023
:10A16000019000903348006840F480303149086025
:10A1700000BF3048006800F4003000900198401C97
:10A180000190009818B90198B0F5A06FF1D1294855
:10A19000006800F4003010B10120009001E00020C0
:10A1A00000900098012843D12348006840F0100037
:10A1B000214908600846006820F00300086008464E
:10A1C000006840F0020008601A4840681949486079
:10A1D0000846406848600846406840F4806048602F
:10A1E0000846406820F47C1048600846406840F407
:10A1F000E81048600846006840F08070086000BFC2
:10A200000C48006800F000700028F9D00948406848
:10A2100020F00300074948600846406840F002000B
:10A22000486000BF0348406800F00C000828F9D1DE
:10A230000CBD0000001002400020024010B5FDF7E8
:10A24000C5FF08F019FC18B14FF0805002490860B2
:10A250000020FDF7C2FF10BD04ED00E010B513486B
:10A26000006840F001001149086008464068104944
:10A2700008400E494860084600680E4908400B49EE
:10A2800008600846006820F480200860084640689E
:10A2900020F4FE0048604FF41F008860FFF75AFF6B
:10A2A0004FF000600449086010BD0000001002403B
:10A2B0000000FFF8FFFFF6FE08ED00E010B50221F8
:10A2C000480700F06DF958B10221480700F065F821
:10A2D00000220221480700F074F91B4800688047FB
:10A2E0000421080700F05CF958B10421080700F0C8
:10A2F00054F800220421080700F063F913480068AD
:10A3000080470821C80600F04BF958B10821C8065B
:10A3100000F043F800220821C80600F052F90C486A
:10A32000006880471021880600F03AF958B11021E2
:10A33000880600F032F800221021880600F041F96A
:10A3400004480068804710BD740000207800002099
:10A350007C0000208000002010B501210B4800F097
:10A360001FF990B10121094800F017F8084800686A
:10A37000401C07490860084600680A21B0FBF1F25A
:10A3800001FB120008B9FEF73BFD10BD00040040C0
:10A3900070000020CA4302827047CA43028270479D
:10A3A00021B1028842F00102028004E002884FF6E7
:10A3B000FE731A400280704710B504466848844214
:10A3C00008D10121C014FFF757FC0021E014FFF76A
:10A3D00053FCC4E0B4F1804F08D101210846FFF7D7
:10A3E0002BFC00210120FFF727FCB8E05D488442E8
:10A3F00008D101210220FFF71FFC00210220FFF7F6
:10A400001BFCACE05848844208D101210420FFF72E
:10A4100013FC00210420FFF70FFCA0E05348844206
:10A4200008D101210820FFF707FC00210820FFF7D1
:10A4300003FC94E04E48844208D101211020FFF72C
:10A44000FBFB00211020FFF7F7FB88E0494884421E
:10A4500008D101212020FFF7EFFB00212020FFF78A
:10A46000EBFB7CE04448844208D101214014FFF713
:10A4700003FC00216014FFF7FFFB70E03F488442BB
:10A4800009D10121C804FFF7F7FB00214FF4002098
:10A49000FFF7F2FB63E03A48844209D10121080545
:10A4A000FFF7EAFB00214FF48010FFF7E5FB56E0D1
:10A4B0003448844209D101214805FFF7DDFB002122
:10A4C0004FF40010FFF7D8FB49E02F48844208D131
:10A4D00001214020FFF7B0FB00214020FFF7ACFB3B
:10A4E0003DE02A48844208D101218020FFF7A4FBE7
:10A4F00000218020FFF7A0FB31E02548844208D1ED
:10A5000001218015FFF798FB0021A015FFF794FBB0
:10A5100025E02048844209D101210804FFF7ACFB63
:10A5200000214FF48030FFF7A7FB18E01A4884425F
:10A5300009D101214804FFF79FFB00214FF40030AF
:10A54000FFF79AFB0BE01548844208D101218804EB
:10A55000FFF792FB00214FF48020FFF78DFB10BD29
:10A56000002C01400004004000080040000C0040A6
:10A57000001000400014004000340140004C014035
:10A58000005001400054014000180040001C0040F1
:10A5900000200040004001400044014000480140CC
:10A5A00030B50246002000230024158A05EA010385
:10A5B000958905EA010413B10CB1012000E00020E7
:10A5C00030BD1AB183890B43838102E083898B43B9
:10A5D00083817047002202881D4B98420ED01D4B8C
:10A5E00098420BD0B0F1804F08D01B4B984205D059
:10A5F0001A4B984202D01A4B984204D14FF68F73EF
:10A600001A404B881A43174B984207D0164B984272
:10A6100004D04FF6FF431A40CB881A4302808B8840
:10A6200083850B8803850A4B98420BD0094B9842CF
:10A6300008D00E4B984205D00D4B984202D00D4BDE
:10A64000984201D10B7A0386012383827047000070
:10A65000002C01400034014000040040000800408C
:10A66000000C004000100040001400400040014079
:10A6700000440140004801400EB501210220FFF7CF
:10A68000CBFA1348FFF798FEC820ADF8040048F64F
:10A69000A040ADF800000020ADF80600ADF80200C3
:10A6A00069460B48FFF796FF01210948FFF772FE44
:10A6B000012211460648FFF784FF00200449243197
:10A6C000088000210248FFF76BFE00F003F80EBD82
:10A6D0000004004008B51D208DF8000000208DF812
:10A6E000010001208DF802008DF803006846FFF795
:10A6F0004BFA08BD10B5024800F006F910BD000085
:10A70000F810002010B5024800F0FEF810BD00005F
:10A71000D00A002001F40072B2F5007F00D100BF22
:10A72000CA430280704721B1828942F4005282817B
:10A7300004E082894DF6FF731A408281704770B53C
:10A740000246002400230025002040F66A16B1428C
:10A7500000D100BFC1F3421501F01F03012606FA24
:10A7600003F3012D02D19689334006E0022D02D178
:10A77000168A334001E0968A33400C12012606FA0D
:10A7800004F41688344013B10CB1012000E000201D
:10A7900070BDF0B50346002400260025002040F6D9
:10A7A0006A17B94200D100BF1846C1F3421401F044
:10A7B0001F06012707FA06F5012C01D10C3004E031
:10A7C000022C01D1103000E014301AB107682F4379
:10A7D000076002E00768AF430760F0BD2DE9F0476E
:10A7E00086B005460E460024A24600BFA1460027BB
:10A7F000B08900B100BF2F462C8A4CF6FF70044090
:10A80000F08804432C82AC894EF6F3100440B088E3
:10A8100031890843718908430443AC81AC8A4FF6FF
:10A82000FF400440B0890443AC8201A8FFF744FA1A
:10A830001F48874202D1DDF810A001E0DDF80CA02E
:10A84000A88900F4004040B10AEBCA0000EB0A10EE
:10A8500031684900B0FBF1F807E00AEBCA0000EBF1
:10A860000A1031688900B0FBF1F86420B8FBF0F001
:10A8700004012009642101FB1089A88900F400402B
:10A8800040B1322000EBC900B0FBF1F000F007004E
:10A89000044308E0322000EB09106421B0FBF1F022
:10A8A00000F00F0004432C8106B0BDE8F0870000E3
:10A8B0000038014001468888C0F308007047C1F3A2
:10A8C00008028280704770B504460D4606F026FAED
:10A8D000668B06F045FA0EB9002070BD218BA0688A
:10A8E000405C287006F01AFA208B401C80B220834E
:10A8F000E189884201DB00202083608B401E608359
:10A9000006F02EFA0120E8E770B5044640F2255122
:10A910002068FFF714FFE0B12068FFF7CBFFC5B256
:10A92000608BE18988420EDAE18AA0684554E08AAA
:10A93000401C80B2E082E189884201DB0020E08295
:10A94000608B401C6083606A10B12846616A88474A
:10A9500000BF40F227712068FFF7F1FE08B3A08A1C
:10A9600060B9002240F227712068FFF712FF012230
:10A9700040F226612068FFF70CFF37E0638A6268C7
:10A98000D15C2068FFF79BFF608A401C80B2608228
:10A99000A189884201DB00206082A08A401EA0823B
:10A9A00024E040F226612068FFF7C9FEF0B1A08ADA
:10A9B00050B9002240F226612068FFF7EAFE206AC3
:10A9C000A0B1206A804711E0638A6268D15C206888
:10A9D000FFF775FF608A401C80B26082A1898842BF
:10A9E00001DB00206082A08A401EA08270BDF8B505
:10A9F00004460E461746002525E00CE006F08EF9C9
:10AA0000A08A009006F0ACF9A089BDF80010884239
:10AA100000DD01E000BFF1E700BF705D228A6168E0
:10AA2000885406F07BF9208A401C80B22082A189DC
:10AA3000884201DB00202082A08A401CA08206F010
:10AA40008FF9681C85B2BD42D7DB012240F2277125
:10AA50002068FFF79EFEF8BD1648174908601748A2
:10AA60004860174888604FF4806088814010C88132
:10AA7000002008824882C882088348838882C8618F
:10AA8000086248620F481049086010484860104842
:10AA900088604FF4006088814010C88100200882DF
:10AAA0004882C882088348838882C86108624862F5
:10AAB0007047000000380140D00A0020F80A00204A
:10AAC000F80E0020004C0040F8100020201100205B
:10AAD0002019002000BFFEE70EB501210820FFF776
:10AAE000BBF801210846FFF7B7F82020ADF80800B1
:10AAF00003208DF80A0048208DF80B0002A90B48AE
:10AB0000FEF7C2FA05210120FEF79EFA20200090F0
:10AB100000208DF804000C208DF8050001208DF830
:10AB200006006846FEF7AAF90EBD0000000C0140C1
:10AB300008B517208DF8000002208DF801000020D4
:10AB40008DF8020001208DF803006846FFF71CF81D
:10AB500008BD000070B504461049886880470F4959
:10AB60000869804700BF0D48C169C4F307408847A2
:10AB70000A48C169C4F307208847E0B2074AD1698F
:10AB800088470649886980470546044948698047DF
:10AB90000249C8688047284670BD00002401002093
:10ABA0002DE9F04104460E4617460025A8461449F3
:10ABB0008868804712490869804700BF1048C1690A
:10ABC000C4F3074088470E48C169C4F3072088478B
:10ABD000E0B20B4AD169884700BF06E0084988699E
:10ABE00080477055681C85B200BFBD42F6DB044942
:10ABF000486980470249C8688047BDE8F081000085
:10AC00002401002070B504460D461049886880472D
:10AC10000E490869804744F004040C48C169C4F334
:10AC2000074088470948C169C4F307208847E0B254
:10AC3000064AD16988470548C169284688470349BB
:10AC4000486980470149C868804770BD24010020D9
:10AC50002DE9F04104460E4617460025A846144942
:10AC60008868804712490869804744F00404104806
:10AC7000C169C4F3074088470D48C169C4F3072080
:10AC80008847E0B20A4AD169884700BF06E0705D94
:10AC9000074AD1698847681C85B200BFBD42F6DB10
:10ACA0000349486980470249C8688047BDE8F08188
:10ACB000240100200FB4054B10B503A9044A0298E3
:10ACC00000F0DAF810BC5DF814FB000075E4000831
:10ACD000CC02002002E008C8121F08C1002AFAD1E5
:10ACE00070477047002001E001C1121F002AFBD10C
:10ACF000704700002DE9FF5F82B00021DDE90430DC
:10AD0000020DDDF840B0034318D044F61050A2F213
:10AD1000FF3242431514119801281FD0A5EB0B00F8
:10AD2000401C5FEA000A4FF000064E4FDFF83891F2
:10AD3000B046504615D5CAF1000413E0119801241D
:10AD40004AA3012801D16FEA0B010298119AC0E9C8
:10AD50000031C0E9024206B0BDE8F09FCBF100002F
:10AD6000DFE704460021404A491842EB0450CDE990
:10AD7000001012E0E00707D032463B464046494605
:10AD8000FDF748FB8046894632463B461046194649
:10AD9000FDF740FB06460F466410002CEAD1DDE9C2
:10ADA0000401DDE90023BAF1000F06DAFDF732FBFA
:10ADB00042464B46FDF72EFB05E0FDF78AFC424676
:10ADC0004B46FDF786FC04460E460022284BFDF755
:10ADD00093FB03D84FF0FF30014607E00022254BDC
:10ADE00020463146FDF76FFAFDF7E2FC102409E03A
:10ADF000002C0ADB0A220023FDF7ACFB039B303258
:10AE00001A55641E50EA0102F2D1641C039AC4F17F
:10AE100011031444119A012A03D0012208430DD1D1
:10AE20000AE0084304D000204FF0110B119072E7A4
:10AE3000A3EB0B056D1E0DE05B4504DD4FF000023A
:10AE400005F1010504E003DA4FF00002A5F1010568
:10AE5000002AECD002981199C0E90231C0E90045FE
:10AE600079E70000000014400000F03F30000000CF
:10AE70000000F0430000E03F2DE9FF4F95B09B46F6
:10AE80008946064600250FE2252877D1002427466B
:10AE9000F84A0121059400E0044316F8013F203BE5
:10AEA00001FA03F01042F7D130782A2811D06FF060
:10AEB0002F033078A0F13002092A16D8059A44F001
:10AEC000020402EB820203EB42021044761C05905E
:10AED000EFE759F8042B0592002A03DA504244F4B4
:10AEE0000054059044F00204761C30782E2816D1C8
:10AEF00016F8010F44F004042A280DD06FF02F0239
:10AF00003078A0F13003092B09D807EB870302EB57
:10AF10004303C718761CF3E759F8047B761C307896
:10AF20006C280FD006DC4C2817D068280DD06A2872
:10AF300014D104E0742810D07A280FD10DE044F425
:10AF400000140AE044F4801401E044F440147278E0
:10AF5000824202D104F58014761C761C3078662873
:10AF60000BD013DC582877D009DC002875D0452891
:10AF7000F6D04628F4D047281AD19DE118E063287E
:10AF800035D0642879D0652812D195E1702873D026
:10AF900008DC6728F1D069286FD06E280DD06F28A3
:10AFA00006D1B5E073282CD0752875D0782874D0D8
:10AFB0005A46179990476D1C75E1C4F30250022858
:10AFC00009D003280DD0D9F8001004280DD00D6049
:10AFD00009F1040967E1D9F80010EA17C1E9005244
:10AFE000F6E7D9F800100D80F2E70D70F0E719F8D8
:10AFF000041B8DF8001000208DF80100EA460120A6
:10B0000003E059F804AB4FF0FF3061074FF0000147
:10B0100002D40DE008F101018846B9420FDA8045FB
:10B02000F8DB1AF808100029F4D108E008F1010152
:10B0300088468142FADB1AF808100029F6D10598F3
:10B040005B46A0EB080721463846179A00F094FAB1
:10B05000284400EB080507E04DE029E10DE01AF86F
:10B06000010B5A4617999047B8F10108F7D25B4691
:10B0700021463846179A13E142E00A220092C4F3AF
:10B0800002524FF0000A022A08D059F804CB032AD2
:10B090004FEAEC710AD00DE029E02AE009F107013E
:10B0A00021F00702F2E802C1914609E00FFA8CFC98
:10B0B0004FEAEC71042A03D14FFA8CFC4FEAEC7191
:10B0C000002907DA0A460021DCF1000C61EB0201DD
:10B0D0002D2202E0220504D52B228DF80420012226
:10B0E00003E0E20701D02022F7E7904659E00A2169
:10B0F00002E010220DE010214FF0000A00910BE059
:10B1000010224FF0000A44F004040827009203E0E4
:10B1100008224FF0000A0092C4F30252022A05D01E
:10B1200059F804CB0021032A08D009E009F10701EE
:10B1300021F00702F2E802C1914605E01FFA8CFCFB
:10B14000042A01D10CF0FF0C4FF00008220728D58B
:10B15000702806D0009B83F0100353EA0A0305D041
:10B160000EE040228DF80420012208E05CEA010292
:10B1700006D030228DF804208DF80500022290467A
:10B18000009B83F0080353EA0A030AD15CEA010238
:10B1900001D1620705D530228DF804204FF0010857
:10B1A0007F1E582804D034A003900EA802900DE012
:10B1B00036A0F9E753466046009AFDF7CBF984467E
:10B1C0000398825C0298401E029002705CEA0100C3
:10B1D000F0D1029806A9081A00F1200A600702D5EA
:10B1E00024F4803400E00127574502DDA7EB0A0074
:10B1F00000E0002000EB0A01009005984144401A4D
:10B200000590E00306D45B462146179A059800F0A6
:10B21000B3F90544002706E001A85A46C05D179916
:10B2200090476D1C7F1C4745F6DBE0030CD55B4661
:10B230002146179A059800F09FF9054404E0302054
:10B240005A46179990476D1C0099481E0090002996
:10B25000F5DC08E0029802995A460078491C0291F0
:10B26000179990476D1CBAF10001AAF1010AF1DCAF
:10B2700065E10000092801003031323334353637BA
:10B280003839616263646566000000003031323332
:10B2900034353637383941424344454600000000D2
:10B2A00000F058F90544761C307800287FF4ECADA6
:10B2B00019B02846BDE8F08F620700D4062709F1CF
:10B2C000070222F0070CFCE80223E14603F00048E5
:10B2D0005FEA080C02D00FF2702C0DE05FEA045C0C
:10B2E00002D50FF2682C07E05FEAC47C02D00FF2AF
:10B2F000602C01E0AFF2700C4FF0FF3823F00043F8
:10B30000CDF850C065280CD006DC452809D0462869
:10B310001DD047283DD13DE0662818D067287ED152
:10B3200038E00021112F01DB112000E0781CCDE96D
:10B33000000106A90EA8FFF7DDFCDDE90F010E9A5A
:10B3400003910021009207F1010A04914DE04FF0B2
:10B3500000400097CDE9011006A90EA8FFF7CAFC2E
:10B36000DDE90F0203920E9B11990022DDF80CA07B
:10B370000093049211B9791C00EB010AB7EB0A00A3
:10B3800004D4C0F1FF3007F1010A0490AAEB0700D2
:10B39000019044E0012F00DA01270021112F01DD87
:10B3A000112000E03846CDE9000106A90EA8FFF7FC
:10B3B000A1FCDDE90F010E9A039100210491009296
:10B3C000BA4621070CD40399514500DA8A46BAF1EE
:10B3D000010F05DD009AAAF10101515C302908D066
:10B3E000B84202DA10F1040F06DA0121CDE90110AA
:10B3F00015E0AAF10101E9E7002805DC0499014400
:10B400000491AAEB000102E0411C514500DD8A468F
:10B410000499401A401C01904FF000400290200710
:10B4200004D40198504501DBCDF8048000208DF84C
:10B430004F0002980DF14F07B0F1004F25D02B209F
:10B440000E9002984FF0020800280CDA4042029059
:10B450002D200E9007E00A210298FDF765F83031A3
:10B46000029007F8011DB8F10001A8F10108F2DC13
:10B4700002980028EFD1791E0E980870307800F0FD
:10B48000200040F0450007F8020D12A8C01B00F193
:10B4900007081498007800B1012000EB0A01019818
:10B4A00001EBE07105984144401A401E0590E0030D
:10B4B00006D45B462146179A059800F05DF80544CE
:10B4C0001498007818B15A46179990476D1CE003FC
:10B4D00024D55B462146179A059800F04DF805449F
:10B4E0001CE00498002807DBDDE90301884203DD46
:10B4F0000098405C179901E0179930205A46904710
:10B50000049805F10105401C04900198401E01902B
:10B5100004D12E205A46179990476D1CBAF10001AC
:10B52000AAF1010ADDDC05E017F8010B5A4617996C
:10B5300090476D1CB8F10001A8F10108F4DC5B46EE
:10B540002146179A0598ABE62D0000002B0000005D
:10B55000200000002DE9F041044600251E46174654
:10B56000880404D405E039462020B0476D1C641ED1
:10B57000F9D52846BDE8F0812DE9F04104460025C3
:10B580001E469046C80301D5302700E020278804D6
:10B5900004D505E041463846B0476D1C641EF9D518
:10B5A0002846BDE8F08100002DE9F041D2B000242A
:10B5B00000260025002011900F9010900C900D9007
:10B5C0000E90804686A000680B9086A103C9CDE945
:10B5D000090186A103C9CDE9070186A103C9CDE907
:10B5E000050186A30FCB01AF0FC700270DF1480857
:10B5F0004FF4807112A8FCF726FE10E0601E12A91D
:10B60000085C60B981A14046FCF728FE20B181A109
:10B610004046FCF723FE10B912A800EB04082046B0
:10B62000621CD4B212AA8118002002F0DDFC0028AE
:10B63000E4D17BA14046FCF711FE0546002D6BD0FE
:10B64000AD1D002423E0FCF7E1FD0068295D405CAE
:10B65000202818D1285D02F0C5FB11A9895D084496
:10B6600011A98855FCF7D2FD0168601C285C085CB4
:10B6700020280AD111A8805D00EB80004006000E52
:10B6800011A9885501E0701CC6B2601CC4B2042E1A
:10B69000D9DB65A12846FCF7E1FD05461DB36D1D0C
:10B6A00000241DE0FCF7B2FD0068295D405C202805
:10B6B00013D1285D02F096FB384487B2FCF7A6FD53
:10B6C0000168601C285C085C202807D107EB870014
:10B6D0004FF6FF7101EA400700E003E0601CC4B2CE
:10B6E000052CDFDB00BF52A0FFF7E4FA002406E0E0
:10B6F00011A8015D52A0FFF7DDFA601CC4B2042C52
:10B70000F6DB39464FA0FFF7D5FA394611A801F00C
:10B7100043F952B0BDE8F0814EA14046FCF79EFDD2
:10B720000546002D4CD00A35002423E0FCF76EFDC1
:10B730000068295D405C202818D1285D02F052FB8A
:10B740000FA9895D08440FA98855FCF75FFD0168C2
:10B75000601C285C085C20280AD10FA8805D00EBE3
:10B7600080004006000E0FA9885501E0701CC6B28B
:10B77000601CC4B2062ED9DB39A12846FCF76EFD49
:10B78000054635B1ED1C28680C9068680D900020C6
:10B79000287234A0FFF78EFA002406E00FA8015D9E
:10B7A00027A0FFF787FA601CC4B2062CF6DB0CA9B1
:10B7B00032A0FFF77FFA0CA90FA801F00FF8A8E755
:10B7C00031A14046FCF74AFD05463DB10E2201A9D4
:10B7D000032002F018FC2EA0FFF76CFA002098E777
:10B7E0000000000103050106070926000000000013
:10B7F0000000000100000000000000075A46000899
:10B80000000000000000000749CA000053455449E9
:10B8100050000000534554434C49454E540000002D
:10B8200053455449503D0000504F52543D000000D4
:10B830000D0A526563656976652049503A0000003B
:10B8400025642000202020504F52543A25640D0AD0
:10B8500000000000534554434C49454E543D000000
:10B8600049443D000D0A5265636569766520434C85
:10B8700049454E54204D41433A00000020202049C4
:10B88000443A25730D0A00005550444154410000CC
:10B890007570646174612E0D0A00000010B50524F6
:10B8A0000CA0FFF707FA0EE0214612A0FFF702FAFC
:10B8B0004FF47A7002F0CEFDFFF776FE012800D13A
:10B8C00010BD601EC4B2002CEEDC0BA0FFF7F2F935
:10B8D00000BFF5E7506C6561736520736574206384
:10B8E0006F6E66696720706172616D657465722E36
:10B8F0002E2E2E00256420000D0A00002DE9F047B1
:10B90000C8B0804689464FF0000A172102A8FCF70C
:10B910009AFCB848006801902A208DF806000120A2
:10B920008DF80700B4480168029140680390D8F888
:10B930000000CDF81100D8F80400CDF81500D9F8B2
:10B940000000CDF81900AC480E38018DABA0FFF710
:10B95000B1F9002512E0002609E0A7481C3000EBF1
:10B96000C500815DAEA0FFF7A5F9701CC6B2082E18
:10B97000F3DBADA0FFF79EF9681CC5B29E480E38F8
:10B98000008DA842E7DC00254AE000260BE018F80D
:10B99000061099481C3000EBC500805D814200D044
:10B9A00003E0701CC6B2082EF1DB00BF082E35D1B3
:10B9B00000208DF81000192101A801F0D7FF0446DE
:10B9C0002046E11704EB11610912A4EB0121C9B271
:10B9D0008DF81D10E11704EB1161090A8DF81E1096
:10B9E0001B2201A991A003F0C9F8A0B199A0FFF70B
:10B9F00061F9002506E001A8415D89A0FFF75AF929
:10BA0000681CC5B21B2DF6DB87A0FFF753F9012098
:10BA100048B0BDE8F08799A0FFF74CF9681CC5B2A3
:10BA200075480E38008DA842AFDC73480E38018D82
:10BA30002A3000EBC100D8F800100160D8F80410DB
:10BA400041606D480E38008D401C6B490E390885E9
:10BA5000CF2081F827000846018D97A0FFF72AF92B
:10BA6000002512E0002609E063481C3000EBC50009
:10BA7000815D6BA0FFF71EF9701CC6B2082EF3DBC8
:10BA800069A0FFF717F9681CC5B25B480E38008D36
:10BA9000A842E7DC58480E38008D2A2101EBC0028D
:10BAA00055490E398C4802F02BF907462FB14FF05B
:10BAB000010A394689A0FFF7FDF84F480E38008D7E
:10BAC0002A2101EBC00208A9834802F001F90746C8
:10BAD000012F05D182468BA0FFF7ECF8002097E7F5
:10BAE00000250EE008A8405D43490E39495D8842B3
:10BAF00005D04FF0010A8BA0FFF7DCF809E0681CC5
:10BB0000C5B23D480E38008D2A2101EBC000A84285
:10BB1000E8DC00BFBAF1010F35D101208DF810002B
:10BB2000192101A801F022FF04462046E11704EB89
:10BB300011610912A4EB0121C9B28DF81D10E117A2
:10BB400004EB1161090A8DF81E101B2201A937A010
:10BB500003F014F890B17AA0FFF7ACF8002506E0E6
:10BB600001A8415D2EA0FFF7A5F8681CC5B21B2DEA
:10BB7000F6DB2DA0FFF79EF8012049E77AA0FFF73A
:10BB800099F8002044E702208DF81000192101A83F
:10BB900001F0ECFE04462046E11704EB11610912A6
:10BBA000A4EB0121C9B28DF81D10E11704EB11615E
:10BBB000090A8DF81E101B2201A91CA002F0DEFF4D
:10BBC00090B176A0FFF776F8002506E001A8415D68
:10BBD00013A0FFF76FF8681CC5B21B2DF6DB12A08F
:10BBE000FFF768F8012013E777A0FFF763F801205B
:10BBF0000EE70000103A01083A9600206265666F71
:10BC0000726520616464206164647220636F756E84
:10BC1000743A2564206C6973743A0D0A00000000C0
:10BC200025327820000000000D0A00002F696F7493
:10BC30005F676174657761792F6D616E6167656DAE
:10BC4000656E742F616464722F7373772F626364FF
:10BC50000000000072656164657220616C7265614C
:10BC60006479206578697374696E67206261636BBB
:10BC700020646174613A0D0A00000000726561641D
:10BC8000657220616C72656164792065786973748E
:10BC9000696E672061646420726561646572206208
:10BCA00061636B20646174612053656E642066611A
:10BCB000696C210D0A000000616674657220616480
:10BCC00064206164647220636F756E743A25642029
:10BCD0006C6973743A0D0A0000FE03086164642005
:10BCE0006164647220777269746520666C61736840
:10BCF000206572726F7220657272636F64653A2597
:10BD0000640D0A006164642072656164657220528A
:10BD100065616420666C617368206661696C2E0DD4
:10BD20000A000000616464206164647220636865D5
:10BD3000636B2064617461206661696C0D0A0000A8
:10BD4000616464206164647220777269746520663E
:10BD50006C617368206572726F72206261636B2020
:10BD6000646174613A0D0A00616464206164647204
:10BD700020777269746520666C61736820657272E1
:10BD80006F72206261636B20646174612073656E01
:10BD900064206661696C210D0A0000006164642002
:10BDA0006164647220777269746520666C6173687F
:10BDB0002073756363657373206261636B206461D4
:10BDC00074613A0D0A000000616464206164647269
:10BDD00020777269746520666C617368207375637F
:10BDE00063657373206261636B20646174612073A7
:10BDF000656E64206661696C210D0A002DE9F047CB
:10BE0000CAB0804689464FF0000A00204890499009
:10BE1000172102A8FCF717FAC448006801902A20ED
:10BE20008DF8060002208DF80700C14801680291D4
:10BE300040680390D8F80000CDF81100D8F804004D
:10BE4000CDF81500D9F80000CDF81900B8480E3823
:10BE5000018DB8A0FEF72EFF002412E0002609E0B5
:10BE6000B3481C3000EBC400815DBBA0FEF722FF8D
:10BE7000701CC6B2082EF3DBB9A0FEF71BFF601CD6
:10BE8000C4B2AB480E38008DA042E7DC002418E0B5
:10BE900000260BE018F80610A5481C3000EBC40083
:10BEA000805D814200D003E0701CC6B2082EF1DB39
:10BEB00000BF082E03D1ABA0FEF7FCFE06E0601C1D
:10BEC000C4B29B480E38008DA042E1DC00BF984808
:10BED0000E38008DA04236D100208DF810001921B7
:10BEE00001A801F043FD05462846E91705EB11615D
:10BEF0000912A5EB0121C9B28DF81D10E91705EB58
:10BF00001161090A8DF81E101B2201A99BA002F0E5
:10BF100035FE88B1A3A0FEF7CDFE002406E001A8FF
:10BF2000015D8DA0FEF7C6FE601CC4B21B2CF6DBC3
:10BF30008BA0FEF7BFFE02E0A3A0FEF7BBFE002031
:10BF40004AB0BDE8F087002614E0A019401C7849EB
:10BF50001C3101EBC0000168489140684990A1196B
:10BF600073481C3000EBC100489901604999416059
:10BF7000701CC6B26E480E38008D001B401EB042C9
:10BF8000E3DC6B480E38008D401E69490E39088588
:10BF90000846018D97A0FEF78DFE002412E00026D2
:10BFA00009E063481C3000EBC400815D6AA0FEF725
:10BFB00081FE701CC6B2082EF3DB69A0FEF77AFE84
:10BFC000601CC4B25A480E38008DA042E7DC5848C5
:10BFD0000E38008D2A2101EBC00255490E398E48DA
:10BFE00001F08EFE07462FB14FF0010A39468BA0B3
:10BFF000FEF760FE4E480E38008D2A2101EBC0028C
:10C0000008A9854801F064FE0746012F05D1824644
:10C010008DA0FEF74FFE002092E700240EE008A856
:10C02000005D43490E39095D884205D04FF0010A91
:10C030008EA0FEF73FFE09E0601CC4B23C480E38FB
:10C04000008D2A2101EBC000A042E8DC00BFBAF15C
:10C05000010F35D101208DF81000192101A801F040
:10C0600085FC05462846E91705EB11610912A5EB89
:10C070000121C9B28DF81D10E91705EB1161090AFC
:10C080008DF81E101B2201A93CA002F077FD90B193
:10C090007EA0FEF70FFE002406E001A8015D2EA0A1
:10C0A000FEF708FE601CC4B21B2CF6DB2CA0FEF7CA
:10C0B00001FE012044E780A0FEF7FCFD00203FE7E1
:10C0C00002208DF81000192101A801F04FFC05464F
:10C0D0002846E91705EB11610912A5EB0121C9B248
:10C0E0008DF81D10E91705EB1161090A8DF81E1076
:10C0F0001B2201A921A002F041FD88B17CA0FEF71E
:10C10000D9FD002406E001A8015D13A0FEF7D2FDD1
:10C11000601CC4B21B2CF6DB11A0FEF7CBFD02E0C5
:10C120007CA0FEF7C7FD01200AE70000143A0108D1
:10C130003A9600206265666F72652064656C65746E
:10C1400065206164647220636F756E743A256420A3
:10C150006C6973743A0D0A002532782000000000E3
:10C160000D0A000066696E642064656C6574652064
:10C170007265616465722E0D0A0000002F696F748C
:10C180005F676174657761792F6D616E6167656D59
:10C19000656E742F616464722F7373772F626364AA
:10C1A000000000006E6F7420686176652064656C25
:10C1B00065746520726561646572206261636B20DD
:10C1C000646174613A0D0A006E6F7420686176656F
:10C1D0002064656C652072656164657220626163CC
:10C1E0006B20646174612053656E64206661696CC4
:10C1F000210D0A0061667465722064656C65746562
:10C20000206164647220636F756E743A2564206CDB
:10C210006973743A0D0A000000FE030864656C65DA
:10C220007465206164647220777269746520666C3D
:10C23000617368206572726F7220657272636F64D9
:10C24000653A25640D0A000064656C6574652072AA
:10C250006561646572205265616420666C61736813
:10C26000206661696C2E0D0A0000000064656C6533
:10C270007465206164647220636865636B20646127
:10C280007461206661696C0D0A00000064656C656C
:10C290007465206164647220777269746520666CCD
:10C2A000617368206572726F72206261636B2064D3
:10C2B0006174613A0D0A000064656C657465206103
:10C2C00064647220777269746520666C617368209B
:10C2D0006572726F72206261636B206461746120A9
:10C2E00073656E64206661696C210D0A00000000B0
:10C2F00064656C6574652072656164657220737530
:10C300006363657373206261636B20646174613A77
:10C310000D0A000064656C65746520726561646572
:10C32000722073756363657373206261636B20644D
:10C330006174612053656E64206661696C210D0A29
:10C340000000000070B5C0B006464449098D0F22B8
:10C3500002EBC100C11700EB11610912A0EB012132
:10C36000C9B28DF800103D49098D02EBC100C1171B
:10C3700000EB1161090A8DF801102A208DF80200E6
:10C3800000208DF8030035480E30016801914068A7
:10C390000290324890F828008DF80C002F48008D4C
:10C3A000C2002E492A310DF10D00FBF733FF2B4857
:10C3B000008D0D2101EBC000694608443168016021
:10C3C0002648008D112202EBC00081B2684601F0C0
:10C3D000CDFA04462046E11704EB11610912A4EBE3
:10C3E0000121CAB21D49098D112303EBC1010DF8CA
:10C3F0000120E11704EB1161C1F307221749098DF0
:10C40000122303EBC1010DF801201448008D132104
:10C4100001EBC002694612A002F0B0FB20B91AA0DD
:10C42000FEF748FC40B070BD0C48018D1DA0FEF722
:10C4300041FC002506E01DF8051024A0FEF73AFC9B
:10C44000681C85B20548008D132101EBC000A8428D
:10C45000F1DC20A0FEF72EFC00BFE3E72C960020C5
:10C460002F696F745F676174657761792F6D616E95
:10C470006167656D656E742F616464722F73737785
:10C480002F62636400000000526561646572204C95
:10C490006973742053656E64206661696C210D0AAE
:10C4A000000000004E7266636F756E743A2564205A
:10C4B00053656E6420526561646572206C697374A3
:10C4C00020646174613A0D0A000000002532782072
:10C4D000000000000D0A000070B56EA0FEF7EAFB38
:10C4E0002A227249724801F0F3FB0646012E04D15C
:10C4F00070A0FEF7DFFB002070BD6C48008D4FF68A
:10C50000FF71884202D10020684908856748008D84
:10C510002A2101EBC0026549654801F0D9FB0646B6
:10C52000012E04D16DA0FEF7C5FB0020E4E75F48B3
:10C5300090F82700CF2826D05C4870490968016030
:10C540006F490A6842608988018141F270705749D9
:10C55000488140F25B70888101F10E0069A10A6890
:10C5600002604968416000210E3881750F2268A180
:10C570001730FBF74FFE00214C4880F8261068A0CA
:10C58000FEF798FB02E06CA0FEF794FB6F4847496A
:10C590000E310A680260496841606D4843490E31B6
:10C5A0000A680260496841606A4840490E310A6879
:10C5B00002604968416068483C490E310A6802607F
:10C5C00049684160654839490E310A680260496826
:10C5D00041603648008D142802DD0020334908856B
:10C5E0005FA0FEF767FB002409E03048015D5FA013
:10C5F000FEF760FB5EA0FEF75DFB601CC4B2032C7F
:10C60000F3DB2A48C17859A0FEF754FB27488189FB
:10C6100058A0FEF74FFB30A0FEF74CFB59A0FEF7E9
:10C6200049FB002407E02148001D015D59A0FEF7E9
:10C6300041FB601CC4B2062CF5DB27A0FEF73AFBD9
:10C640001A490E3155A0FEF735FB1849173157A08E
:10C65000FEF730FB1548018D5AA0FEF72BFB002496
:10C6600012E0002509E011482A3000EBC400415DCA
:10C6700048A0FEF71FFB681CC5B2082DF3DB16A00F
:10C68000FEF718FB601CC4B20848008DA042E8DC2D
:10C69000012031E74C6F61642073797374656D20FC
:10C6A000636F6E6669672E2E2E0D0A002C96002091
:10C6B00000FE030852656164537973436F6E6669C7
:10C6C000673A5265616420696E697420636F6E66B3
:10C6D0006967206661696C2E0D0A0000526561640D
:10C6E000537973436F6E6669673A52656164206C73
:10C6F000697374206661696C2E0D0A009402002033
:10C7000098020020303030303030303100000000EE
:10C71000323031382D30332D31305F4D43303300DE
:10C720005573652064656661756C7420636F6E6611
:10C7300069672E0D0A00000055736520666C6173F1
:10C740006820636F6E6669672E0D0A00D3010020B2
:10C75000EF010020110200203402002055020020C9
:10C760005365727665722049503A000025640000D6
:10C770002E000000202020202020504F52543A2527
:10C7800064000000436C69656E7420094D41433AB2
:10C79000000000002532782000000000436C69652D
:10C7A0006E742069643A25730D0A00004861726452
:10C7B000776172652076657273696F6E3A25730DC5
:10C7C0000A0000004E726620636F756E743A25642D
:10C7D000204C6973743A0D0A00000000F0B58BB06C
:10C7E00006460F462E4831684160B18801810E30FF
:10C7F0003968016079684160CF20294981F82700B4
:10C800000846008D2A2101EBC0022549254801F088
:10C8100077FA0546012D05D123A0FEF74BFA00203B
:10C820000BB0F0BD022D04D12BA0FEF743FA00207F
:10C83000F6E7282201A91B4801F04AFA0546012D16
:10C8400004D12FA0FEF736FA0020E9E700240CE01F
:10C850001348005D01A9095D884204D035A0FEF7A8
:10C8600029FA0020DCE7601CC4B2282CF0DB39A0D8
:10C87000FEF720FA40A0FEF71DFA002407E0084862
:10C88000001D015D3FA0FEF715FA601CC4B2062C26
:10C89000F5DB03490E313DA0FEF70CFA0120BFE79E
:10C8A0002C96002000FE0308536574446576696386
:10C8B00065436C69656E743A64617461206C656E81
:10C8C000206572726F72206F7220616472722065CF
:10C8D00072726F722E0D0A00536574446576696337
:10C8E00065436C69656E743A577269746520666C4D
:10C8F000617368206572726F722E0D0A000000006D
:10C90000536574446576696365436C69656E74202C
:10C9100052656164537973436F6E6669673A526515
:10C92000616420666C617368206661696C2E0D0A13
:10C930000000000073657420636C69656E74206D7F
:10C94000616320616E64206964206661696C2E0DEC
:10C950000A00000073657420636C69656E74206D55
:10C96000616320616E64206964207375636365731D
:10C97000732E0D0A00000000534554204D41433AE8
:10C9800000000000253278200000000020204944EB
:10C990003A25730D0A000000F0B58BB006460F462D
:10C9A0002B48316801608781CF20294981F8270011
:10C9B0000846008D2A2101EBC0022549254801F0D7
:10C9C0009FF90546012D05D123A0FEF773F900203C
:10C9D0000BB0F0BD022D04D12CA0FEF76BF90020A6
:10C9E000F6E7282201A91B4801F072F90546012D3E
:10C9F00004D130A0FEF75EF90020E9E700240CE046
:10CA00001348005D01A9095D884204D036A0FEF7F5
:10CA100051F90020DCE7601CC4B2282CF0DB38A000
:10CA2000FEF748F93DA0FEF745F9002406E0084866
:10CA3000015D3CA0FEF73EF9601CC4B2042CF6DB9D
:10CA40000348818938A0FEF735F90120C0E70000CE
:10CA50002C96002000FE03085365744465766963D4
:10CA6000654950616E64504F52543A64617461205C
:10CA70006C656E206572726F72206F7220616472D5
:10CA800072206572726F722E0D0A00005365744435
:10CA900065766963654950616E64504F52543A57E8
:10CAA0007269746520666C617368206572726F725A
:10CAB0002E0D0A00536574446576696365495061BB
:10CAC0006E64504F52542052656164537973436FC2
:10CAD0006E6669673A5265616420666C61736820AE
:10CAE0006661696C2E0D0A0073657420697020619F
:10CAF0006E6420706F7274206661696C2E0D0A007E
:10CB000073657420697020616E6420706F72742088
:10CB1000737563636573732E0D0A000053455420CB
:10CB200049503A00256420002020504F52543A25A5
:10CB3000640D0A0070B58CB00026242103A8FBF711
:10CB400082FB3D48006802903CA103C9CDE9000189
:10CB50006AE0701CC6B23B484078412864D151203D
:10CB60008DF80A0037484168CDF80B108068CDF881
:10CB70000F003448C168CDF81310008AADF81700D3
:10CB800000208DF819008DF81A000F222D4912315E
:10CB90000DF11B00FBF73EFB2B4800788DF82A00B7
:10CBA00029480088000A8DF82B0027480068000CEF
:10CBB0008DF82C0024480068000E8DF82D002248C6
:10CBC0000068401C20490860262102A800F0CEFE23
:10CBD00004462046E11704EB11610912A4EB012180
:10CBE000C9B28DF82E10E11704EB1161090A8DF816
:10CBF0002F10282202A915A001F0C0FFA0B1062223
:10CC000069460DF11300FBF74FFB68B9002506E0FC
:10CC100002A8415D17A0FEF74DF8681CC5B2282D8B
:10CC2000F6DB16A0FEF746F800F096F908B10A2EDA
:10CC30008FDB0CB070BD0000283C010834085AABF3
:10CC400008E30000F6960020C40200202F62726103
:10CC500063656C65742F7265706F72742F62726F8A
:10CC60006164636173745F646174612F7373772FA0
:10CC70006263640025327820000000000D0A000085
:10CC80007FB505460024002612A30FCB8DE80F00C8
:10CC900041208DF8010028680190686802909DF895
:10CCA0000160022404E01DF804004640601CC4B288
:10CCB0009DF80300001DA042F5DC0DF80460CA21B8
:10CCC000601C0DF800100E226946032001F09BF94C
:10CCD0007FBD00005A410008000000000000000075
:10CCE00049CA00002DE9F041ADF5806D0646884641
:10CCF0001446002500274FF47C7104A8FBF7A3FA23
:10CD00003A4BD3E90020D3E90213CDE90213CDE970
:10CD1000002043208DF8010004F10800C11700EB4A
:10CD20001161090A8DF80210C11700EB1161091297
:10CD3000A0EB0121C9B28DF8031030680190706832
:10CD400002902246414603A8FBF764FA9DF8017061
:10CD5000022504E01DF805004740681CC5B29DF897
:10CD60000300001DA842F5DC04F10C000DF8007072
:10CD7000CA21401C0DF80010032001F019F903200E
:10CD800001F024F99DF803109DF8020001EB00204A
:10CD9000801D82B26946032001F035F900251DE0AF
:10CDA0004FF47A7004F0F8F800F0D6F8A0B110480B
:10CDB0004078432810D1082231460D48001DFBF76A
:10CDC00073FA38B10BA0FDF775FF00200DF5806DEB
:10CDD000BDE8F0810120F9E7681CC5B20A2DDFDB50
:10CDE0000BA0FDF767FF0020F0E70000183C0108EA
:10CDF000F69600204C656176652061206D65737341
:10CE0000616765206661696C5F31210D0A00000071
:10CE10004C656176652061206D657373616765207F
:10CE20006661696C5F32210D0A0000002DE9F04156
:10CE300086B005460E4600240027A046142228A1ED
:10CE400001A8FBF7E7F942208DF805002868029059
:10CE50006868039030680490B088ADF814009DF8BD
:10CE60000580022405E001A8005D80EA0808601C36
:10CE7000C4B29DF80700001DA042F4DC01A800F830
:10CE80000480CA2101AA601C1154032001F090F80B
:10CE9000142201A9032001F0B6F819E04FF4FA704A
:10CEA00004F07AF8FCF7DCF900F056F870B11422BF
:10CEB00001A91048FBF7F8F930B10FA0FDF7FAFE11
:10CEC000002006B0BDE8F0810120FAE7781CC7B267
:10CED0003C2FE3DB15A0FDF7EDFE0020F1E700009D
:10CEE0005A42000E00000000000000000000000098
:10CEF00000000000F69600206170705F6E72665F41
:10CF00004C696E6B54617267657442726163656CE3
:10CF100065743A6261636B2064617461206E6F7442
:10CF2000207269676874210D0A0000006170705FEB
:10CF30006E72665F4C696E6B5461726765744272A3
:10CF40006163656C65743A6E6F20726573706F6EA5
:10CF5000736564210D0A0000F0B5C1B000270026FA
:10CF6000002400256BE0002400270CE0601E01A9CE
:10CF7000085C5A2801D101270FE0FF2094FBF0F153
:10CF800000FB1140C4B22046621CD4B201AA811831
:10CF9000032001F029F80028E8D100BF17B90020CC
:10CFA00041B0F0BD4FF4807101A8FBF74CF95A2055
:10CFB0008DF80400012506E001A84119032001F0C5
:10CFC00013F8681CC5B2042DF6DB9DF807109DF818
:10CFD000060001EB0020C4B2F02C00DD2FE000259C
:10CFE00007E0281D01AA8118032000F0FDFF681C3E
:10CFF000C5B2A01C8542F4DB01A9601D085CCA28EB
:10D0000000D01CE09DF80560022504E001A8405D09
:10D010004640681CC5B2201D8542F7DB01A9085CAB
:10D02000B0420BD14FF480710548FBF70CF9A21DFB
:10D0300001A90348FBF7EEF80120B1E700BF92E732
:10D04000F696002010B58AB0242101A8FBF7FBF862
:10D0500030480068009056E02F484078412852D16F
:10D0600051208DF802002C484168CDF803108068EB
:10D07000CDF807002848C168CDF80B10008AADF83C
:10D080000F0000208DF811008DF812000F222249A8
:10D0900012310DF11300FBF7BDF8204800788DF830
:10D0A00022001E480088000A8DF823001B480068F3
:10D0B000000C8DF8240019480068000E8DF825003A
:10D0C00016480068401C154908602621684600F093
:10D0D0004DFC04462046E11704EB11610912A4EB54
:10D0E0000121C9B28DF82610E11704EB1161090A7C
:10D0F0008DF827102822694609A001F03FFD10B9DC
:10D1000011A0FDF7D7FDFFF727FF0028A4D10AB033
:10D1100010BD00002C3C0108F6960020C80200203B
:10D120002F62726163656C65742F7265706F7274C3
:10D130002F62726F6164636173745F646174612FE5
:10D140007373772F626364004E72662047415044C8
:10D150006174612053656E64206661696C210D0AFB
:10D160000000000010B50446E07820B1012807D087
:10D17000022811D10AE004F10C00FFF7E3F80CE0FB
:10D1800004F10C01201DFEF7B9FB06E004F10C01CF
:10D19000201DFEF733FE00E000BF00BF10BD000001
:10D1A000F0B585B006460F46142271496846FBF774
:10D1B00031F81A208DF80200D6F80B00CDF80300E4
:10D1C000B6F80F00ADF80700B81F304400680390B0
:10D1D000FFF738FF06F10B01F01CFFF727FE18B12F
:10D1E00064A0FDF767FD37E069A0FDF763FD01204E
:10D1F0008DF80B001021684600F0B8FB044620466D
:10D20000E11704EB11610912A4EB0121C9B28DF8F9
:10D210001010E11704EB1161090A8DF811101222A8
:10D22000694665A001F0AAFC68B1002506E01DF87A
:10D23000051069A0FDF73EFD681CC5B2122DF6DB96
:10D2400052A0FDF737FDF01C00F066F940F6B8304B
:10D2500003F0A2FE05B0F0BDA7F1190082B206F1FD
:10D260001301F01CFFF73EFD002849D05C48007810
:10D27000401CC0B25A4A107001465AA0FDF71AFD70
:10D2800003208DF80B001021684600F06FFB044668
:10D290002046E11704EB11610912A4EB0121C9B288
:10D2A0008DF81010E11704EB1161090A8DF81110C7
:10D2B0001222694640A001F061FC68B1002506E039
:10D2C0001DF8051044A0FDF7F5FC681CC5B2122D31
:10D2D000F6DB2EA0FDF7EEFC002507E04FF4FA7018
:10D2E00003F05AFEFBF7BCFF681CC5B2052DF5DB49
:10D2F000F01C00F011F940F6B83003F04DFEA9E73C
:10D3000002208DF80B001021684600F02FFB044628
:10D310002046E11704EB11610912A4EB0121C9B207
:10D320008DF81010E11704EB1161090A8DF8111046
:10D330001222694620A001F021FC68B1002506E018
:10D340001DF8051024A0FDF7B5FC681CC5B2122D10
:10D35000F6DB0EA0FDF7AEFC28A0FDF7ABFCF01C41
:10D3600000F0DAF840F6B83003F016FE00BF71E7BF
:10D37000EC3701084C696E6B20746172676574202C
:10D3800062726163656C6574204F4B2E0D0A00005C
:10D390006170705F70616C745F42616E644461744F
:10D3A000613A4C696E6B2062726163656C657420D2
:10D3B0006661696C210D0A002F696F745F67617483
:10D3C000657761792F6E6F746963652F736D732F45
:10D3D0007373772F626364002532782000000000A9
:10D3E0006F0200204C65617665204D65737361673F
:10D3F00065204F4B2E2025640D0A00006170705F80
:10D4000070616C745F42616E64446174613A4C6532
:10D410006176652061206D65737361676520666163
:10D42000696C210D0A000000F8B504460E46174647
:10D430002178607801EB0021301F814208D02278EA
:10D44000607802EB002132462448FDF733FCF8BD3A
:10D45000B01E81B2204600F089FA0546EA1705EBB6
:10D4600012621312721EA25C934209D1EA1705EBF5
:10D4700012621212A5EB0223B21EA25C934203D0E9
:10D4800017A0FDF717FCE2E76A463946204600F090
:10D4900021F908B39DF8000020B1012812D0052819
:10D4A00018D113E02178607801EB00201538E628C8
:10D4B00003DD12A0FDF7FEFBC9E7F1B2204600F044
:10D4C0009DF808E02046FFF74DFE04E0204600F0FE
:10D4D0005BF800E000BF00BF00BFB8E7B83C010840
:10D4E0004465616C506C6174696E666F3A43524377
:10D4F000206572726F720D0A000000004D65737333
:10D50000616765206C656E204F766572206C696D71
:10D5100069742E0D0A0000007FB505460024002620
:10D5200015A30FCB8DE80F00286801906868029062
:10D5300040208DF801009DF80160022404E01DF8F0
:10D5400004004640601CC4B29DF80300001DA042C8
:10D55000F5DC8DF80C60CA208DF80D009DF80310E5
:10D560009DF8020001EB0020801D82B26946032075
:10D5700000F049FD7FBD00005A4000080000000097
:10D5800000000000000000007FB50546144B0FCBE3
:10D590008DE80F0046208DF80100D5F803000190BA
:10D5A000D5F8070002909DF80160022404E01DF800
:10D5B00004004640601CC4B29DF80300001DA04258
:10D5C000F5DC8DF80C60CA208DF80D000E2269463E
:10D5D000032000F018FD03A0FDF76CFB7FBD0000E9
:10D5E000003801085374617274206E726620757081
:10D5F000646174612E2E2E0D0A00000030B50246C3
:10D600005A231D4C24681C4DED8863551A4BDB884A
:10D610005B1C9BB2184CE380A488A34202DB00236E
:10D62000154CE380144B5B895B1C134C6381002019
:10D630001EE0114B5B89104CA488A34216DA135CE0
:10D640000D4C24680C4DED8863550B4BDB885B1C3F
:10D650009BB2094CE380A488A34202DB0023064C62
:10D66000E380054B5B895B1C034C6381431CD8B290
:10D670008842DEDB30BD00002082002005480649DC
:10D6800008604FF4A0508880002048810881C8803D
:10D69000704700002C8200202082002070B50246D6
:10D6A0000C46FF25FF2309E012F8010B80EA030175
:10D6B0000648405C80EA05030548455C201EA4F14D
:10D6C0000106B4B2F0D143EA052070BDEC33010885
:10D6D000EC3401082DE9F04180460F4614462AA19A
:10D6E0003846FAF7BBFD40B108222949F81DFAF780
:10D6F000CEFD10B10020BDE8F08126A13846FAF732
:10D70000ADFD28B3002619E000250CE020481C30B0
:10D7100000EBC600415DE81C18F80000814200D013
:10D7200003E0681CC5B2082DF0DB00BF082D03D153
:10D73000002020700120DEE7701CC6B214480E38AD
:10D74000008DB042E0DC17A0FDF7B4FA0020D2E76C
:10D750001AA13846FAF782FD10B101202070CAE7FD
:10D760001BA13846FAF77AFD18B105202070012078
:10D77000C1E70BA13846FAF771FD18B103202070FC
:10D780000120B8E70020B6E72F64657669645F0082
:10D790003A9600202F6E6F746963652F736D732F37
:10D7A00000000000696E76616C6964206E7266200C
:10D7B0007265616465722E0D0A0000002F6D616E46
:10D7C0006167656D656E742F616464722F0000007F
:10D7D0002F6E72667570646174652F7374617274F4
:10D7E0002F000000F0B5CBB0002500264FF4967155
:10D7F0006846FAF728FD20E04F4800684E4909893D
:10D80000425C2846691C8DB20DF800204A48008908
:10D81000401C80B2484908818988884202DB002088
:10D820004549088144484089401E43494881681E53
:10D830001DF800005A2800D103E03F484089002825
:10D84000DADC00BF3C48408908B94BB0F0BD4FF46A
:10D8500096716846FAF7F7FC002519E0364800682B
:10D8600035490989405C0DF8050033480089401CA2
:10D8700080B2314908818988884202DB00202E4924
:10D8800008812D484089401E2B494881681C85B27B
:10D89000022DE3DB9DF800109DF8010001EB002054
:10D8A00086B2B6F5967F03DD24A0FDF703FACCE738
:10D8B00000251AE0204800681F490989415CA81C1E
:10D8C0000DF800101C480089401C80B21A490881DC
:10D8D0008988884202DB0020174908811648408960
:10D8E000401E15494881681C85B2B01C8542E1DBA9
:10D8F00081B2684600F03AF80446E21704EB12627F
:10D900001212A4EB0223B21C1DF80220934208D18C
:10D91000E21704EB12621312F21C1DF8022093426C
:10D9200002D00CA0FDF7C6F9301D81B26846FFF7A2
:10D9300037FC00BF89E700002082002073656E6419
:10D94000206D6573206C656E206572726F722E0D8E
:10D950000A00000073656E64206D65733A4352439C
:10D96000206572726F720D0A0000000070B50246E9
:10D970000C46FF25FF2309E012F8010B80EA0301A2
:10D980000648405C80EA05030548455C201EA4F17A
:10D990000106B4B2F0D143EA052070BDEC350108B0
:10D9A000EC360108F0B5034698180F4FB84201D97C
:10D9B0000320F0BD0AB90020FBE7012600240BE09C
:10D9C0001D780878A84204D0FF2D01D00220F0E78E
:10D9D00000265B1C491C641C9442F1D3012E01D12A
:10D9E0000020E6E70120E4E70000040801460020EB
:10D9F000C80AC0027047000008B54FF6FF700090DB
:10DA00004FF44070FCF7F8F811481249086000F034
:10DA1000F2F800F05BF840F6354000F037F8FCF71C
:10DA2000DFFAFDF785F8FDF757F800F089F8FCF705
:10DA300023FE02226946084800F062F918B907A0DF
:10DA4000FDF738F902E00CA0FDF734F908BD00003D
:10DA50000080000808ED00E000F003080D0A636C88
:10DA600065617220666C61672053756365737366C8
:10DA7000756C0D0A000000000D0A636C6561722070
:10DA8000666C6167204661696C0D0A0010B504463A
:10DA90007D20FCF77BF908B1FCF704F90120FCF7C5
:10DAA000ADF900BF6120FCF771F90028FAD045F20A
:10DAB0005550FBF7EDFB0620FBF7DEFBA0B2FBF7B2
:10DAC000E1FBFBF7D1FBFBF7C3FB10BD08B5012160
:10DAD0000820FCF7C1F8012000F096F8022000F0C1
