:020000040800F2
:1080000000E10020E981000807A00008DD960008D3
:1080100003A000083D8B000831AE000800000000FE
:108020000000000000000000000000004581000882
:10803000D9900008000000008981000885A400088C
:1080400003820008038200080382000803820008FC
:1080500003820008038200080382000803820008EC
:1080600003820008038200080382000803820008DC
:1080700003820008038200080382000803820008CC
:1080800003820008038200080382000803820008BC
:10809000038200080382000803820008519100084F
:1080A000038200080382000803820008038200089C
:1080B00089A5000805A600080382000803820008BD
:1080C000038200080382000803820008038200087C
:1080D0000382000811AA00080382000821AA0008F0
:1080E000DD90000803820008038200080382000874
:1080F000038200080382000803820008038200084C
:10810000038200080382000803820008038200083B
:10811000038200080382000803820008038200082B
:10812000038200080382000803820008038200081B
:10813000DFF80CD000F0B8FB004800470BF6000851
:1081400000E10020204B19680868B0E8F00F80F3C8
:108150000988BFF36F8F4FF0000080F311884EF055
:108160000D0E70470000000006480068006880F3AC
:10817000088862B661B6BFF34F8FBFF36F8F00DF21
:1081800000BF00BF08ED00E0EFF30980BFF36F8F81
:108190000D4B1A6820E9F00F106008B54FF0100081
:1081A00080F311880AF030F84FF0000080F3118856
:1081B000BDE8084019680868B0E8F00F80F3098846
:1081C000BFF36F8F704700BFF8000020EFF31180FE
:1081D0004FF0100181F31188704780F311887047C8
:1081E000EFF30580704700000648804706480047C7
:1081F000FEE7FEE7FEE7FEE7FEE7FEE7FEE7FEE757
:10820000FEE7FEE7A5A40008318100082DE9F05F34
:108210000546002092469B468846064681464024F5
:108220001BE0284641464746224600F06EFA534678
:108230005A46C01A914110D311461846224600F002
:1082400055FA2D1A67EB01084F46224601200021FE
:1082500000F04CFA17EB00094E41201EA4F1010476
:10826000DFDC484631462A464346BDE8F09F40EAF7
:1082700001039B0703D009E008C9121F08C0042AA4
:10828000FAD203E011F8013B00F8013B521EF9D28B
:108290007047D2B201E000F8012B491EFBD27047B3
:1082A0000022F6E710B513460A4604461946FFF7C2
:1082B000F0FF204610BD30B505462A460B4612F8A1
:1082C000010B13F8014B08B1A042F8D01CB10028F3
:1082D00002D06D1CF1E7284630BD421C10F8011B8E
:1082E0000029FBD1801A704730B5044600200346B0
:1082F00000E05B1C934203D2E05CCD5C401BF8D0F5
:1083000030BD30B505460020034600E05B1C9342BB
:1083100005D2EC5CC85C201A01D1002CF6D130BD2E
:108320002DE9FE4F804681EA0300C00F0C46009005
:1083300021F0004123F00045B8EB0200A94105D22D
:108340004046214690461C460B46024623F000401C
:10835000104347D0270DC7F30A00C3F30A51029018
:10836000401A019040286BDAC3F3130040F4801BDD
:108370000098924620B10023D2EB030A63EB0B0B6B
:1083800001985946C0F14002504600F0AFF9064648
:108390000D4650465946019A00F0C7F910EB080007
:1083A0006141002487EA115284EAE7731A4340D0FE
:1083B000009A62B3019A012A4FEA075215DC001BAA
:1083C00061EB02014FF0004202EA0752CDE90042A0
:1083D000001C41F5801132462B4600F0FEF903B037
:1083E000BDE8F08F40462146F9E7001B61EB020132
:1083F000001C41F5801300185B412018A2F50017FE
:1084000047EB030140EAD570B6196D4111E06D08E4
:108410004FEA360645EAC0754FEA0752001B61EB8A
:108420000201001C41F5801149084FEA3000001993
:10843000514132462B4603B0BDE8F04F00F0BEB9C3
:108440000098012240000023D0EB020263EBE073AE
:10845000009821464FEAE074B8EB000061EB04019C
:10846000E9E783F000435BE781F0004158E72DE93D
:10847000FE4F81EA030404F0004421F0004100941F
:108480004FF0000B23F0004350EA01045ED052EAA3
:1084900003045BD0C3F30A54C1F30A552C44A4F27D
:1084A000F3340194A0FB0254C1F3130141F4801191
:1084B000C3F3130343F4801301FB024400FB034E98
:1084C000840A970A44EA815447EA8357A4FB076861
:1084D00002958D0A05FB07854FEA932C04FB0C548B
:1084E0002705029D4FEA065847EA1637B5EB0805FF
:1084F0006EEB070C870E920E47EA811742EA831251
:10850000A7FB0201B6EB0B0164EB00042B0D43EA61
:108510000C335E1844EB1C50DA465146E7FB02016F
:10852000C5F313044FEA0B3343EA14534FEA043202
:10853000019C43EA0603A4F10C040294009CCDE9DB
:1085400000B400F04AF903B0BDE8F08F0020014606
:10855000F9E72DE9F04D81EA030404F0004B21F026
:10856000004514464FF0000A23F0004150EA05028E
:1085700020D054EA01021DD0C5F30A570246C5F3C4
:108580001303C1F31300C1F30A5640F4801543F4FA
:108590008013A7EB0608101BD64608F2FD3873EBD4
:1085A000050002D308F1010801E092185B41B8F11F
:1085B000000F03DA00200146BDE8F08D00204FF4E3
:1085C0008011064684460EE0171B73EB050705D3A2
:1085D000121B63EB050306434CEA010C49084FEA02
:1085E000300092185B4150EA0107EDD152EA0300D6
:1085F00012D082EA040083EA0501084305D0101B6B
:10860000AB4106D20122002306E000224FF00043D6
:1086100002E06FF0010253101AEB06004CEB085118
:1086200010EB0A0041EB0B01BDE8F04D00F0C6B8BD
:1086300096230022114600F093B800F0004230F07B
:1086400000400AD0C10D01F56071C0F3160042EA86
:108650000151C2084007114370470020014670478E
:1086600030B5041E71F1000404DB4FF000444042B9
:1086700064EB0101141E73F1000405DB1C464FF08E
:108680000043524263EB04038B4208BF824230BD79
:1086900030B5041E71F1000404DB4FF00044404289
:1086A00064EB0101141E73F1000405DB1C464FF05E
:1086B0000043524263EB0403994208BF904230BD2D
:1086C00030B50B46014600202022012409E021FAA2
:1086D00002F59D4205D303FA02F5491B04FA02F59F
:1086E0002844151EA2F10102F1DC30BD202A04DB72
:1086F000203A00FA02F1002070479140C2F12003B5
:1087000020FA03F3194390407047202A04DB203AF3
:1087100021FA02F00021704721FA02F3D040C2F1A1
:1087200020029140084319467047202A06DBCB17E8
:10873000203A41FA02F043EAE07306E041FA02F31C
:10874000D040C2F1200291400843194670470029E9
:10875000A8BF7047401C490008BF20F001007047C7
:1087600010B4B0FA80FC00FA0CF050EA010404BF27
:1087700010BC704749B1CCF1200421FA04F411FA7D
:108780000CF118BF012121430843A3EB0C01CB1DC1
:108790004FEA00614FEA102042BF002010BC704732
:1087A00000EBC35010440029A4BF10BC7047401C0C
:1087B000490008BF20F0010010BC704710B5141E1E
:1087C00073F1000408DA401C41F1000192185B418A
:1087D0001A4301D120F0010010BD2DE9F04D924661
:1087E0009B4611B1B1FA81F202E0B0FA80F2203278
:1087F0009046FFF77BFF04460F4640EA0A0041EA35
:108800000B0153465A46084313D0114653EA010060
:1088100019D0C8F140025046FFF777FF05460E46D3
:10882000504659464246FFF761FF084305D00120F4
:1088300004E020463946BDE8F08D0020054346EAB5
:10884000E0762C4337430A986305E40AA0EB08005E
:108850000022FD0A44EA47540A3002D500200146AE
:10886000E9E7010510196941DDE908450019694189
:10887000BDE8F04DA2E7C1F30A52C1F3130140F283
:10888000FF3341F480119A4202DA0020014670471A
:1088900040F233439A42A2F2334202DC5242FFF7E3
:1088A00034BFFFF723BF0000064C074D06E0E06829
:1088B00040F0010394E8070098471034AC42F6D327
:1088C000FFF73AFC684701088847010870B58C1823
:1088D00010F8015B15F0070301D110F8013B2A11D4
:1088E00006D110F8012B03E010F8016B01F8016BC1
:1088F0005B1EF9D12B0705D40023521E0DD401F8BD
:10890000013BFAE710F8013BCB1A921C03E013F885
:10891000015B01F8015B521EF9D5A142D8D30020BA
:1089200070BD0000F8B5002447F230550322002145
:1089300001200AF05DF92C4908600846006820B95A
:108940002AA002F079FB00BFFEE70AF015F82E49D5
:1089500008600846006820B92CA002F06DFB00BF3B
:10896000FEE70022012102200AF042F92E490860A8
:108970000846006810B92DA002F05EFB09F0FCFF6C
:108980002F4908600846006820B92EA002F054FB69
:1089900000BFFEE733482346012247F230510090E2
:1089A00031A00AF069FE324908600846006820B923
:1089B00030A002F041FB00BFFEE70AF05FFC064674
:1089C00064200023324601210090294800680AF003
:1089D000A1FE08B9012000E00020012802D12BA04F
:1089E00002F02AFBF8BD00001000002063726561F0
:1089F0007465207853656D6170686F72652066617B
:108A0000696C0D0A0000000020000020637265619F
:108A10007465204576656E7447726F757020666167
:108A2000696C0D0A00000000280000205175657572
:108A300065437265617465206661696C0D0A0000AA
:108A4000240000206372656174652078557064614C
:108A500074614576656E7447726F757020666169E2
:108A60006C0D0A008119010854696D6572000000DF
:108A700018000020637265617465207854696D6523
:108A80007273206661696C0D0A0000005374617294
:108A9000742070696E672054696D65722066616923
:108AA0006C210D0A000000001FB50020144A0223AB
:108AB000CDE901200093039003464FF4806211A199
:108AC00013480AF02FFB0020124A0323CDE90120AE
:108AD0000093039003464FF400720FA111480AF06F
:108AE00021FB0020104A0423CDE9012000930390CC
:108AF00003464FF400620DA10F480AF013FB1FBD9F
:108B000000000020765461736B557365724946000E
:108B1000892201080C000020765461736B53746144
:108B20007274000059200108080000207654617317
:108B30006B4D736750726F00F91C010800BFFEE7B0
:108B4000014609B909487047012901D10020FAE717
:108B5000022901D10648F6E7032901D10020F2E7F6
:108B6000042901D10020EEE70020ECE7740C00207E
:108B70009C12002008B525208DF8000002208DF8F9
:108B8000010000208DF8020001208DF803006846E6
:108B900001F03AFA27208DF8000004208DF801003A
:108BA00000208DF8020001208DF80300684601F0D6
:108BB0002BFA08BD38B504460D4600200090062269
:108BC00022494FF4106002F0ADF9204800781F49A7
:108BD000497808431D49897808431C49C9780843E6
:108BE0001A490979084319494979084378B9002095
:108BF0001649087008204870DC2088700020C87072
:108C00000871487106224FF4106002F0E3F9104831
:108C10000470104805601048104908600422694635
:108C20004FF4706002F0D6F9042269464FF4706088
:108C300002F0D0F904226946900102F0CBF907F066
:108C400093FF00200649087038BD0000D8010020BD
:108C5000A0010020CC01002078563412C801002069
:108C6000B901002070B575480078062801D10520AB
:108C700070BD734909788900491C4FF4407202EBBA
:108C8000C10002F029F9222806D000234422022143
:108C90006B48007808F0FAFC012506F04BFFC4B2DF
:108CA000664890F9000005287ED2DFE800F0030F47
:108CB0002F58840000206349087048708870C8707D
:108CC00008F002F901205D490870B3E0022C19D1C7
:108CD0005DA002F0B1F962480068007C5949087053
:108CE0005F480068407C48705D480068807C887000
:108CF0005B480068C07CC87008F008FA02204F4941
:108D0000087002E005F08CFF054693E0052C17D1B2
:108D100054A002F091F905F035FF40B157480068C2
:108D2000804707F021FF03204449087016E007F050
:108D30001BFF5348006880470020404908700DE041
:108D4000062C08D14FA002F077F907F00DFF0120A3
:108D50003A49087002E005F063FF05466AE0042521
:108D60004E480068401C28B34D4800684B490968CC
:108D7000B0EB510F1ED94BA002F05EF90024314830
:108D80000078504908702F48407848702D48807806
:108D900088702C48C078C8704B480068401C4A490D
:108DA000086008F0B3F900E043E007F0DDFE0420BE
:108DB000224908703EE00425052C2BD100204349B0
:108DC0000870404800781F490978884211D13D4811
:108DD00040781C49497888420BD13A488078194933
:108DE0008978884205D13748C0781649C9788842C1
:108DF00007D0032536480068804736A002F01CF9EA
:108E000002E038A002F018F907F0AEFE03200B498B
:108E100008700DE0062C08D137A002F00DF907F01C
:108E2000A3FE01200549087002E005F0F9FE0546A1
:108E300000E000BF00BF28461AE70000B90100208B
:108E4000A0010020A90100203E20526563656976DB
:108E50006520444843505F4F464645520D0A000086
:108E6000CC0100203E205265636569766520444848
:108E700043505F41434B0D0A00000000E001002019
:108E8000E80100203E20526563656976652044480C
:108E900043505F4E41434B0D0A000000BC010020CF
:108EA000C00100203E204D61696E7461696E7320BF
:108EB0007468652049502061646472657373200D85
:108EC0000A000000A5010020C8010020BA0100200E
:108ED000E40100203E4950206368616E6765642E9E
:108EE0000D0A00003E495020697320636F6E74695B
:108EF0006E7565642E0D0A003E20526563656976C5
:108F00006520444843505F4E41434B2C20466169E5
:108F10006C656420746F206D61696E7461696E2088
:108F200069700D0A0000000021B1026842F00102E0
:108F3000026004E002684FF6FE731A400260704758
:108F400001684FF6FE72114001600021016041602E
:108F50008160C1604B49884208D14A490839496853
:108F600041F00F01474A083A51608AE045491431FF
:108F7000884208D143490839496841F0F001414A23
:108F8000083A51607DE03F492831884208D13D4987
:108F90000839496841F470613A4A083A516070E012
:108FA00038493C31884208D136490839496841F48A
:108FB0007041344A083A516063E032495031884286
:108FC00008D130490839496841F470212D4A083ADE
:108FD000516056E02B496431884208D1294908394B
:108FE000496841F47001274A083A516049E025492F
:108FF0007831884208D123490839496841F07061C5
:10900000204A083A51603CE01F49884206D1011FBE
:10901000096841F00F01021F116032E01A49143152
:10902000884208D11849091F096841F0F001164A21
:10903000121F116025E014492831884208D11249D5
:10904000091F096841F470610F4A121F116018E08E
:109050000D493C31884208D10B49091F096841F488
:109060007041094A121F11600BE0074950318842D4
:1090700007D10549091F096841F47021024A121FEE
:1090800011607047080002400804024010B5002239
:10909000026847F6F0739A430C6A8B6823430C69A5
:1090A00023434C6923438C692343CC6923434C6A93
:1090B00023438C6A23431A430260CB6843600B68E6
:1090C00083604B68C36010BD02480068401C0149C2
:1090D00008607047F40100207047000010B54FF49D
:1090E000806000F057F845282CD04FF4806000F0E5
:1090F0004BF8142005F0F4FF4FF48061124800F0A3
:10910000DFFA60B9042004F0E7FF06F06DFA0020F2
:109110000E49A1F8D400082004F0AEFF12E04FF48D
:109120008061094800F0CCFA01280BD1042004F03A
:10913000B5FF06F063FA00200449A1F8D4000C2022
:1091400004F09AFF10BD0000001C014000B4002094
:1091500008B500200090202000F01CF845280DD014
:10916000202000F011F869460548006809F055FF15
:10917000009818B14FF080500249086008BD000007
:109180001000002004ED00E0014908607047000075
:1091900014040140014600200022074B1B6803EA2B
:1091A0000102054B14331B680B4013B10AB10120B7
:1091B00000E0002070470000000401400021234926
:1091C0008279002A3AD00A46126803689A430B460D
:1091D0001A600A1D126803689A430B1D1A6002790F
:1091E00011440A6803681A430A60184A0832126870
:1091F00003689A43154B08331A601A1D12680368F6
:109200009A43124B0C331A604279102A0ED11A1F5E
:10921000126803681A430D4B08331A601A1D12684E
:1092200003681A43094B0C331A600DE00749427971
:1092300011440A6803681A430A6005E00279114480
:109240000A6803689A430A607047000000040140FE
:109250002DE9FF41C4B005460E461746DDF83C81B6
:109260004E9C002041904090FC2101A8FFF718F887
:109270003F480068009042A806F078F80020ADF85A
:1092800003003C480168CDF805108088ADF809005E
:109290008DF80B5030680390706804908DF814704E
:1092A000BDF81C01ADF815004298CDF81700BDF8C7
:1092B0000C01ADF81B009DF80E018DF81D008DF816
:1092C0001E40D4B100200FE0BDF8001118F80110C5
:1092D000BDF80021114489B24091BDF80011491C2C
:1092E00089B24091411CC8B2A042EDDBBDF800211B
:1092F00041460DF11F00FEF7BAFFBDF80001213015
:1093000080B24090BDF80001ADF80000BDF800014A
:10931000801E6946084418490968016016480068BB
:10932000401C154908609DF800209DF8010002EBE3
:109330000020801C81B2684604F0A2FA4190BDF87A
:109340000001801C6844BDF8041101809DF80020D4
:109350009DF8011002EB01210B1D0649CC3991F853
:10936000B3006A4605A106F0C3FA48B0BDE8F08133
:10937000B0460108CCB400206C0400202F696F7443
:109380005F676174657761792F6465766963655F8E
:10939000616C61726D2F7265706F727400000000F5
:1093A0000149C860704700000020024030B5044603
:1093B00004254FF4302000F07BF80546042D17D12A
:1093C0000C48006940F002000A49086108464461FF
:1093D000006940F0400008614FF4302000F068F868
:1093E00005460448006941F6FD71084001490861DD
:1093F000284630BD0020024004200B49C96801F016
:10940000010109B101200EE00749C96801F004011A
:1094100009B1022007E00449C96801F0100109B14F
:10942000032000E004207047002002400348006948
:1094300040F08000014908617047000000200240B0
:10944000014600200A46C2F30A031BB1012303EBC5
:10945000D22000E0D00A704770B504460D460426BD
:10946000F00200F025F80646042E11D109480069E3
:1094700040F00100074908612580F00200F018F86B
:1094800006460448006941F6FE710840014908613A
:10949000304670BD0020024002480349486003483E
:1094A000486070472301674500200240AB89EFCD3B
:1094B00000B502460423FFF79FFF034603E0FFF7D2
:1094C0009BFF0346521E012B01D1002AF7D102B99E
:1094D0000523184600BD000030B500228B071C0F85
:1094E0000F2303FA04F20B4B8C1053F824309343F0
:1094F000084C8D1044F8253023468C1053F8243046
:109500008C07240F00FA04F42343024C8D1044F816
:10951000253030BD080001402DE9F041024600250C
:109520000026002000230024002791F803C00CF03F
:109530000F0591F803C00CF0100CBCF1000F03D024
:1095400091F802C04CEA050591F800C0BCF1000F8B
:1095500031D0146800202BE04FF0010C0CFA00F31E
:10956000B1F800C00CEA03069E4220D183004FF000
:109570000F0C0CFA03F7BC4305FA03FC4CEA040495
:1095800091F803C0BCF1280F06D14FF0010C0CFA82
:1095900000FCC2F814C00AE091F803C0BCF1480F07
:1095A00005D14FF0010C0CFA00FCC2F810C0401CB1
:1095B0000828D1D31460B1F800C0BCF1FF0F34DD2E
:1095C000546800202EE000F1080C4FF0010808FA62
:1095D0000CF3B1F800C00CEA03069E4221D18300CF
:1095E0004FF00F0C0CFA03F7BC4305FA03FC4CEAEE
:1095F000040491F803C0BCF1280F05D100F1080C58
:1096000008FA0CF8C2F8148091F803C0BCF1480FB6
:1096100007D100F1080C4FF0010808FA0CF8C2F865
:109620001080401C0828CED35460BDE8F0810000B3
:10963000F0B50A46002300240021002500F0004672
:10964000B6F1004F02D11D4EF16901E01B4E716869
:10965000C0F3034583B200F44016B6F5401F08D1AD
:1096600021F07061154E766826F07066134F7E60AB
:1096700012E000F48016B6F5801F06D1032606FA24
:1096800005F4A14341F0706106E0460D360103FA8E
:1096900006F6B14341F0706122B1460D360103FA7E
:1096A00006F6314300F00046B6F1004F02D1034EFA
:1096B000F16101E0014E7160F0BD00000000014069
:1096C0000246002093680B400BB1012000E000200F
:1096D00070474161704701617047000009A1002097
:1096E0000CE00A5C124B1A8000BF114A121F12884C
:1096F00002F04002002AF8D0421CD0B22A28F0D34F
:1097000000BFFEE70D0A456E746572204861726401
:109710004661756C745F48616E646C65722C205391
:10972000797374656D2048616C742E0D0A00000019
:1097300004380140F0B599B0054664216846FEF74B
:10974000AFFD64273946684600F03CFBC4B22246B0
:109750006946284608F0B2F8C6B2A6420BD00220ED
:1097600004F09CFC032004F099FC042004F096FC17
:10977000002019B0F0BD0120FBE700004CF6CC4002
:1097800001490860704700000030004010B500F04B
:1097900001F810BD4AF6AA20014908607047000090
:1097A0000030004001494860704700000030004030
:1097B000014988607047000000300040014908609E
:1097C000704700000030004000B585B00121052041
:1097D00000F08CFC0121880300F088FC4FF400703D
:1097E000ADF8100018208DF8130003208DF812003A
:1097F00004A94148FFF790FE4FF48060ADF81000D7
:1098000004208DF8130004A93B48FFF785FE4FF4B0
:10981000E13000900020ADF80400ADF80600ADF88E
:109820000800ADF80C000C20ADF80A00694633487A
:1098300001F06CF9012240F22551304801F040F965
:1098400001212E4801F0FDF840212C4801F0F0F8EC
:109850000121082000F04AFC10208DF8130003209D
:109860008DF812000420ADF8100004A92448FFF779
:1098700053FE0121092000F039FC0121880400F089
:1098800015FC4FF48060ADF8100018208DF813001F
:1098900003208DF8120004A91948FFF73DFE4FF48C
:1098A0000060ADF8100004208DF8130004A91448DE
:1098B000FFF732FE04A91248FFF72EFE4FF4E13005
:1098C00000900020ADF80400ADF80600ADF80800E7
:1098D000ADF80C000C20ADF80A006946094801F00B
:1098E00015F90121074801F0ACF84021054801F0C5
:1098F0009FF805B000BD000000080140003801409D
:10990000000C0140004800402DE9FF4704460D4689
:109910001646994600200390029600278046009044
:1099200002A806F0C9FE8DF80C000398C0F30310DE
:10993000022800D01FE001A9029800F0A1F880469B
:10994000029908440290DDE9011047180298381A7C
:10995000022800DA0FE002A806F0AEFE8DF8000043
:10996000009800F00100207002A806F0A5FE287003
:109970004FF0010800BF404604B0BDE8F0872DE974
:10998000FF5F06460C4617469846DDE90FABDDF84B
:10999000389000200390119802900025002001903B
:1099A000009002A806F088FE8DF80C000398C0F322
:1099B0000310032800D032E00398C0F3C0003070D9
:1099C0000398C0F341002060039800F00100387054
:1099D0006946029800F054F80190029908440290F8
:1099E0000099029845182A4602A9484606F078FED2
:1099F00010B10298281A00D511E02068002804DD73
:109A000002A806F060FEA8F800000298281ACBF819
:109A100000000298CAF800000120019000BF0198E0
:109A200004B0BDE8F09F2DE9F84305460C46012639
:109A300000270020206000BF4FF0FF38781C074649
:109A4000042801DD00BF17E001216846A8478046D1
:109A5000B8F1010F00D00FE09DF8001001F07F0178
:109A6000206801FB06002060F6019DF8000000F070
:109A700080000028E0D100BF3846BDE8F883000030
:109A800070B504460D460348046029460248FFF7B6
:109A9000CAFF70BD64010020E1E8000830B502464D
:109AA000002300BF0846CD1701EB5565ED11A1EB72
:109AB000C515ECB2CD1701EB5565E911002901DDA3
:109AC00044F0800418465B1C14540029EADC184654
:109AD00030BD0000401C802801DA401C0AE0B0F5CF
:109AE000804F01DA801C05E00349884201DAC01C7E
:109AF00000E0001D70470000FFFF1F002DE9FC4142
:109B000004460F4615464FF0FF380020019000260E
:109B1000009001212046A847012800D01EE0012620
:109B200069462846FFF77FFF601C0099FFF7B6FFE4
:109B3000064400983044B84200DD0FE0009830B190
:109B4000A0190099A8470099884200D006E0207823
:109B50008DF804000198C0F3031800BF4046BDE82B
:109B6000FC812DE9FC4704460E4615461F46DDF8EC
:109B700028800020019081460094042E02DA6FF0C4
:109B8000010924E0019865F307100190019867F33B
:109B9000C3000190062D01D1012100E000210198B0
:109BA00061F3420001909DF80410684608F0A7FE9A
:109BB00002210098FFF772FF009908440090414687
:109BC000684608F0A2FE0098A0EB040900BF4846D2
:109BD000BDE8FC872DE9FE4305460E461446029576
:109BE00000200190009000274FF0FF38204600F041
:109BF000A5F807468146FFF76DFFB04202DD6FF022
:109C000001088FE000208DF80400019820F0F0009A
:109C1000103001909DF8041002A808F070FE39463B
:109C20000298FFF73BFF029908440290207A04282B
:109C300008D13EA102A808F04EFE042102A808F0B7
:109C40005EFE07E03BA102A808F045FE032102A842
:109C500008F055FE00208DF80000A17E009861F309
:109C600041000090E07E08B1012100E00021009851
:109C700061F3820000900098C0F3800058B194F81E
:109C80003D10009861F3C400009094F83C100098D7
:109C900061F345100090206C08B9A06C20B10098C9
:109CA00020F0800080300090E06C08B9606D20B139
:109CB000009820F04000403000909DF8001002A86D
:109CC00008F01DFE218B02A808F01FFE02A8D4E9AF
:109CD0000423E16808F031FEE07E58B102A8D4E91F
:109CE0000A23616A08F029FE02A8D4E90D23216B3A
:109CF00008F023FE0098C0F3C01028B102A8D4E9F0
:109D00001123216C08F019FE0098C0F3801028B1CF
:109D100002A8D4E91423E16C08F00FFE0298A0EB2E
:109D2000050800BF4046BDE8FE8300004D51545475
:109D3000000000004D5149736470000070B5044686
:109D40000025207A032801D10C2503E0207A04287D
:109D500000D10A25D4E90412E06800F046F9801C1D
:109D60000544E07E68B1D4E90A12606A00F03DF96A
:109D7000861CD4E90D12206B00F037F93044801CAA
:109D80000544206C08B9A06C30B1D4E91112206CE4
:109D900000F02BF9801C0544E06C08B9606D30B10F
:109DA000D4E91412E06C00F020F9801C0544284628
:109DB00070BD70B504460D460E222946204600F0BF
:109DC000EEF870BD70B504460D460C2229462046BB
:109DD00000F0E5F870BDF8B505460E4614460023C0
:109DE0000422314628460094FFF7BBFEF8BD2DE95A
:109DF000F04F87B005460F4690461C46DDE915B684
:109E0000DDE9109A069500200590049003900096D5
:109E1000204612A90EC900F042F804900290FFF704
:109E200059FEB84203DD6FF00100039033E005985E
:109E300020F0F00030300590059868F3C3000590DD
:109E4000059864F342000590059869F300000590B9
:109E50009DF8141006A808F052FD04990698FFF723
:109E60001DFE06990844069006A812A90EC908F01E
:109E700064FD002C03DD514606A808F046FD32467D
:109E800059460698FEF7F3F906983044069006986E
:109E9000401B039000BF039807B0BDE8F08F7FB56B
:109EA0000546089E002401A807C800F09EF8801C03
:109EB00030440444002D00DDA41C204604B070BDD5
:109EC0002DE9FF5F05460E4617469846DDE90E9AD6
:109ED00003950020029001900090002451464846CE
:109EE00000F046F883460190FFF7F4FDB04202DD32
:109EF000A01E009038E000208DF80800029820F0A5
:109F0000F00080300290029867F3C300029002983C
:109F100020F00600801C02909DF8081003A808F0AD
:109F2000EEFC01990398FFF7B9FD039908440390EB
:109F3000414603A808F0E9FC00240FE004EB4400CC
:109F40000AEB800C03A89CE80E0008F0F6FC1098C1
:109F500010F8241003A808F0D2FC641C4C45EDDB7B
:109F60000398401B009000BF009804B0BDE8F09F2C
:109F70002DE9F04105460E46022700240AE004EBD5
:109F8000440006EB800393E8070000F02EF8C01CA5
:109F90000744641CAC42F2DB3846BDE8F0812DE991
:109FA000FC4104460D46164600200190471E0094D1
:109FB000022D01DA871E15E000208DF804000198BB
:109FC00066F3071001909DF80410684608F097FCAE
:109FD00000210098FFF762FD009908440090009866
:109FE000071B00BF3846BDE8FC8137B50024009848
:109FF00020B10098FEF771F9044600E0019C20466C
:10A000003EBD00BFFEE7704770B5002100230F2260
:10A01000C47804B3154C246804F4E064C4F5E06427
:10A02000210AC1F10403CA40447804FA03F1847898
:10A030001440214309010E4C0678A155047804F020
:10A040001F050124AC4005786D11AD0005F1E02538
:10A05000C5F8004109E0047804F01F050124AC4074
:10A06000044D0678761145F8264070BD0CED00E0F1
:10A0700000E400E080E100E002490143024A11608F
:10A08000704700000000FA050CED00E029B1064A17
:10A0900052690243044B5A6104E0034A5269824305
:10A0A000014B5A61704700000010024029B1064A76
:10A0B000D2690243044BDA6104E0034AD269824365
:10A0C000014BDA61704700000010024029B1064AD6
:10A0D00012690243044B1A6104E0034A1269824385
:10A0E000014B1A61704700000010024029B1064A76
:10A0F00092690243044B9A6104E0034A92698243E5
:10A10000014B9A61704700000010024029B1064AD5
:10A11000D2680243044BDA6004E0034AD268824307
:10A12000014BDA6070470000001002400348406AAB
:10A1300040F0807001494862704700000010024002
:10A140000F48006840F001000D490860084640686B
:10A150000C4908400A494860084600680A49084016
:10A16000074908600846006820F480200860084617
:10A17000406820F4FE0048604FF41F00886070477C
:10A18000001002400000FFF8FFFFF6FE30B500218E
:10A190000022002400232D4D6D6805F00C0121B133
:10A1A000042905D0082923D105E0294D056022E0C6
:10A1B000274D05601FE0254D6D6805F47012234D95
:10A1C0006D6805F48034022505EB92421CB9214DDF
:10A1D000554305600BE01D4D6D6805F400351DB15C
:10A1E0001C4D5543056002E0194D5543056002E0E2
:10A1F000174D056000BF00BF144D6D6805F0F001FC
:10A200000909154D6B5C0568DD4045600F4D6D68B3
:10A2100005F4E061090A104D6B5C4568DD4085601E
:10A220000A4D6D6805F46051C90A0B4D6B5C4568B9
:10A23000DD40C560054D6D6805F44041890B074D53
:10A240006B5CC568B5FBF3F5056130BD00100240DD
:10A2500000127A0000093D00E4000020F400002014
:10A2600010B501460022002300204A11012A02D124
:10A27000094C236806E0022A02D1074C236A01E058
:10A28000054C636A01F01F02012494401C400CB18C
:10A29000012000E0002010BD0010024001490860CC
:10A2A00070470000800442427047000004200149CA
:10A2B00008607047100C0140042001490860704795
:10A2C000140C014010B54FF480510248FFF703FA17
:10A2D00010BD0000000C014010B54FF48051024841
:10A2E000FFF7F7F910BD0000000C014021B1028812
:10A2F00042F04002028004E002884FF6BF731A4029
:10A300000280704700B585B000F076F800F030F8B4
:10A310000020ADF80C00ADF800004FF48270ADF8ED
:10A3200002000020ADF80400ADF80600ADF808000A
:10A330004FF40070ADF80A000020ADF80E000720C1
:10A34000ADF810006946044800F038F801210248D1
:10A35000FFF7CCFF05B000BD00380040012080F3BE
:10A36000108800BF7047002080F3108800BF70473E
:10A3700008B54FF46040ADF8000003208DF80200EE
:10A3800018208DF8030069460B48FFF7C5F84FF415
:10A390008050ADF8000003208DF8020010208DF8E9
:10A3A000030069460448FFF7B7F84FF480510248AC
:10A3B000FFF791F908BD0000000C014010B5002224
:10A3C000028802F441520B884C8823438C88234333
:10A3D000CC8823430C8923434C8923438C89234312
:10A3E000CC8923431A430280838B4FF2FF742340AE
:10A3F00083830B8A038210BD10B501218803FFF708
:10A4000055FE01210820FFF771FE01210846FFF7E4
:10A410006DFE01210148FFF70BF910BD000230006D
:10A4200000BF0B48008800F002000028F9D0FF2090
:10A430000749091D088000BF0548008800F0010099
:10A440000028F9D00248001D0088C0B27047000003
:10A450000838004000BF0A49098801F002010029BC
:10A46000F9D00749091D088000BF0549098801F096
:10A4700001010029F9D00249091D0988704700002F
:10A480000838004010B5FDF7A1FE08F0FDFE18B138
:10A490004FF08050024908600020FDF79EFE10BD7D
:10A4A00004ED00E01CB5002001900090FFF748FE8D
:10A4B0003348006840F001003149086000BF30486F
:10A4C000006800F0020000900198401C0190009884
:10A4D00018B90198B0F5A06FF1D12948006800F0D3
:10A4E000020010B10120009001E0002000900098CF
:10A4F000012843D12348006840F01000214908603A
:10A500000846006820F0030008600846006840F034
:10A51000020008601A4840681949486008464068C7
:10A5200048600846406840F48060486008464068DB
:10A5300020F47C1048600846406840F46010486091
:10A540000846006840F08070086000BF0C48006852
:10A5500000F000700028F9D00948406820F003009E
:10A56000074948600846406840F00200486000BF64
:10A570000348406800F00C000828F9D11CBD000019
:10A58000001002400020024010B50121880700F0B1
:10A590005DF945282DD00121880700F054F81548B1
:10A5A000B0F8D400401C1349A1F8D4000846B0F814
:10A5B000D40032281DD1FF2081F84C00B4220E486F
:10A5C00003F0E6FDA8B905F075F9642004F088FDF4
:10A5D00000BFBFF34F8F0948006800F4E0600849EE
:10A5E0000843001D05490860BFF34F8F00BF00BF3F
:10A5F000FEE710BD00B4002000FE07080CED00E0EF
:10A600000000FA0510B501210B4800F01FF990B1C8
:10A610000121094800F017F808480068401C074964
:10A620000860084600680A21B0FBF1F201FB120045
:10A6300008B9FEF749FD10BD00040040800000206D
:10A64000CA4302827047CA430282704721B102881E
:10A6500042F00102028004E002884FF6FE731A40C5
:10A660000280704710B504466848844208D1012131
:10A67000C014FFF74BFD0021E014FFF747FDC4E0D5
:10A68000B4F1804F08D101210846FFF71FFD0021DA
:10A690000120FFF71BFDB8E05D48844208D101218D
:10A6A0000220FFF713FD00210220FFF70FFDACE0B1
:10A6B0005848844208D101210420FFF707FD0021FA
:10A6C0000420FFF703FDA0E05348844208D1012194
:10A6D0000820FFF7FBFC00210820FFF7F7FC94E0BF
:10A6E0004E48844208D101211020FFF7EFFC0021E1
:10A6F0001020FFF7EBFC88E04948844208D1012193
:10A700002020FFF7E3FC00212020FFF7DFFC7CE0A6
:10A710004448844208D101214014FFF7F7FC00218E
:10A720006014FFF7F3FC70E03F48844209D1012137
:10A73000C804FFF7EBFC00214FF40020FFF7E6FC14
:10A7400063E03A48844209D101210805FFF7DEFCA5
:10A7500000214FF48010FFF7D9FC56E034488442C2
:10A7600009D101214805FFF7D1FC00214FF4001069
:10A77000FFF7CCFC49E02F48844208D1012140205A
:10A78000FFF7A4FC00214020FFF7A0FC3DE02A4891
:10A79000844208D101218020FFF798FC002180200D
:10A7A000FFF794FC31E02548844208D1012180154F
:10A7B000FFF78CFC0021A015FFF788FC25E020485E
:10A7C000844209D101210804FFF7A0FC00214FF4C5
:10A7D0008030FFF79BFC18E01A48844209D1012120
:10A7E0004804FFF793FC00214FF40030FFF78EFC84
:10A7F0000BE01548844208D101218804FFF786FC4C
:10A8000000214FF48020FFF781FC10BD002C014097
:10A810000004004000080040000C00400010004010
:10A820000014004000340140004C01400050014041
:10A830000054014000180040001C0040002000406F
:10A8400000400140004401400048014030B502464C
:10A85000002000230024158A05EA0103958905EAF2
:10A86000010413B10CB1012000E0002030BD1AB189
:10A8700083890B43838102E083898B438381704703
:10A88000002202881D4B98420ED01D4B98420BD0DF
:10A89000B0F1804F08D01B4B984205D01A4B98421C
:10A8A00002D01A4B984204D14FF68F731A404B884E
:10A8B0001A43174B984207D0164B984204D04FF6D4
:10A8C000FF431A40CB881A4302808B8883850B880C
:10A8D00003850A4B98420BD0094B984208D00E4B87
:10A8E000984205D00D4B984202D00D4B984201D1B1
:10A8F0000B7A03860123838270470000002C0140FD
:10A90000003401400004004000080040000C0040FA
:10A91000001000400014004000400140004401408D
:10A92000004801400EB501210320FFF7BFFB274877
:10A93000FFF798FE4FF08040FFF794FEC820ADF877
:10A94000040048F6A040ADF800000020ADF8060075
:10A95000ADF8020069461D48FFF792FF01211B4830
:10A96000FFF76EFE012211461848FFF780FF002016
:10A9700016492431088000211448FFF767FE40F291
:10A98000E730ADF8040041F6FF00ADF8000000200C
:10A99000ADF80600ADF8020069464FF08040FFF7C1
:10A9A0006FFF01218807FFF74BFE01221146900738
:10A9B000FFF75DFF00204FF08041888400214FF0B9
:10A9C0008040FFF743FE00F003F80EBD0004004096
:10A9D00008B51D208DF8000001208DF80100002031
:10A9E0008DF8020001208DF803006846FFF70CFB8C
:10A9F0001C208DF8000008208DF8010000208DF843
:10AA0000020001208DF803006846FFF7FDFA08BD3B
:10AA100010B5024800F018F910BD0000740C0020B9
:10AA200010B5024800F010F910BD00009C12002083
:10AA300001F40072B2F5007F00D100BFCA4302806A
:10AA4000704721B1828942F40052828104E08289F8
:10AA50004DF6FF731A40828170471AB1838A0B4307
:10AA6000838202E0838A8B438382704770B50246FB
:10AA7000002400230025002040F66A16B14200D1D0
:10AA800000BFC1F3421501F01F03012606FA03F3CC
:10AA9000012D02D19689334006E0022D02D1168A9B
:10AAA000334001E0968A33400C12012606FA04F482
:10AAB0001688344013B10CB1012000E0002070BDB5
:10AAC000F0B50346002400260025002040F66A1752
:10AAD000B94200D100BF1846C1F3421401F01F066D
:10AAE000012707FA06F5012C01D10C3004E0022CF5
:10AAF00001D1103000E014301AB107682F4307600D
:10AB000002E00768AF430760F0BD00002DE9F047A1
:10AB100086B005460E460024A24600BFA146002787
:10AB2000B08900B100BF2F462C8A4CF6FF7004405C
:10AB3000F08804432C82AC894EF6F3100440B088B0
:10AB400031890843718908430443AC81AC8A4FF6CC
:10AB5000FF400440B0890443AC8201A8FFF716FB14
:10AB60001F48874202D1DDF810A001E0DDF80CA0FB
:10AB7000A88900F4004040B10AEBCA0000EB0A10BB
:10AB800031684900B0FBF1F807E00AEBCA0000EBBE
:10AB90000A1031688900B0FBF1F86420B8FBF0F0CE
:10ABA00004012009642101FB1089A88900F40040F8
:10ABB00040B1322000EBC900B0FBF1F000F007001B
:10ABC000044308E0322000EB09106421B0FBF1F0EF
:10ABD00000F00F0004432C8106B0BDE8F0870000B0
:10ABE0000038014001468888C0F308007047C1F36F
:10ABF00008028280704730B502460B4600211FE0F4
:10AC0000108B0844D48990FBF4F504FB150094687C
:10AC1000205C5A2812D0148B9068005D18705A205E
:10AC2000158B94686055108B401C80B21083D489BA
:10AC3000A04201DB00201083012030BD481CC1B2BE
:10AC40000329DDDB0020F8E770B5044640F225510A
:10AC50002068FFF70BFFE0B12068FFF7C3FFC5B224
:10AC6000E18AA0684554E08A401C80B2E082E18914
:10AC7000884201DB0020E082608BE189884202DAB1
:10AC8000608B401C6083606A10B12846616A884707
:10AC900000BF40F227712068FFF7E8FE08B3A08AE2
:10ACA00060B9002240F227712068FFF709FF0122F6
:10ACB00040F226612068FFF703FF37E0638A62688D
:10ACC000D15C2068FFF793FF608A401C80B26082ED
:10ACD000A189884201DB00206082A08A401EA082F8
:10ACE00024E040F226612068FFF7C0FEF0B1A08AA0
:10ACF00050B9002240F226612068FFF7E1FE206A89
:10AD0000A0B1206A804711E0638A6268D15C206844
:10AD1000FFF76DFF608A401C80B26082A189884283
:10AD200001DB00206082A08A401EA08270BDF8B5C1
:10AD300004460E461746002525E00CE006F03EFED0
:10AD4000A08A009006F05CFEA089BDF80010884241
:10AD500000DD01E000BFF1E700BF705D228A61689D
:10AD6000885406F02BFE208A401C80B22082A189E4
:10AD7000884201DB00202082A08A401CA08206F0CD
:10AD80003FFE681C85B2BD42D7DB012240F227712D
:10AD90002068FFF795FEF8BD10B51A481A490860FB
:10ADA0001A4848601A4888604FF4806088814010D3
:10ADB000C881002008824882C8820883488388822C
:10ADC000C861086248621348134908601348486024
:10ADD000134888604FF400608881C8810020088291
:10ADE0004882C8820883488388820E48C8610E481A
:10ADF00008620E4848620A46D18990685A22FDF7D7
:10AE000048FA10BD00380140740C00209C0C002052
:10AE10009C100020004800409C120020C41200201A
:10AE2000C41A0020ADA20008B9A20008A9A2000817
:10AE300000BFFEE70EB501210820FFF757F90121F9
:10AE40000846FFF753F92020ADF8080003208DF8DD
:10AE50000A0048208DF80B0002A91548FEF75CFB9C
:10AE60004020ADF8080010208DF80B0002A9104812
:10AE7000FEF752FB40210E48FEF72BFC0A2004F09F
:10AE80002FF940210A48FEF726FC05210120FEF794
:10AE900023FB2020009000208DF804000C208DF86A
:10AEA000050001208DF806006846FEF787F90EBD03
:10AEB000000C014008B517208DF8000002208DF825
:10AEC000010000208DF8020001208DF80300684683
:10AED000FFF79AF808BD000070B50446104988686D
:10AEE00080470F490869804700BF0D48C169C4F316
:10AEF000074088470A48C169C4F307208847E0B281
:10AF0000074AD16988470649886980470546044948
:10AF1000486980470249C8688047284670BD0000DC
:10AF2000780100202DE9F04104460E461746002521
:10AF3000A84614498868804712490869804700BFBD
:10AF40001048C169C4F3074088470E48C169C4F37B
:10AF500007208847E0B20B4AD169884700BF06E066
:10AF60000849886980477055681C85B200BFBD429A
:10AF7000F6DB0449486980470249C8688047BDE854
:10AF8000F08100007801002070B504460D4610499C
:10AF9000886880470E490869804744F004040C48DB
:10AFA000C169C4F3074088470948C169C4F3072051
:10AFB0008847E0B2064AD16988470548C1692846F2
:10AFC00088470349486980470149C868804770BD80
:10AFD000780100202DE9F04104460E461746002571
:10AFE000A84614498868804712490869804744F098
:10AFF00004041048C169C4F3074088470D48C1697B
:10B00000C4F307208847E0B20A4AD169884700BFE5
:10B0100006E0705D074AD1698847681C85B200BFA9
:10B02000BD42F6DB0349486980470249C86880474A
:10B03000BDE8F081780100200FB4054B10B503A9DD
:10B04000044A029800F0EEF810BC5DF814FB000012
:10B0500001F20008700400200FB4084B10B504A9D9
:10B0600002AA039800F0DEF8044602A9002000F0CE
:10B0700070FC204610BC5DF814FB000053B90008BA
:10B0800002E008C8121F08C1002AFAD170477047B1
:10B09000002001E001C1121F002AFBD1704700000F
:10B0A0002DE9FF5F82B00021DDE90430020DDDF8FB
:10B0B00040B0034318D044F61050A2F2FF3242438E
:10B0C0001514119801281FD0A5EB0B00401C5FEA56
:10B0D000000A4FF000064E4FDFF83891B046504658
:10B0E00015D5CAF1000413E0119801244AA30128E0
:10B0F00001D16FEA0B010298119AC0E90031C0E951
:10B10000024206B0BDE8F09FCBF10000DFE7044645
:10B110000021404A491842EB0450CDE9001012E0EA
:10B12000E00707D032463B4640464946FDF79FF9C7
:10B130008046894632463B4610461946FDF797F948
:10B1400006460F466410002CEAD1DDE90401DDE972
:10B150000023BAF1000F06DAFDF789F942464B46A3
:10B16000FDF785F905E0FDF7F4F942464B46FDF79A
:10B17000F0F904460E460022284BFDF789FA03D861
:10B180004FF0FF30014607E00022254B20463146B4
:10B19000FDF7C6F8FDF76FFB102409E0002C0ADB71
:10B1A0000A220023FDF732F8039B30321A55641E41
:10B1B00050EA0102F2D1641C039AC4F11103144451
:10B1C000119A012A03D0012208430DD10AE0084355
:10B1D00004D000204FF0110B119072E7A3EB0B0588
:10B1E0006D1E0DE05B4504DD4FF0000205F1010529
:10B1F00004E003DA4FF00002A5F10105002AECD0CB
:10B2000002981199C0E90231C0E9004579E70000D0
:10B21000000014400000F03F300000000000F04348
:10B220000000E03F2DE9FF4F95B09B46894606465A
:10B2300000250FE2252877D100242746F84A01216E
:10B24000059400E0044316F8013F203B01FA03F0A7
:10B250001042F7D130782A2811D06FF02F033078C0
:10B26000A0F13002092A16D8059A44F0020402EB34
:10B27000820203EB42021044761C0590EFE759F876
:10B28000042B0592002A03DA504244F4005405903E
:10B2900044F00204761C30782E2816D116F8010FDF
:10B2A00044F004042A280DD06FF02F023078A0F16A
:10B2B0003003092B09D807EB870302EB4303C718B8
:10B2C000761CF3E759F8047B761C30786C280FD095
:10B2D00006DC4C2817D068280DD06A2814D104E069
:10B2E000742810D07A280FD10DE044F400140AE03D
:10B2F00044F4801401E044F440147278824202D194
:10B3000004F58014761C761C307866280BD013DC8C
:10B31000582877D009DC002875D04528F6D0462873
:10B32000F4D047281AD19DE118E0632835D064286D
:10B3300079D0652812D195E1702873D008DC672890
:10B34000F1D069286FD06E280DD06F2806D1B5E0F6
:10B3500073282CD0752875D0782874D05A46179940
:10B3600090476D1C75E1C4F30250022809D00328F0
:10B370000DD0D9F8001004280DD00D6009F1040992
:10B3800067E1D9F80010EA17C1E90052F6E7D9F8E9
:10B3900000100D80F2E70D70F0E719F8041B8DF82E
:10B3A000001000208DF80100EA46012003E059F862
:10B3B00004AB4FF0FF3061074FF0000102D40DE005
:10B3C00008F101018846B9420FDA8045F8DB1AF826
:10B3D00008100029F4D108E008F1010188468142F3
:10B3E000FADB1AF808100029F6D105985B46A0EBA5
:10B3F000080721463846179A00F094FA284400EBD3
:10B40000080507E04DE029E10DE01AF8010B5A4666
:10B4100017999047B8F10108F7D25B4621463846A4
:10B42000179A13E142E00A220092C4F302524FF04D
:10B43000000A022A08D059F804CB032A4FEAEC711B
:10B440000AD00DE029E02AE009F1070121F0070206
:10B45000F2E802C1914609E00FFA8CFC4FEAEC7168
:10B46000042A03D14FFA8CFC4FEAEC71002907DA69
:10B470000A460021DCF1000C61EB02012D2202E002
:10B48000220504D52B228DF80420012203E0E207D7
:10B4900001D02022F7E7904659E00A2102E010226D
:10B4A0000DE010214FF0000A00910BE010224FF048
:10B4B000000A44F004040827009203E008224FF039
:10B4C000000A0092C4F30252022A05D059F804CBB4
:10B4D0000021032A08D009E009F1070121F0070241
:10B4E000F2E802C1914605E01FFA8CFC042A01D162
:10B4F0000CF0FF0C4FF00008220728D5702806D06A
:10B50000009B83F0100353EA0A0305D00EE04022AB
:10B510008DF80420012208E05CEA010206D0302206
:10B520008DF804208DF8050002229046009B83F0E0
:10B53000080353EA0A030AD15CEA010201D1620757
:10B5400005D530228DF804204FF001087F1E5828C1
:10B5500004D034A003900EA802900DE036A0F9E7C5
:10B5600053466046009AFCF751FE84460398825C7D
:10B570000298401E029002705CEA0100F0D102982D
:10B5800006A9081A00F1200A600702D524F48034C5
:10B5900000E00127574502DDA7EB0A0000E000208C
:10B5A00000EB0A01009005984144401A0590E00321
:10B5B00006D45B462146179A059800F0B3F9054476
:10B5C000002706E001A85A46C05D179990476D1CF8
:10B5D0007F1C4745F6DBE0030CD55B462146179AF6
:10B5E000059800F09FF9054404E030205A46179969
:10B5F00090476D1C0099481E00900029F5DC08E07A
:10B60000029802995A460078491C0291179990476E
:10B610006D1CBAF10001AAF1010AF1DC65E100003C
:10B620000928010030313233343536373839616218
:10B6300063646566000000003031323334353637DC
:10B6400038394142434445460000000000F058F9B3
:10B650000544761C307800287FF4ECAD19B02846FC
:10B66000BDE8F08F620700D4062709F1070222F037
:10B67000070CFCE80223E14603F000485FEA080CEF
:10B6800002D00FF2702C0DE05FEA045C02D50FF2DD
:10B69000682C07E05FEAC47C02D00FF2602C01E066
:10B6A000AFF2700C4FF0FF3823F00043CDF850C0DC
:10B6B00065280CD006DC452809D046281DD047282F
:10B6C0003DD13DE0662818D067287ED138E00021C2
:10B6D000112F01DB112000E0781CCDE9000106A943
:10B6E0000EA8FFF7DDFCDDE90F010E9A03910021A2
:10B6F000009207F1010A04914DE04FF000400097DD
:10B70000CDE9011006A90EA8FFF7CAFCDDE90F027A
:10B7100003920E9B11990022DDF80CA00093049275
:10B7200011B9791C00EB010AB7EB0A0004D4C0F18F
:10B73000FF3007F1010A0490AAEB0700019044E0F2
:10B74000012F00DA01270021112F01DD112000E077
:10B750003846CDE9000106A90EA8FFF7A1FCDDE9F6
:10B760000F010E9A0391002104910092BA4621071D
:10B770000CD40399514500DA8A46BAF1010F05DD70
:10B78000009AAAF10101515C302908D0B84202DACE
:10B7900010F1040F06DA0121CDE9011015E0AAF13C
:10B7A0000101E9E7002805DC049901440491AAEBB2
:10B7B000000102E0411C514500DD8A460499401A0F
:10B7C000401C01904FF000400290200704D40198E3
:10B7D000504501DBCDF8048000208DF84F00029821
:10B7E0000DF14F07B0F1004F25D02B200E9002989D
:10B7F0004FF0020800280CDA404202902D200E90F3
:10B8000007E00A210298FCF75BFF3031029007F84D
:10B81000011DB8F10001A8F10108F2DC029800282E
:10B82000EFD1791E0E980870307800F0200040F0BB
:10B83000450007F8020D12A8C01B00F10708149874
:10B84000007800B1012000EB0A01019801EBE071E2
:10B8500005984144401A401E0590E00306D45B461B
:10B860002146179A059800F05DF805441498007871
:10B8700018B15A46179990476D1CE00324D55B46D2
:10B880002146179A059800F04DF805441CE00498ED
:10B89000002807DBDDE90301884203DD0098405CF6
:10B8A000179901E0179930205A469047049805F1FE
:10B8B0000105401C04900198401E019004D12E20E7
:10B8C0005A46179990476D1CBAF10001AAF1010A76
:10B8D000DDDC05E017F8010B5A46179990476D1CFF
:10B8E000B8F10001A8F10108F4DC5B462146179A83
:10B8F0000598ABE62D0000002B00000020000000A2
:10B900002DE9F041044600251E461746880404D45C
:10B9100005E039462020B0476D1C641EF9D5284645
:10B92000BDE8F0812DE9F041044600251E46904611
:10B93000C80301D5302700E02027880404D505E09E
:10B9400041463846B0476D1C641EF9D52846BDE80F
:10B95000F0810A68531C0B601070704770B1084A80
:10B9600052F8212012680260054A52F821205268DC
:10B970004260034A52F821209268826070470000BA
:10B98000E803002070B592B000200F901090119045
:10B990000C900D900E900A900B90069007900890D6
:10B9A0000990B4228E498F4802F0DAFB0546012D3A
:10B9B00002D1002012B070BD01210FA8FFF7CEFF09
:10B9C0000FA807C80CAB07C3BDF83800ADF82800B6
:10B9D0009DF83A008DF82A009DF835008DF82B006F
:10B9E0009DF830402007040E04F0F0049DF832006A
:10B9F00000F00F008DF832009DF8320004438DF8FE
:10BA00002C409DF836402007040E04F0F0049DF809
:10BA1000370000F00F008DF837009DF83700044321
:10BA20008DF82D409DF8280000F0FE008DF82800CC
:10BA30006B48CC300A990160BDF82C108180002041
:10BA4000674981F8D20081F8B200084690F84D00AD
:10BA5000192802DD002081F84D0004226249604867
:10BA6000FCF742FC88BB6148FCF737FC06463246CF
:10BA70005E495B48001DFCF744FC30BB5848001D84
:10BA8000FCF72BFC0646324658495548001DFCF78A
:10BA900038FCD0B95648FCF720FC064632465449DB
:10BAA0004F481830FCF72DFC78B94D481830FCF79A
:10BAB00014FC064632464E4949481830FCF721FC32
:10BAC00018B9FF20464981F84C00454890F84C00D1
:10BAD000CF2830D0424844490968016040F25B7089
:10BAE0003F49A1F84A004148FCF7F7FB06463246B9
:10BAF0003E493B48001DFCF7BAFB3D48FCF7EDFB17
:10BB0000064632463A4936481830FCF7B0FB37480B
:10BB1000FCF7E3FB3249091D00220A543448FCF7C4
:10BB2000DCFB01462E4818300022425400202C49EC
:10BB300081F8B30003E00120294981F8B30041F204
:10BB400070702749A1F8B400084690F8D10091F828
:10BB5000D02091F8CF10224B93F8CE30CDE90231AE
:10BB6000CDE904201E4890F8CD001D4991F8CC1075
:10BB700000231A46CDE900101EA106A8FFF76CFAB3
:10BB8000102206A91648BA30FCF771FB00211448B0
:10BB900080F8CA10102206A91F48FCF768FB102283
:10BBA00006A91E48FCF763FB102206A91C48FCF7F7
:10BBB0005EFB102206A91B48FCF759FB102206A9C0
:10BBC0001948FCF754FB102206A91848FCF74FFB54
:10BBD000102206A91648FCF74AFB0120EAE60000FD
:10BBE00000B4002000FE0708E3030020B803002093
:10BBF000C203002025303278253032782530327863
:10BC00002530327825303278253032782530327838
:10BC100025303278000000006B020020B1020020C5
:10BC20008E02002024030020D70200204B030020B6
:10BC3000FE0200202DE9F04192B005460E46002498
:10BC40000027342105A8FCF72BFB14222BA1684602
:10BC5000FCF70DFB42208DF8010028680190686810
:10BC6000029030680390B088ADF810009DF8017024
:10BC7000022404E01DF804004740601CC4B29DF893
:10BC80000300001DA042F5DC0DF80470CA21601C01
:10BC90000DF8001014226946022003F070F8002409
:10BCA00028E04FF47A7005F0E9FFFDF76FFD4FF0E3
:10BCB00000081AE0342105A8FCF7F2FA05A800F004
:10BCC000B1FB01280DD19DF81500422809D10622AB
:10BCD00003A908A8FCF708FB18B9012012B0BDE8B9
:10BCE000F08108F1010000F0FF08B8F1320FE1DB4C
:10BCF000601CC4B23C2CD4DB0020EFE75A42000E9B
:10BD00000000000000000000000000000000000033
:10BD1000F0B593B0342106A8FCF7C2FA0024002540
:10BD200004A803F023FB9DF810109DF8110001EB0F
:10BD30000020A0F5FA60002809D49DF810109DF8A5
:10BD4000110001EB0020A0F5FA60642801DD13B0BA
:10BD5000F0BD9DF816009DF81510CDE900109DF876
:10BD600010709DF8116007EB0626B0B29DF81430F4
:10BD70009DF813209DF8121000F060FC05468CE140
:10BD80009DF8190041287DD1002414E104EB440101
:10BD9000C64A02EBC100062209A9FCF7A5FA002851
:10BDA00071D104EB4401C14A02EBC10101F1080069
:10BDB00006220DF13501FCF797FA78B104EB440047
:10BDC000BA4901EBC000DDF835108160BDF83910CB
:10BDD00081810DF1350109A801F0EAFC04EB440171
:10BDE000B24A02EBC10101F1120006220DF12B0152
:10BDF000FCF77AFA80B104EB4400AC4901EBC000D7
:10BE0000DDF82B10C0F81210BDF82F10C1820DF113
:10BE10002B0109A801F064FC04EB4400A34901EBE9
:10BE2000C000807B9DF83B1088420FD09DF83B00FE
:10BE300060B19DF83B0004EB44019C4A02EBC10158
:10BE400088739DF83B1009A801F088FA04EB4400C0
:10BE5000964901EBC000407C9DF83C10884237D0E9
:10BE60000020029003909DF83C0004EB44018F4AAF
:10BE700002EBC101487404EB4400114601EBC00021
:10BE8000407C01E0FEE094E0012810D10998029086
:10BE9000BDF82800ADF80C000020009040F25E23B1
:10BEA000022202A901901046FDF7D2F90FE009988D
:10BEB0000290BDF82800ADF80C000020009040F280
:10BEC0005F23022202A901901046FDF7C1F900BFCD
:10BED00004EB4400754901EBC00080799DF83110F6
:10BEE000884209D104EB4400704901EBC000C079DD
:10BEF0009DF83310884221D09DF83E2007AB0DF10C
:10BF00002A0109A801F090FA9DF8310004EB4401E0
:10BF1000664A02EBC10188719DF8330004EB4401CD
:10BF200002EBC101C8716420B5FBF0F100FB1150B8
:10BF300004EB440102EBC10108741FE06420B5FB6F
:10BF4000F0F100FB115004EB4401584A02EBC1012F
:10BF5000097C401A0A2811D96420B5FBF0F100FBD6
:10BF6000115004EB440102EBC10108749DF83E201E
:10BF700007AB0DF12A0109A801F056FA04EB4400C1
:10BF80004A4901EBC000C07B9DF83D1088420FD0AC
:10BF90009DF83D0060B19DF83D0004EB4401434A2B
:10BFA00002EBC101C8739DF83D1009A801F0DAF851
:10BFB00006E0601C84B23E4800688442FFF4E6AEAE
:10BFC00000BF3B480068844263D139480068401C88
:10BFD000374908606420B5FBF0F100FB115004EB19
:10BFE0004401324A02EBC1010874314800684FF441
:10BFF0009671B0FBF1F201FB12002D49086004EBD1
:10C0000044002A4901EBC00009990160BDF82810DD
:10C01000818004EB4400254901EBC000DDF83510B8
:10C020008160BDF8391081810DF1350109A801F059
:10C03000BFFB9DF8310004EB44011C4A02EBC10137
:10C0400088719DF8330004EB440102EBC101C87113
:10C050009DF83E2007AB0DF12A0109A801F0E4F993
:10C060000DF12B0109A801F03BFB04EB44000F4943
:10C0700001EBC000DDF82B10C0F81210BDF82F1036
:10C08000C18206E09DF81900442802D107A800F0FB
:10C090005FF9342106A8FCF703F906A800F0C2F9FD
:10C0A00001283FF46DAE00BF51E60000DEB4002071
:10C0B0003C040020F0B591B0054600240026342150
:10C0C00004A8FCF7EDF827A30FCB8DE80F00286834
:10C0D00001906868029040208DF801009DF8016091
:10C0E000022404E01DF804004640601CC4B29DF820
:10C0F0000300001DA042F5DC8DF80C60CA208DF80D
:10C100000D00002429E09DF803109DF8020001EBCA
:10C110000020801D82B26946022002F030FE4FF4FA
:10C12000FA7005F0ABFDFDF731FB342104A8FCF7F4
:10C13000B7F800270DE004A800F074F9012806D133
:10C140009DF81100402802D1012011B0F0BD781CEB
:10C15000C7B2322FEFDB601CC4B20A2CD3DB002045
:10C16000F3E700005A400008000000000000000053
:10C17000000000007FB505460024002612A30FCB67
:10C180008DE80F0041208DF8010028680190686853
:10C1900002909DF80160022404E01DF8040046406E
:10C1A000601CC4B29DF80300001DA042F5DC0DF830
:10C1B0000460CA21601C0DF800100E22694602209E
:10C1C00002F0DDFD7FBD00005A41000800000000C4
:10C1D0000000000049CA00001FB505A30FCB8DE881
:10C1E0000F000E226946022002F0C9FD1FBD0000AB
:10C1F0005A44000800000000000000004CCA000083
:10C200000146CA1701EB92729210A1EB820292B919
:10C21000642091FBF0F200FB121050B94FF4C8708B
:10C2200091FBF0F200FB121008B9012070470020CA
:10C23000FCE70120FAE70020F8E700002DE9F043D1
:10C24000ADF2344D064689461446002500273421B8
:10C250000DF58060FCF724F84FF47C7104A8FCF71E
:10C260001FF83A4BD3E90020D3E90213CDE90213BA
:10C27000CDE9002043208DF8010004F10800C1172A
:10C2800000EB1161090A8DF80210C11700EB116172
:10C290000912A0EB0121C9B28DF80310306801909A
:10C2A000706802902246494603A8FBF7E0FF9DF81C
:10C2B0000170022504E01DF805004740681CC5B266
:10C2C0009DF80300001DA842F5DC04F10C000DF8F8
:10C2D0000070CA21401C0DF800109DF803109DF855
:10C2E000020001EB0020801D82B26946022002F0AC
:10C2F00046FD002525E0FDF749FA4FF47A7005F078
:10C30000BDFC4FF0000817E034210DF58060FBF70D
:10C31000C7FF0DF5806000F085F8012808D19DF871
:10C320000104432804D101200DF2344DBDE8F0830F
:10C3300008F1010000F0FF08B8F1320FE4DB681CDF
:10C34000C5B21E2DD7DB0020EEE7000074420108C5
:10C350007FB50446002628A30FCB8DE80F002A489E
:10C3600090F8D200012800D17FBD28A0FEF764FE1E
:10C37000002507E02448CC30415D26A0FEF75CFE96
:10C38000681CC5B2062DF5DB24A0FEF755FE00257E
:10C3900005E0615D1FA0FEF74FFE681CC5B2082DC9
:10C3A000F7DB1FA0FEF748FE20680190606802904E
:10C3B0009DF80160022004E01DF800104E40411C71
:10C3C000C8B29DF80310091D8142F5DC8DF80C60A0
:10C3D0000E226946022002F0D2FC0B48D6302168BA
:10C3E0000160616841600120074981F8D20001F0D5
:10C3F0004FFB00BFB8E700005A44000800000000EF
:10C40000000000004CCA000000B400203030303082
:10C4100000000000253032580000000020202000DD
:10C420000D0A0000F8B50546002400260020009003
:10C43000002704E09DF800005A2800D10AE0694670
:10C44000022002F08DFC012804D12046611CCCB2F0
:10C450003228EFDB00BF322C01D10020F8BD5A207A
:10C460002870012408E02919022002F079FC08B99B
:10C470000020F3E7601CC4B2042CF4DBE978A87850
:10C4800001EB0020C6B2B01D322801DD0020E5E737
:10C49000002409E0201D4119022002F061FC08B9C6
:10C4A0000020DBE7601CC4B2B01C8442F2DB701DCC
:10C4B000285CCA2801D00020D0E76F78022403E06E
:10C4C000285D4740601CC4B2301D8442F8DB285C04
:10C4D000B84201D10120C1E70020BFE71FB507A383
:10C4E0000FCB8DE80F000E226946022002F047FCB8
:10C4F0000E226946022002F042FC1FBD5A45000888
:10C5000000000000000000004DCA00002DE9F041CD
:10C5100088B005460E4617460024A0461B2101A8F8
:10C52000FBF7BEFE1A480068009049208DF8010014
:10C5300001208DF804002868CDF80500A888ADF822
:10C5400009003068CDF80B000E2239460DF10F00BE
:10C55000FBF78DFE9DF80180022405E01DF8040024
:10C5600080EA0808601CC4B29DF80300001DA042C8
:10C57000F4DC0DF80480CA21601C0DF800101F22A5
:10C580006946022002F0FBFB08B0BDE8F081000024
:10C59000083E01082DE9F041ADF57E7D064688464E
:10C5A00014460025002740F2F13101A8FBF778FE80
:10C5B00021480068009049208DF8010002208DF884
:10C5C00004003068CDF80500B088ADF809002246B7
:10C5D00041460DF10B00FBF74AFEE01DC11700EBD1
:10C5E0001161090A8DF80210C11700EB11610912DF
:10C5F000A0EB0121C9B28DF803109DF8017002254E
:10C6000004E01DF805004740681C85B204F10B00EA
:10C61000A842F6DC0DF80570CA21681C0DF8001060
:10C6200004F10D0082B26946022002F0A8FB0DF56C
:10C630007E7DBDE8F08100000C3E01082DE9FE4F33
:10C6400006460F4690469946DDE90CAB002425A22C
:10C6500007CA8DE8070040F2B270864203DB40F65D
:10C660003300864202DD0120BDE8FE8F40F2B27544
:10C670000BE02846FFF7C4FD012802D11C48044402
:10C6800001E01C480444681C85B2B542F1DB781E09
:10C69000C7B2002510E01DF8050040F2A321484371
:10C6A00004EBC0143046FFF7ABFD18B1012D01D1EA
:10C6B00011480444681C85B2BD42ECDBA8F10100BE
:10C6C00040F2A321484304EBC014C9EB4910C0EB6E
:10C6D000092004EB0014CAEB0A1004EB80045C444C
:10C6E0002046C1E71F1C1F1E1F1E1F1F1E1F1E1FCF
:10C6F0000085E2018033E101805101007FB50546EC
:10C700000024002616A30FCB8DE80F0046208DF8DD
:10C71000010000BF07E0C4F10700295C201D0DF8EF
:10C720000010601CC4B2082CF5DB9DF801600224E7
:10C7300004E01DF804004640601CC4B29DF80300EC
:10C74000001DA042F5DC0DF80460CA21601C0DF844
:10C7500000100E226946022002F011FB7FBD00008E
:10C760005A460008000000000000000049CA00000E
:10C7700030B58BB004460D46162104A8FBF790FD9A
:10C780004848006803901A208DF80E0054F80B0FEB
:10C79000CDF80F006068CDF81300A068CDF8170041
:10C7A000E0680B3CCDF81B00A81F204400680890EF
:10C7B00004F10B01E01CFFF73DFA012823D0012012
:10C7C0008DF81F00182103A801F05AF80A90BDF84F
:10C7D0002800ADF82400344991F8B3001A2303AAC5
:10C7E00032A103F085F8E01CFFF764FC0020009004
:10C7F00040F25B23022204F10B0101901046FCF78A
:10C8000027FD0BB030BD4FF47A7005F037FAA5F173
:10C81000210082B204F11B01E01CFFF70FFD01288B
:10C8200018D103208DF81F00182103A801F028F863
:10C830000A90BDF82800ADF824001B4991F8B30018
:10C840001A2303AA19A103F053F84FF47A7005F0E4
:10C8500015FAD6E702208DF81F00182103A801F071
:10C860000FF80A90BDF82800ADF824000E4991F8A1
:10C87000B3001A2303AA0DA103F03AF8E01CFFF756
:10C8800019FC0020009040F25B23022204F10B010E
:10C8900001901046FCF7DCFC4FF47A7005F0EEF9DD
:10C8A00000BFAEE72440010800B400202F696F7478
:10C8B0005F676174657761792F6E6F746963652F47
:10C8C000736D73001CB5044640F2DC53E21D6946EB
:10C8D00001A8FDF719F8012802D19DF80000A8B1C0
:10C8E000022001F0DBFB00200B4981F8B2006078E8
:10C8F00008B900BFFEE7042001F0EEFB4FF47A70A8
:10C9000005F0BCF9042001F0C9FB03E00120024955
:10C9100081F8B2001CBD000000B40020F8B5054647
:10C920000E4617462978687801EB0021301F8142B6
:10C9300000D0F8BDB01E81B2284600F0A1FF044629
:10C94000E21704EB12621312721EAA5C934209D121
:10C95000E21704EB12621212A4EB0223B21EAA5CCD
:10C96000934200D0E5E76A463946284600F068FC65
:10C9700000283DD09DF80000092837D2DFE800F0FC
:10C9800005363619122024292E002978687801EB03
:10C9900000201D38E62800DDCBE7F1B2284600F084
:10C9A000B5F924E0FCF7F2FE2946304601F0CEFD51
:10C9B0001DE0FCF7EBFE2946304601F0A5FC16E031
:10C9C000284600F003F912E03146284600F00CFB3F
:10C9D0000DE03146284600F0D9F908E005A0FEF741
:10C9E0002BFB3146284600F0A1FA00E000BF00BF53
:10C9F00000BF9EE7504C41545F524553504F4E5339
:10CA0000455F52455345540070B596B0044640F218
:10CA1000DC51E01D08AA0BABCDE90132CDE90301E1
:10CA200005A80AAB0CAA09A9009015A8FCF7A7FF56
:10CA3000BDF828201E210DA8FDF7CDF9C5B26078FC
:10CA40002A460DA904F03AFF1B48FBF746FC0646B0
:10CA5000324619490798FBF754FC38B90B98C1784E
:10CA6000007901EB0020012800D1A0711348FBF7E9
:10CA700034FC0646324611490798FBF742FC08B9D8
:10CA8000012020710E48FBF728FC064632460C496F
:10CA90000798FBF736FC38B90B98C178007901EBA1
:10CAA0000020012800D16071DDE9072081B20B98D8
:10CAB000FFF734FF16B070BD1D0300208702002071
:10CAC0004403002070B50546002600244FF4A8500A
:10CAD000FEF702FA00F0F00404F0F0014FF4A85061
:10CAE000FEF752FA4FF4B850FEF7F6F90446214625
:10CAF0004FF4B850FEF748FA04F00100F8B10020F6
:10CB000068704FF40270FEF7E7F900F01F04214649
:10CB10004FF40270FEF738FA04F0040078B10020F8
:10CB200002F0B8FB06460EB9002070BD254A40F25F
:10CB3000DC51E81DFCF7E2FF28700120F5E704F066
:10CB4000020002281FD1012068704FF40A70FEF71E
:10CB5000C3F900F01F0421464FF40A70FEF714FADF
:10CB600004F0040060B3012002F094FB06460EB905
:10CB70000020DAE7144A40F2DC51E81DFCF7BEFF62
:10CB800028700120D1E704F00400042818D1022005
:10CB900068704FF41270FEF79FF900F01F042146F1
:10CBA0004FF41270FEF7F0F904F0040030B10220E7
:10CBB00002F070FB06460EB90020B6E70120B4E78C
:10CBC0000020B2E70B1801081D18010830B58DB020
:10CBD000044600200B9006901422414901A8FBF75F
:10CBE00046FBB4F80F000B90E01CFFF787FD8A208E
:10CBF0008DF806000020ADF807003A480168CDF82E
:10CC000009108088ADF80D00374800680490364858
:10CC10000068401C34490860D4F80B000690B4F852
:10CC20000F000B9001208DF80F00002341F2883295
:10CC30000121022004F02AFD0546022D02D0002029
:10CC40008DF80F00BDF82C2006A9022002F0B2F8E2
:10CC50000546012D02D000208DF80F000021234849
:10CC6000FDF7EFFE4FF4165007900020ADF82000BE
:10CC7000ADF82200ADF82400ADF828000C20ADF886
:10CC8000260007A91948FDF741FF01211748FDF7C4
:10CC9000D8FE322004F0F2FF9DF804209DF8050034
:10CCA00002EB0020801C81B201A800F0E9FD0C908D
:10CCB000BDF83000ADF814009DF804109DF8050093
:10CCC00001EB0020031D01AA09A1002002F010FEC3
:10CCD0004FF4FA7004F0D2FF02F0ECFD0DB030BD5D
:10CCE00010400108CCB400206C0300200048004034
:10CCF0002F696F745F676174657761792F626C6506
:10CD00007570646174652F61636B000030B5024615
:10CD10005A231D4C24681C4DED8863551A4BDB8843
:10CD20005B1C9BB2184CE380A488A34202DB002367
:10CD3000154CE380144B5B895B1C134C6381002012
:10CD40001EE0114B5B89104CA488A34216DA135CD9
:10CD50000D4C24680C4DED8863550B4BDB885B1C38
:10CD60009BB2094CE380A488A34202DB0023064C5B
:10CD7000E380054B5B895B1C034C6381431CD8B289
:10CD80008842DEDB30BD0000F48B00202DE9F04747
:10CD9000044689464FF00008607A142804D8607A67
:10CDA0000A30205C322801D9BDE8F0875048D4F819
:10CDB00003100160B4F80710A0F84A10627A04F179
:10CDC0000A01001DFBF753FA607A0A30225C607A90
:10CDD0000B30011946481830FBF749FA0021627AF6
:10CDE0004348001D8154607A0A30225C4048183064
:10CDF000815404223F491838FBF776FA90BB3E482D
:10CE0000FBF76BFA05462A463B493948001DFBF7FC
:10CE100078FA38BB3648001DFBF75FFA05462A460C
:10CE200035493348001DFBF76CFAD8B93348FBF796
:10CE300054FA05462A4631492D481830FBF761FA65
:10CE400080B92B481830FBF748FA05462A462B498B
:10CE500027481830FBF755FA20B9FF20244981F8FC
:10CE60004C0004E0FFE7CF20214981F84C00FCF79B
:10CE700013FB3520FCF794FA2148FCF797FA80461B
:10CE80001F4E002513E01A4911F815706800401C68
:10CE9000085C47EA002739463046FCF7DDFA804651
:10CEA000B8F1040F00D004E0B61C681CC5B25A2DBE
:10CEB000E9DB00BFB8F1040F16D102F0FBFC4FF420
:10CEC0007A7004F0DBFE00BFBFF34F8F0D4800689F
:10CED00000F4E0600C490843001D0A490860BFF3F4
:10CEE0004F8F00BF00BFFEE7FCF7A0FA00BF5BE773
:10CEF00000B40020E3030020B8030020C203002098
:10CF000000FE07080CED00E00000FA0505480649A0
:10CF100008604FF420508880002048810881C88034
:10CF200070470000008C0020F48B002030B587B0E3
:10CF300004460D46142223496846FBF798F9E07829
:10CF4000012802D1A078B42801D007B030BD01205B
:10CF500005900020ADF803001B480168CDF80510CE
:10CF60008088ADF809009DF814008DF80B00A81F0B
:10CF70002044006803909DF800209DF8010002EB1A
:10CF80000020801C81B2684600F07AFC0690BDF853
:10CF90001800ADF810009DF800109DF8010001EB9D
:10CFA0000020031D6A4609A1002002F0A1FC4FF4F5
:10CFB0007A7004F063FE4FF480710A48FCF78BFB33
:10CFC00000BFC2E72C400108CCB400202F696F7469
:10CFD0005F676174657761792F72657365742F611E
:10CFE000636B0000000C014030B5ADF5097D0446CF
:10CFF0000D464FF4007107A8FBF752F9162101A85E
:10D00000FBF74EF94E4800680090B5F5007F02DD51
:10D010000DF5097D30BDA5F1200080B287901B225F
:10D02000214607A8FBF723F9BDF81C02ADF837002D
:10D0300001208DF83900A5F1210204F11B010DF149
:10D040003A00FBF714F9A5F11E0081B20DF137008B
:10D0500000F016FC8890E81E07A90844BDF82012CD
:10D060000180BDF81C02203007A90144A81F2044FC
:10D07000006808602178607801EB0020401D80B2D4
:10D080008790BDF81C02ADF81C009DF81C209DF88F
:10D090001D0002EB0020801C81B207A800F0F0FB0D
:10D0A00088909DF81C109DF81D0001EB0020801C4D
:10D0B00007A90844BDF820120180D4F80B00CDF870
:10D0C0000300D4F80F00CDF80700D4F81300CDF812
:10D0D0000B00D4F81700CDF80F0003208DF81300D3
:10D0E000A81F2044006805909DF800209DF80100CD
:10D0F00002EB0020801C81B2684600F0C1FB8890E2
:10D10000BDF82002ADF818009DF800209DF8011030
:10D1100002EB01210B1D0B4991F8B3006A460AA1ED
:10D1200002F0E6FB9DF81C209DF81D0002EB00209C
:10D13000001DC1B207A8FFF7E9FD00BF68E70000C6
:10D140002840010800B400202F696F745F67617484
:10D15000657761792F757365725F696E666F2F6190
:10D16000636B000013B58AB004462A480068089033
:10D1700014222849091D03A8FBF779F854208DF8DB
:10D180000E002068CDF80F00A088ADF81300002035
:10D19000ADF815009DF82C008DF817001E480068AA
:10D1A00006901D480068401C1B4908609DF80C2033
:10D1B0009DF80D0002EB0020801C81B203A800F056
:10D1C0005FFB0990BDF82400ADF81C009DF80C2011
:10D1D0009DF80D1002EB01210B1D104991F8B300D1
:10D1E00003AA0FA102F084FB9DF82C0005280FDA9A
:10D1F0009DF82C008DF8210008A801214FF4FB7345
:10D200000222CDE900100DF10F011046FCF720F8C5
:10D210000CB010BD5C4001088803002000B4002061
:10D220002F62726163656C65742F7265706F7274C2
:10D230002F62726163656C65745F696E666F000072
:10D2400070B506460D46144624A12846FBF733F870
:10D2500018B100202070012070BD23A12846FBF7E3
:10D260002AF818B1022020700120F5E723A12846F2
:10D27000FBF721F818B1052020700120ECE722A16E
:10D280002846FBF718F818B1042020700120E3E7C6
:10D2900021A12846FBF70FF818B1032020700120C8
:10D2A000DAE722A12846FBF706F818B1062020701D
:10D2B0000120D1E721A12846FAF7FDFF18B1072088
:10D2C00020700120C8E721A12846FAF7F4FF18B121
:10D2D000082020700120BFE70020BDE72F6E6F748B
:10D2E0006963652F736D73002F6D616E6167656D86
:10D2F000656E742F626561636F6E00002F757064D8
:10D300006174652F626C65002F7570646174652FA0
:10D3100067617465776179002F7570646174652F3A
:10D3200062726163656C6574000000002F7573653F
:10D33000725F696E666F2F73657400002F64657687
:10D34000636667706172612F736574002F72657315
:10D3500065742F67617465776179000013B58AB0D1
:10D360000446152103A8FAF79BFF244800680290A1
:10D37000684601F0FBFF52208DF80A002068CDF8C6
:10D380000B00A088ADF80F000020ADF811009DF84B
:10D390002C008DF8130000980590BDF80400ADF83E
:10D3A00018009DF806008DF81A0015480068CDF8A1
:10D3B0001B0013480068401C114908609DF80820B4
:10D3C0009DF8090002EB0020801C81B202A800F049
:10D3D00057FA0990BDF82400ADF81F009DF8082009
:10D3E0009DF8091002EB01210B1D064991F8B300CD
:10D3F00002AA05A102F07CFA0CB010BD5040010851
:10D400008003002000B400202F62726163656C65A8
:10D41000742F7265706F72742F68656172747261B7
:10D4200074655F64617461002DE9FF4F95B08146BA
:10D430000C469A460020119012904C4800681090BB
:10D440002A2105A8FAF72CFF4848001D006804901F
:10D4500002A801F08BFF53208DF81200DAF80000CB
:10D46000CDF81300DAF80400CDF817000020ADF86D
:10D470001B003F480168CDF81D108088ADF82100E1
:10D48000D9F80000CDF82300B9F80400ADF8270062
:10D490000020ADF8290020788DF82B00D4F8070083
:10D4A0000B909DF85C008DF830000298CDF83100AB
:10D4B000BDF80C00ADF835009DF80E008DF8370072
:10D4C0002C4800680E902B480068401C29490860D1
:10D4D0009DF810209DF8110002EB0020801C81B205
:10D4E00004A800F0CDF91390BDF84C00ADF83C0055
:10D4F0009DF810209DF8111002EB01210B1D1C4915
:10D50000CC3991F8B30004AA1BA102F0F1F99DF8FF
:10D510005C00FBF78DF88346FBF78FF80746002287
:10D520001C4BFBF716F81C4A1C4BCDE90001FAF71F
:10D530009EFF05464FF06632194BFBF791F811D26A
:10D54000E0798DF844009DF85C008DF8410010A84A
:10D5500001214FF4FB730222CDE9001011A9032031
:10D56000FBF776FE19B0BDE8F08F000054400108CB
:10D57000CCB40020840300202F62726163656C6567
:10D58000742F7265706F72742F6C6F636174696F42
:10D590006E00000000007040CDCCCCCCCCCC0C4058
:10D5A00066660240F0B5CBB0002400264FF49671B9
:10D5B0006846FAF775FE20E048480068474909893F
:10D5C000425C2046611C8CB20DF800204348008963
:10D5D000401C80B2414908818988884202DB0020D2
:10D5E0003E4908813D484089401E3C494881601EB3
:10D5F0001DF800005A2800D103E03848408900286F
:10D60000DADC00BF3548408908B94BB0F0BD4FF4B3
:10D6100096716846FAF744FE002419E02F48006826
:10D620002E490989405C0DF804002C480089401CF3
:10D6300080B22A4908818988884202DB0020274974
:10D64000088126484089401E24494881601C84B2D4
:10D65000022CE3DB9DF800109DF8010001EB002097
:10D6600086B2B6F5967F00DDCFE700241AE01B48AE
:10D6700000681A490989415CA01C0DF80010174880
:10D680000089401C80B2154908818988884202DBE4
:10D6900000201249088111484089401E0F494881E5
:10D6A000601C84B2B01C8442E1DB81B2684600F0A9
:10D6B000E7F805462846EA1705EB12621212A5EBB9
:10D6C0000223B21C1DF80220934200D12946301DCE
:10D6D00081B26846FFF74CF800BF96E7F48B002054
:10D6E00030B58BB004460D461A2103A8FAF7D8FDD1
:10D6F000254800680290684601F038FE55208DF8F4
:10D700000A002068CDF80B00A088ADF80F000020BB
:10D71000ADF811002868CDF81300A888ADF81700FF
:10D720000098CDF81900BDF80400ADF81D009DF873
:10D7300006008DF81F00154800680890134800681F
:10D74000401C124908609DF808209DF8090002EB72
:10D750000020801C81B202A800F092F80A90BDF867
:10D760002800ADF824009DF808209DF8091002EB70
:10D7700001210B1D064991F8B30002AA05A102F090
:10D78000B7F80BB030BD0000484001087803002016
:10D7900000B400202F62726163656C65742F72653E
:10D7A000706F72742F736C6565705F646174610073
:10D7B00030B58BB004460D461A2103A8FAF770FD68
:10D7C000254800680290684601F0D0FD51208DF890
:10D7D0000A002068CDF80B00A088ADF80F000020EB
:10D7E000ADF811002868CDF81300A888ADF817002F
:10D7F0000098CDF81900BDF80400ADF81D009DF8A3
:10D8000006008DF81F00154800680890134800684E
:10D81000401C124908609DF808209DF8090002EBA1
:10D820000020801C81B202A800F02AF80A90BDF8FE
:10D830002800ADF824009DF808209DF8091002EB9F
:10D8400001210B1D064991F8B30002AA05A102F0BF
:10D850004FF80BB030BD00004040010870030020BD
:10D8600000B400202F62726163656C65742F72656D
:10D87000706F72742F73706F72745F646174610083
:10D8800070B502460C46FF25FF2309E012F8010B94
:10D8900080EA03010648405C80EA05030548455CD0
:10D8A000201EA4F10106B4B2F0D143EA052070BDF8
:10D8B000103E0108103F010810B5A2B0002405E099
:10D8C000642094FBF0F100FB1140C4B22046621CBE
:10D8D000D4B209AA8118002001F042FA0028EFD141
:10D8E00009A908551CA109A8FAF7E5FC002831D0C0
:10D8F0001B4890F8D20001282CD1194890F8DD007F
:10D90000174991F8DC10164A92F8DB20144B93F873
:10D91000DA30CDE90532CDE90710114890F8D90089
:10D920000F4991F8D82091F8D1100D4B93F8D030D1
:10D93000CDE90131CDE90320094890F8CF000090EE
:10D94000074890F8CE3090F8CD2090F8CC1005A084
:10D95000FDF772FB22B010BD49443D3F00000000BE
:10D9600000B4002049443D30303030253032582555
:10D97000303258253032582530325825303258252B
:10D980003032583A30303030253032582530325825
:10D99000253032582530325825303258253032580B
:10D9A0003A0D0A0010B5094890F8B30030B90320C9
:10D9B00000F074FB022000F08FFB05E0022000F075
:10D9C0006DFB032000F088FB10BD000000B40020B8
:10D9D00038B50446002502E0FBF744F90546042D5E
:10D9E000FAD1204603F00AFFBCB91748174B40F2A2
:10D9F0005B7217490090002001F0E0FE10B340F682
:10DA0000B83004F03BF900F08FF9124890F8B300F9
:10DA1000C0B9002000F078F914E0012C12D10D48B3
:10DA2000183000901838B0F84A20031D0146012034
:10DA300001F0C4FE30B14FF47A7004F01FF90120F8
:10DA400000F062F938BD0000C2030020B8030020D6
:10DA5000E303002000B4002010B50C4890F8B30098
:10DA600048B9032000F01AFB042000F017FB022045
:10DA700000F050FB08E0022000F010FB042000F052
:10DA80000DFB032000F046FB10BD000000B4002099
:10DA900070B5ADF5347D00242021A6A8FAF700FC6E
:10DAA00020219EA8FAF7FCFB202196A8FAF7F8FBA4
:10DAB0004FF4FA7119A8FAF7F3FB1822534913A887
:10DAC000FAF7D5FB5248456A1422504918310EA87E
:10DAD000FAF7CDFB002009E00EA951F820102940EB
