:020000040800F2
:10000000A81D0020B92C00089D0300089F030008CC
:10001000B3030008B7030008BB030008000000009A
:10002000000000000000000000000000BF03000806
:10003000C103000800000000C3030008C503000856
:10004000D32C0008D32C0008D32C0008D32C000894
:10005000D32C0008D32C0008D32C0008D32C000884
:10006000D32C0008D32C0008D32C0008D32C000874
:10007000D32C0008D32C0008D32C0008D32C000864
:10008000D32C0008D32C0008D32C0008D32C000854
:10009000D32C0008D32C0008D32C0008D32C000844
:1000A000D32C0008D32C0008D32C0008D32C000834
:1000B000D32C0008D32C0008D32C0008D32C000824
:1000C000D32C0008D32C0008D32C0008D32C000814
:1000D000D32C0008D31A0008D32C0008D32C000816
:1000E000D32C0008D32C0008D32C0008D32C0008F4
:1000F000D32C0008D32C0008D32C0008D32C0008E4
:10010000D32C0008D32C0008D32C0008D32C0008D3
:10011000DD1A0008D32C0008D32C0008D32C0008CB
:10012000D32C0008D32C0008D32C0008D32C0008B3
:10013000DFF80CD002F0DCFE00480047BB010008ED
:10014000A81D002008B5012144F2040002F09EF928
:100150004FF40070ADF8000018208DF80300032064
:100160008DF8020069466A4802F054FA4FF4806044
:10017000ADF8000004208DF803006946644802F0E1
:1001800049FA08BD1FB54FF4E13000900020ADF8EA
:100190000400ADF80600ADF80800ADF80C000C2026
:1001A000ADF80A00FFF7CEFF69465A4802F0C3FBDC
:1001B0000121584802F04BFC1FBD08B54FF0FF303D
:1001C000009000BF002400BF01F033FDFFF7DAFF0D
:1001D00001F0D5FA042269464F4801F065F918B9D3
:1001E0004EA000F0DBFD02E054A000F0D7FD009827
:1001F000401C002840D058A000F0D0FD009800F02E
:100200004AFE0646352001F0AFFF002506E05749BB
:100210000A1402FB051001F051FD6D1CB542F6D326
:10022000002409E0524A2244B2F800184F4AA018AC
:1002300001F047FEA01C84B200988442F2D301F082
:1002400004FD4A4800684B490840B0F1005F2AD1DC
:1002500049A000F0A3FD454840684D4908600846A4
:1002600000684C4908604149086880F3088800BF6D
:1002700048480068804716E03C4800683D4908400F
:10028000B0F1005F0FD13948406841490860084625
:100290000068404908603549086880F3088800BF55
:1002A0003C480068804700BFFEE708B501210820F0
:1002B00002F0ECF84FF47070ADF8000010208DF8EB
:1002C000030003208DF802006946334802F0A2F9CA
:1002D0004FF47071304802F04AFA08BD08B50121A8
:1002E000042002F0D3F848208DF803000120ADF877
:1002F00000006946064802F08DF908BD01B502E02C
:100300000098401E009000980028F9D108BD000018
:10031000000801400038014000F007080D0A456E52
:1003200074657220426F6F746C6F616465722053E4
:10033000756365737366756C0D0A00000D0A456E72
:1003400074657220426F6F746C6F616465722046D1
:1003500061696C0D0A0000000D0A52656164792024
:10036000746F207570646174650D0A000080000868
:10037000003004080000FE2F656E746572207573EE
:1003800065722050726F6772616D0D0A0000000087
:100390001C00002018000020000C014070470AA03B
:1003A00000F0FCFC04E04FF470710B4802F0E1F93E
:1003B000F9E700BFFEE700BFFEE700BFFEE77047BA
:1003C00070477047704700004552524F522121211B
:1003D0002121200A0D000000000C014010B500246E
:1003E0000DA000F0DBFC00F0F3FC43280FD14FF42C
:1003F000603217A11C4800F0CFFA04461CB11BA0C4
:1004000000F0CCFC06E024A000F0C8FC02E02BA029
:1004100000F0C4FC10BD00000A0A0D53656C656352
:100420007420526563656976652046696C65202E87
:100430002E2E2028707265737320616E79206B6593
:100440007920746F2061626F7274290A0D000000B8
:1004500055706C6F61646564466C617368496D6169
:1004600067652E62696E0000008000080A0D457203
:10047000726F72204F636375726564207768696C70
:1004800065205472616E736D697474696E6720467D
:10049000696C650A0D0000000A0D46696C65205400
:1004A0007261736D697474656420537563636573F9
:1004B0007366756C6C79200A0D0000000D0A0A4104
:1004C000626F7274656420627920757365722E0A9A
:1004D0000D00000070B505460C4606E0284600F009
:1004E00068FC012801D1002070BD201EA4F1010488
:1004F000F4D1401EF8E710B50446204600F040FC59
:10050000002010BD2DE9F84304460D46904600201A
:10051000286041466846FFF7DDFF18B14FF0FF3015
:10052000BDE8F8839DF80000182813D006DC0128E8
:1005300009D0022809D0042820D109E041281AD086
:1005400061281BD118E080271BE04FF4806718E07A
:100550000020E5E741466846FFF7BCFF40B99DF83B
:100560000000182804D14FF0FF3028600020D7E7A2
:100570004FF0FF30D4E700BF0120D1E74FF0FF304C
:10058000CEE700BF9DF800002070012609E0A01909
:100590004146FFF79FFF10B14FF0FF30C0E7701CDE
:1005A00086B2781D8642F2DB6178A07880F0FF0089
:1005B000814202D04FF0FF30B2E72F600020AFE75A
:1005C0002DE9F04FADF22C4D064600200190F84881
:1005D000F84908604FF0000B4FF0000A002002902D
:1005E00000BF002700200390B04600BF4FF48012E8
:1005F00004A909A8FFF786FF10B101287ED1D1E038
:100600004FF0000A0498B0F1FF3F01D070B907E045
:100610000620FFF770FF00200DF22C4DBDE8F08F93
:100620000620FFF768FF01200390B9E09DF8250040
:10063000F9B2884203D01520FFF75DFFAFE0002F2D
:100640006ED19DF82700002863D000250DF1270406
:1006500005E014F8012B28466D1CD7490A54207870
:1006600008B1FF2DF5DD002228466D1CD2490A5441
:100670000025641C05E014F8012B28466D1C05A913
:100680000A542078202801D0102DF4DB00222846BF
:100690006D1C05A90A5401A905A800F0EFFA0198FC
:1006A000B0F5802F08DB1820FFF725FF1820FFF793
:1006B00022FF4FF0FF30AFE7019800F0ECFBBF499D
:1006C00008600020BE49086010E0BA490968BD4AC8
:1006D0001288BB4B1B6802FB031001F0EFFABA490A
:1006E0000870B7480068401CB5490860B448006805
:1006F000B2490968884205D2B34800E05BE000785F
:100700000428E2D00620FFF7F6FE4320FFF7F3FEB1
:1007100042E00620FFF7EFFE0120039083463FE012
:100720000DF127014046049A02F0C8FBA748066075
:100730004FF0000923E0A548006801689D48006863
:1007400001F08CFB9B4800680068A04909680968B3
:10075000884208D01820FFF7CEFE1820FFF7CBFE06
:100760006FF0010058E793480068001D9149086048
:1007700096480068001D9549086009F1040904982D
:10078000814506DA8A49019808448A4909688842FD
:10079000D1D80620FFF7AFFE7F1C0120029000BFDA
:1007A00000BF1CE01820FFF7A6FE1820FFF7A3FEED
:1007B0006FF0020030E70298002801DD0AF1010A1B
:1007C000BAF1050F07DD1820FFF795FE1820FFF797
:1007D00092FE002020E74320FFF78DFE00BF00BF00
:1007E000039800283FF402AF00BF00BFBBF1000F29
:1007F0003FF4F7AE00BF00BF01980DE701460020AF
:1008000070472DE9FE4305460F46904601202870AB
:1008100000206870FF20A870002404E0395DE01C0F
:100820002954601C84B2385D08B1FF2CF6DD00212C
:10083000E01C29546846D8F8001000F0F5F90026AD
:10084000201D84B208E03046711C8EB21DF80020D5
:100850002046611C8CB22A541DF806000028F2D1F3
:10086000264603E00020A855701C86B2832EF9DBD3
:10087000BDE8FE83F0B5074614461D46B5F5806F0A
:1008800002D34FF4806C01E04FF0800C63469D4230
:1008900001D2AC4600E09C461FFA8CF2B3F5806FA3
:1008A00004D14FF0020C81F800C003E04FF0010CBE
:1008B00081F800C04C706FEA040C81F802C03E461B
:1008C000032007E016F801CB01F800C000F1010C8D
:1008D0001FFA8CF002F1030C6045F3DB9A420EDC48
:1008E0001FFA8CF007E04FF01A0C01F800C000F17D
:1008F000010C1FFA8CF003F1030C6045F3DBF0BD33
:1009000010B503460C46194644F4807200BF4900F6
:10091000520002F4807000B1491C01F4803010B123
:1009200041F22100414002F480300028EFD088B22B
:1009300010BDF0B505460E460024AF1905E015F8C8
:10094000011BA0B2FFF7DCFF0446BD42F7D3A0B203
:100950000021FFF7D5FF044620460021FFF7D0FF16
:1009600004462046F0BD30B502460023541802E08C
:1009700012F8015B2B44A242FAD3D8B230BD70B555
:1009800005460E46002404E0285DFFF7B4FD601C18
:1009900084B2B442F8DB70BD2DE9F74FADF5A36D1D
:1009A00000200190814600248046002617E00000C8
:1009B0000080000800000020580000200C000020EB
:1009C0000800002004000020100000201400002077
:1009D000DDF81C05805D04A98855701CC6B2FF2E89
:1009E000F6DB012001900DF5A46204A944A8FFF7ED
:1009F00008FF00BF832144A8FFF7C1FF019860B141
:100A000080210DF21310FFF794FF05462812FFF71F
:100A100072FDE8B2FFF76FFD08E080210DF21310C0
:100A2000FFF7A1FF03900398FFF765FD42F21071F5
:100A300002A8FFF74FFD30B99DF80800062803D142
:100A40004FF0010800E0641CB8F1000F01D10A2C3E
:100A5000D0D30A2C04D3E0B20DF2245DBDE8F08FB0
:100A6000DDF818A5DDF820954FF0010B59E00BF0EB
:100A7000FF024B4644A95046FFF7FCFE4FF000082A
:100A800000208DF80800002400BFB9F5806F02D364
:100A90004FF4806700E08027F81C81B244A8FFF77C
:100AA0006EFF019860B139460DF21310FFF741FF58
:100AB00005462812FFF71FFDE8B2FFF71CFD08E00E
:100AC00039460DF21310FFF74EFF03900398FFF71E
:100AD00012FD544902A8FFF7FDFCC0B99DF80800BB
:100AE000062814D14FF00108B9450CD9BA44A9EB36
:100AF0000709BBF1E00F01D1FF20ADE70BF10100C9
:100B00001FFA80FB04E0BA444FF0000900E0641CC7
:100B1000B8F1000F01D10A2CB7D30A2C01D3E0B2EF
:100B20009AE7B9F1000FA2D14FF0000800208DF82C
:100B30000800002400BF0420FFF7DDFC42F2107122
:100B400002A8FFF7C7FC30B99DF80800062802D1BB
:100B50004FF0010800E0641CB8F1000F01D10A2C2D
:100B6000E9D30A2C01D3E0B276E74FF00008002069
:100B70008DF80800002401208DF8100100208DF868
:100B80001101FF208DF81201032604E0002044A982
:100B90008855701CC6B2832EF8DB00BF832144A8A1
:100BA000FFF7EDFE80210DF21310FFF7C2FE0546A0
:100BB0002812FFF7A0FCE8B2FFF79DFC42F210718B
:100BC00002A8FFF787FC30B99DF80800062803D17A
:100BD0004FF0010800E0641CB8F1000F01D10A2CAD
:100BE000DCD30A2C01D3E0B236E700BF0420FFF7C4
:100BF00082FC42F2107102A8FFF76CFC30B99DF83C
:100C00000800062802D14FF0010800E0641CB8F18A
:100C1000000F01D10A2CE9D30A2C01D3E0B21BE763
:100C2000002019E7A0860100F0B5EF4A0025002456
:100C3000002320E0B1FBF2F6303606F0FF0C2E4622
:100C40006D1C00F806C0B1FBF2F602FB16110A2675
:100C5000B2FBF6F26E1E865D302E01D1012600E059
:100C600000260CB9012700E000273E400EB1002508
:100C700000E0641C5B1C0A2BDCD3F0BD70B502469F
:100C80000C460021002500231078302843D15078ED
:100C9000782802D0507858283DD1907808B90020A3
:100CA00070BD022130E0505C10B9236001252DE0B9
:100CB000505C412802DB505C46280BDD505C61280B
:100CC00002DB505C662805DD505C302819DB505C87
:100CD000392816DC505C302805DB505C392802DCF2
:100CE000505C30380AE0505C412805DB505C4628F7
:100CF00002DC505C373801E0505C573800EB0313DE
:100D000001E0002502E0491C0B29CCD300BF0B29D0
:100D100034D3002532E000212AE0505C10B9236072
:100D2000012527E0505C6B2802D0505C4B2804D191
:100D300019B19B02236001251CE0505C6D2802D094
:100D4000505C4D2804D119B11B052360012511E029
:100D5000505C302809DB505C392806DC505C3038A8
:100D600003EB830600EB460301E0002502E0491C8B
:100D70000B29D2D300BF0B2900D3002528468FE7CB
:100D800010B504462146994801F0CEFE00BF8021EF
:100D9000964801F037FF0028F9D010BD10B5044681
:100DA00003E02078FFF7ECFF641C20780028F8D1DE
:100DB00010BD10B5044620218C4801F023FF28B156
:100DC0008A48001D00882070012010BD0020FCE72B
:100DD00008B50020009004E06846FFF7EAFF00B184
:100DE00000E0F9E700BF9DF8000008BD70B50646B9
:100DF0000025002400BFFFF7EBFF04460D2C00D1B7
:100E00001AE0082C05D11DB179A0FFF7C7FF6D1EB0
:100E100011E0802D04D377A0FFF7C0FF00250AE082
:100E2000202C07DB7E2C05DC28466D1C3454204624
:100E3000FFF7A6FF00BFDEE700BF76A0FFF7AEFF1B
:100E40000020705570BD1FB5044623E06846FFF7CB
:100E5000CDFF9DF8000000B91CE09DF8000061285E
:100E600003D09DF80000412808D19DF8010028B961
:100E700069A0FFF793FF002004B010BD214668462B
:100E8000FFF7FCFE18B969A0FFF788FF01E0012019
:100E9000F2E700BFDAE701B500200099C1F30A02CA
:100EA0001AB1012202EBD12000E0C80A08BD2DE9E9
:100EB000F04700240025012602274FF004084FF0D8
:100EC000010901F022F905465E48006828405D49A5
:100ED0000968884255D001F014F904465948006861
:100EE00028435849086000F06EFF81465548006865
:100EF000401C28B153480068C04301F024F88146E3
:100F000004F00700072811D004F0010000B9002602
:100F100004F0020000B9002704F0040008B94FF003
:100F2000000842463946304601F0BFF8B9F1040FD7
:100F300023D145A0FFF732FF4B48FFF72FFF00BF3B
:100F400000BF00BF00BF00BFBFF34F8F00BF00BF97
:100F500000BF4648006800F4E06045490843001DB2
:100F60004249086000BF00BF00BFBFF34F8F00BF02
:100F700000BF00BF00BF00BFFDE73EA0FFF70EFFB0
:100F800002E047A0FFF70AFFBDE8F087002400BF9A
:100F900000BF4C480068A0F10060000B4A4908609F
:100FA000084600683E2808D208460178012088409B
:100FB000401EC0432349086003E04FF00040214930
:100FC00008601EE141A001F0A5FF50A001F0A2FFC2
:100FD0005E4801F09FFF5EA001F09CFF6C48006836
:100FE00000B1D7E0D9E0000000CA9A3B00380140C8
:100FF00008200800436F6D6D616E64207374726920
:101000006E672073697A65206F766572666C6F779C
:101010000D0A00000A0D0000557365722043616ED1
:1010200063656C6C6564200D0A0000004572726F88
:10103000722C20496E70757420616761696E3A2068
:101040000D0A000024000020577269746520507258
:101050006F74656374696F6E2064697361626C6537
:10106000642E2E2E0D0A0000AC2F00080CED00E0BF
:101070000000FA054572726F723A20466C6173681F
:1010800020777269746520756E70726F7465637411
:10109000696F6E206661696C65642E2E2E0D0A00E4
:1010A000466C617368206D656D6F7279206E6F7428
:1010B0002077726974652070726F746563746564FB
:1010C0000D0A000000000020200000200D0A3D3D18
:1010D0003D3D3D3D3D3D3D3D3D3D3D3D3D3D3D3D40
:1010E000204D61696E204D656E75203D3D3D3D3D55
:1010F0003D3D3D3D3D3D3D3D3D3D3D3D3D3D3D3D20
:101100003D3D3D3D3D3D3D0D0A0A00002020446F20
:10111000776E6C6F616420496D61676520546F2044
:101120007468652053544D33324631307820496E0F
:101130007465726E616C20466C617368202D2D2D74
:101140002D2D2D2D20310D0A0A000000642F0008DE
:1011500020204578656375746520546865204E6568
:10116000772050726F6772616D202D2D2D2D2D2DE2
:101170002D2D2D2D2D2D2D2D2D2D2D2D2D2D2D2D9F
:101180002D2D2D2D2D2D2D2D20330D0A0A00000083
:10119000280000201BA001F0BDFE2AA001F0BAFE2D
:1011A0003324312C02D100F0B3F82AE0322C02D1E2
:1011B000FFF714F925E0332C10D13248406832494A
:1011C000086008460068314908602E49086880F3C5
:1011D000088800BF2D480068804712E0342C06D1F3
:1011E0002B480068012802D1FFF761FE09E028487A
:1011F000006818B927A0FFF7D1FD02E034A0FFF77F
:10120000CDFDDFE6202044697361626C652074685F
:10121000652077726974652070726F746563746994
:101220006F6E202D2D2D2D2D2D2D2D2D2D2D2D2D78
:101230002D2D2D2D2D2D2D2D2D2D2D2D20340D0A27
:101240000A0000003D3D3D3D3D3D3D3D3D3D3D3DB8
:101250003D3D3D3D3D3D3D3D3D3D3D3D3D3D3D3DBE
:101260003D3D3D3D3D3D3D3D3D3D3D3D3D3D3D3DAE
:101270003D3D3D3D3D3D3D3D3D3D3D3D3D3D0D0A01
:101280000A000000008000081C0000201800002058
:1012900028000020496E76616C6964204E756D628D
:1012A00065722021203D3D3E20546865206E756D9D
:1012B0006265722073686F756C6420626520656971
:1012C0007468657220312C2032206F7220330D003B
:1012D000496E76616C6964204E756D62657220217D
:1012E000203D3D3E20546865206E756D626572201C
:1012F00073686F756C6420626520656974686572D7
:1013000020312C20322C2033206F7220340D00002D
:101310003EB51DA207CA8DE8070000241DA0FFF7F7
:101320003DFD2B48FFF74CF90446002C16DD2948FB
:10133000FFF734FD2848FFF731FD21466846FFF7E7
:1013400073FC26A0FFF72AFD6846FFF727FD26A0BD
:10135000FFF724FD27A0FFF721FD14E0601C18B95A
:101360002AA0FFF71BFD0EE0A01C18B937A0FFF75D
:1013700015FD08E0E01C18B93BA0FFF70FFD02E0E7
:101380003FA0FFF70BFD3EBD202020202020202085
:101390002020000057616974696E6720666F7220B3
:1013A0007468652066696C6520746F2062652073BF
:1013B000656E74202E2E2E20287072657373202780
:1013C000612720746F2061626F7274290A0D00001A
:1013D00058010020F82F0008580000200A0D205363
:1013E000697A653A200000002042797465730D0A1D
:1013F000000000002D2D2D2D2D2D2D2D2D2D2D2DD1
:101400002D2D2D2D2D2D2D0A000000000A0A0D5422
:10141000686520696D6167652073697A6520697305
:1014200020686967686572207468616E20746865F9
:1014300020616C6C6F776564207370616365206DEB
:10144000656D6F7279210A0D000000000A0A0D56C1
:101450006572696669636174696F6E206661696C43
:101460006564210A0D0000000D0A0A41626F727462
:10147000656420627920757365722E0A0D00000084
:101480000A0D4661696C656420746F20726563653E
:10149000697665207468652066696C65210A0D00AF
:1014A000002101460846704730B503469818484D5C
:1014B000A84201D9012030BD0AB90120FBE7002470
:1014C00004E013F8010B01F8010B641C9442F8D3FB
:1014D0000020F0E7F0B5034698183D4FB84201D917
:1014E0000320F0BD0AB90020FBE7012600240BE031
:1014F0001D780878A84204D0FF2D01D00220F0E723
:1015000000265B1C491C641C9442F1D3012E01D1BE
:101510000020E6E70120E4E72DE9F05F0746884672
:1015200014464FF0040938192949884202D901208C
:10153000BDE8F09F0CB90020FAE704F0010008B103
:101540000120F5E7224641463846FFF7C3FF06462D
:101550000EB90020ECE7012080F3108800BF00F0F6
:1015600068FB352000F000FE022E0BD13846FFF755
:1015700097FF834600F0A2FB8146B9F1040F01D02A
:101580000220D5E7002512E018F815A06800401CDD
:1015900018F800004AEA002A5146384600F091FC4B
:1015A0008146B9F1040F00D004E0BF1C6D1CB5EBFF
:1015B000540FE9D300BF00F048FB002080F31088EF
:1015C00000BFB9F1040F00D1B2E70220B0E700007C
:1015D0000000080808B525208DF8000001208DF8CE
:1015E000010000208DF8020001208DF803006846FC
:1015F00000F097FA34208DF8000001208DF80100EA
:1016000000208DF8020001208DF80300684600F0EC
:1016100088FA08BD00B585B00121052000F036FF2D
:101620000121880300F032FF4FF40070ADF8100084
:1016300018208DF8130003208DF8120004A9FA4831
:1016400000F0E8FF4FF48060ADF8100004208DF842
:10165000130004A9F44800F0DDFF4FF4E1300090DE
:101660000020ADF80400ADF80600ADF80800ADF8B4
:101670000C000C20ADF80A006946EC4801F05BF95B
:10168000012240F22551E94801F0EDF90121E74836
:1016900001F0DDF94021E54801F0C1FA01211120F6
:1016A00000F0F4FE0121C80400F0FDFE4FF480605C
:1016B000ADF8100018208DF8130003208DF81200EB
:1016C00004A9DB4800F0A6FF4FF40060ADF810005D
:1016D00004208DF8130004A9D54800F09BFF4FF4B7
:1016E000E13000900020ADF80400ADF80600ADF840
:1016F0000800ADF80C000C20ADF80A006946CD4892
:1017000001F019F9012240F22551CA4801F0ABF964
:101710000121C84801F09BF94021C64801F07FFA39
:1017200005B000BDC148C4490860C4484860C44809
:1017300088604FF4007088814010C88100200882C2
:101740004882C882088348838882C86108624862E8
:10175000B848BC490860BC484860BC4888604FF441
:10176000807088818000C881002008824882C882F9
:10177000088348838882C86108624862704710B550
:10178000FFF7D0FFFFF746FFFFF724FF10BD01462C
:1017900009B9A9487047012901D10020FAE70229B7
:1017A00001D10020F6E7032901D1A648F2E7042978
:1017B00001D10020EEE70020ECE7F8B504460E4624
:1017C000174600251DE008E0A08A0090A089BDF81A
:1017D0000010884200DD01E000BFF5E700BF705D4A
:1017E000228A61688854208A401C80B22082A189A4
:1017F000884201DB00202082A08A401CA082681C55
:1018000085B2BD42DFDB012240F22771206801F082
:101810002AF9F8BD2DE9F04105460E46174628463F
:10182000FFF7B5FF04460CB9BDE8F081E06908B1E7
:10183000E06980473A4631462046FFF7BEFF00BFC9
:10184000F2E713B50446012201A92046FFF7E2FFA3
:101850001CBD10B50246538B0BB9002010BD148B74
:101860009068005D0870108B401C80B21083D48992
:10187000A04201DB00201083508B401E50830120CA
:10188000ECE770B505460E462846FFF780FF044694
:101890000CB9002070BD31462046FFF7DAFFF9E7AA
:1018A00000B503461846FFF772FF024602B900BDB5
:1018B000002010825082908200BFF8E700B50346F6
:1018C0001846FFF764FF024602B900BD0020D0822F
:1018D0001083508300BFF8E71FB504460094002032
:1018E000ADF80400ADF80600ADF80800ADF80C0046
:1018F0000C20ADF80A006946554801F01CF81FBDE0
:101900001FB5044600940020ADF80400ADF80600B1
:10191000ADF80800ADF80C000C20ADF80A006946DF
:101920004B4801F008F81FBD08B50121082000F060
:10193000ADFD03208DF8020010208DF80300042077
:10194000ADF800006946434800F064FE08BD1FB5CD
:10195000044600940020ADF80400ADF80600ADF890
:101960000800ADF80C000C20ADF80A0069463A48B2
:1019700000F0E1FF1FBD04203649103108607047B8
:101980000420344914310860704770B504460D4690
:101990002A4621460220FFF73DFF70BD70B5044680
:1019A000204601F09DFA85B229462046FFF7EDFF5B
:1019B00070BD704770B5044640F22551206801F0B3
:1019C00037F9E0B1206801F0B3F8C5B2608BE18966
:1019D00088420EDAE18AA0684554E08A401C80B251
:1019E000E082E189884201DB0020E082608B401CBC
:1019F0006083606A10B12846616A884700BF40F280
:101A00002771206801F014F940B3A08A38BB002286
:101A100040F22771206801F026F8012240F2266189
:101A2000206801F020F853E0000801400038014030
:101A300000100140004C00405805002080050020A7
:101A40008007002080080020A8080020A8090020A6
:101A500000440040000C01400048004013E0FFE754
:101A6000638A6268D15C206801F05EF8608A401C7D
:101A700080B26082A189884201DB00206082A08A56
:101A8000401EA08224E040F22661206801F0D0F8D8
:101A9000F0B1A08A50B9002240F22661206800F01F
:101AA000E2FF206AA0B1206A804711E0638A626881
:101AB000D15C206801F038F8608A401C80B26082F6
:101AC000A189884201DB00206082A08A401EA0829A
:101AD00070BD10B50E48FFF76DFF10BD10B50D4875
:101AE000FFF768FF10BD70B504460D46E1B2002057
:101AF000FFF7A7FE204670BD38B5044600BF694613
:101B00000020FFF7BEFE0028F9D09DF8000038BD88
:101B1000580500208008002031490143314A1160F6
:101B2000704770B5002100230F22C47804B32D4CF8
:101B3000246804F4E064C4F5E064210AC1F10403FC
:101B4000CA40447804FA03F184781440214309011F
:101B5000254C0678A155047804F01F050124AC40FB
:101B600005786D11AD0005F1E025C5F8004109E0EB
:101B7000047804F01F050124AC401C4D0678761152
:101B800045F8264070BD1A4A0A400243154B1B1FF8
:101B90001A60704739B1134A121D12680243114B83
:101BA0001B1D1A6006E00F4A121D126882430D4B7E
:101BB0001B1D1A607047042808D14FF0E021096905
:101BC00041F004014FF0E022116107E04FF0E02105
:101BD000096921F004014FF0E02211617047000013
:101BE0000000FA050CED00E000E400E080E100E018
:101BF00080FFFF1F01460020FE4A106800F03800F9
:101C0000084310607047FB49096821F00801F94A50
:101C1000116011460968014311607047F549096870
:101C200021F01001F34A1160114609680143116067
:101C30007047F148EF494860F04848607047EE4807
:101C4000EC494860ED4848607047EA48006940F058
:101C50008000E84908617047E648006940F080006C
:101C6000E449086170470420E249C96801F00101B4
:101C700009B101200EE0DF49C96801F0040109B192
:101C8000022007E0DB49C96801F0100109B1032017
:101C900000E00420704700B502460423FFF7E3FF8D
:101CA000034603E0FFF7DFFF0346521E012B01D17D
:101CB000002AF7D102B90523184600BD30B5044605
:101CC00004254FF43020FFF7E6FF0546042D17D119
:101CD000C848006940F00200C649086108464461EE
:101CE000006940F0400008614FF43020FFF7D3FF57
:101CF0000546C048006941F6FD710840BD490861CC
:101D0000284630BD10B504244FF43020FFF7C3FF40
:101D10000446042C16D1B748006940F00400B549C8
:101D200008610846006940F0400008614FF4302027
:101D3000FFF7B1FF0446AF48006941F6FB71084068
:101D4000AC490861204610BD00B502460423FFF7E8
:101D50008AFF034603E0FFF786FF0346521E012B6E
:101D600001D1002AF7D102B90523184600BD10B5EC
:101D700004244FF43020FFF7E7FF0446042C16D16B
:101D80009C48006940F004009A49086108460069CF
:101D900040F0400008614FF43020FFF7D5FF0446C3
:101DA0009448006941F6FB71084092490861204659
:101DB00010BD00208F49C96901F0020109B101205D
:101DC00000E00020704730B5A5250424FFF7F1FF9F
:101DD00000B100254FF43020FFF75DFF0446042CCE
:101DE0003AD18548834988608448886008460069FC
:101DF00040F0200008610846006940F0400008619A
:101E00004FF43020FFF747FF0446042C1BD17948DC
:101E1000006941F6DF7108407649086108460069AB
:101E200040F01000086176480580E002FFF733FFBC
:101E30000446052C10D06F48006941F6EF71084048
:101E40006C49086108E0052C06D06A48006941F633
:101E5000EF71084067490861204630BD78B50646F5
:101E60000C46042500200090E802FFF714FF054609
:101E7000042D24D15F48006940F001005D490861EC
:101E80003480E802FFF707FF0546042D10D1B01C8F
:101E90000090200C00990880E802FFF7FCFE054640
:101EA0005448006941F6FE7108405249086106E055
:101EB0005048006941F6FE7108404E4908612846C5
:101EC00078BD70B504460D460426F002FFF7E3FE28
:101ED0000646042E11D14748006940F001004549EB
:101EE00008612580F002FFF7D6FE064641480069EA
:101EF00041F6FE7108403F490861304670BD70B53B
:101F000005460E460424E002FFF7C5FE0446042CF5
:101F100017D13948374988603848886008460069D1
:101F200040F0100008612E80E002FFF7B4FE044686
:101F3000052C06D02F48006941F6EF7108402D4965
:101F40000861204670BD2DE9F04304464FF6FF7648
:101F50003746B046B1460425E443E6B2C4F307274A
:101F6000C4F307484FEA1469E802FFF794FE0546F8
:101F7000042D49D120481F498860204888600846C0
:101F8000006940F010000861FF2E06D01C480830A0
:101F90000680E802FFF77FFE0546042D08D1FF2FDB
:101FA00006D017480A300780E802FFF774FE05469E
:101FB000042D0AD1B8F1FF0F07D011480C30A0F85A
:101FC0000080E802FFF767FE0546042D0AD1B9F14B
:101FD000FF0F07D00A480E30A0F80090E802FFF784
:101FE0005AFE0546052D0FD00248006941F6EF71F3
:101FF000084007E00020024023016745AB89EFCD90
:1020000000F8FF1F664908612846BDE8F08330B537
:10201000054604244FF43020FFF73DFE0446042C0F
:1020200041D160485E4988605F4888600846006921
:1020300040F0200008610846006940F04000086157
:102040004FF43020FFF727FE0446042C22D15448D9
:10205000006941F6DF71084051490861084600698E
:1020600040F0100008611DB100205049088002E0D6
:10207000A5204E4908804FF43020FFF70CFE04469F
:10208000052C10D04648006941F6EF7108404449DC
:10209000086108E0052C06D04148006941F6DF716F
:1020A00008403F490861204630BDF0B505460E4660
:1020B000174604243B483A4988603B488860E00260
:1020C000FFF7E9FD0446042C19D13548006940F0BA
:1020D00010003349086147F0F80030432843334982
:1020E000891C0880E002FFF7D6FD0446052C06D0C7
:1020F0002B48006941F6EF710840294908612046E4
:10210000F0BD2748C069800870472548006A7047BD
:1021100000202349096801F0200109B1012000E0F5
:102120000020704729B11E4A126902431C4B1A61F4
:1021300004E01B4A12698243194B1A617047014639
:102140000020012908D1164AD26902F001020AB121
:10215000012008E0002006E0114AD2680A400AB1D6
:10216000012000E0002070470D49C860704704203E
:102170000B49C96801F0010109B101200EE00849CD
:10218000C96801F0040109B1022007E00449C968E7
:1021900001F0100109B1032000E0042070470000A5
:1021A0000020024023016745AB89EFCD00F8FF1FF7
:1021B000DF48006840F00100DD49086008464068DB
:1021C000DC490840DA49486008460068DA490840B6
:1021D000D74908600846006820F480200860084657
:1021E000406820F4FE0048604FF41F00886070478C
:1021F000CF49096821F48031CD4A11601146096840
:1022000021F480211160B0F5803F03D0B0F5802F1C
:102210000ED106E0C649096841F48031C44A116014
:1022200007E0C349096841F4A021C14A116000E0F8
:1022300000BF00BF704710B50146002200230020F8
:102240004A11012A02D1BA4C236806E0022A02D1BF
:10225000B74C236A01E0B64C636A01F01F02012407
:1022600094401C400CB1012000E0002010BD38B5A6
:10227000002000900024002500BF3120FFF7DBFF85
:1022800005460098401C00900098B0F5A06F01D062
:10229000002DF2D03120FFF7CEFF08B1012400E07D
:1022A0000024204638BD01460020A14A106820F0D5
:1022B000F80040EAC10010607047A049086070470C
:1022C000024600209A4B586820F47C1042EA010331
:1022D0001843974B58607047984908667047014605
:1022E0000020934A506820F0030008435060704774
:1022F0008F48406800F00C007047014600208C4A6F
:10230000506820F0F00008435060704701460020FC
:10231000874A506820F4E0600843506070470146E7
:102320000020834A506820F4605040EAC1005060A9
:10233000704729B17E4A527A02437D4B5A7204E0BB
:102340007B4A527A82437A4B5A7270477B49D83122
:102350000860704701460020754A506820F44040EC
:102360000843506070470021714A20321170704A52
:1023700082F82010012802D004280AD104E00121AB
:102380006B4A2032117005E00521694A2032117034
:1023900000E000BF00BF70476949086070476449AA
:1023A000096A0143624A116270476549443908600D
:1023B000704730B500210022002400235C4D6D6879
:1023C00005F00C0121B1042905D0082923D105E02D
:1023D0005C4D056022E05B4D05601FE0544D6D686B
:1023E00005F47012524D6D6805F48034022505EB3A
:1023F00092421CB9544D554305600BE04C4D6D683D
:1024000005F400351DB1504D5543056002E04D4DBA
:102410005543056002E04B4D056000BF00BF444DD1
:102420006D6805F0F0010909484D6B5C0568DD40F9
:1024300045603F4D6D6805F4E061090A434D6B5CF2
:102440004568DD4085603A4D6D6805F46051C90A04
:102450003E4D6B5C4568DD40C560354D6D6805F4EB
:102460004041890B3A4D6B5CC568B5FBF3F50561DE
:1024700030BD29B12E4A526902432D4B5A6104E006
:102480002B4A526982432A4B5A61704729B1284A24
:1024900092690243264B9A6104E0254A926982437D
:1024A000234B9A61704729B1214AD2690243204BDC
:1024B000DA6104E01E4AD26982431D4BDA6170473B
:1024C00029B11B4AD2680243194BDA6004E0184A6A
:1024D000D2688243164BDA60704729B1144A1269F8
:1024E0000243134B1A6104E0114A12698243104BF4
:1024F0001A61704712494039086070470F49C86433
:1025000070470B49C87170470948406A40F08070B5
:1025100007494862704701460020054A92680A4010
:102520000AB1012000E0002070470149887270471D
:10253000001002400000FFF8FFFFF6FE00004242DC
:102540008004424200127A0000093D002C00002065
:102550003C00002010B50446CC48844208D101213B
:102560000420FFF7ADFF00210420FFF7A9FF46E09C
:10257000C748844208D101210820FFF7A1FF0021AC
:102580000820FFF79DFF3AE0C248844208D10121AC
:102590001020FFF795FF00211020FFF791FF2EE09C
:1025A000BD48844208D101212020FFF789FF002186
:1025B0002020FFF785FF22E0B848844208D101219E
:1025C0004020FFF77DFF00214020FFF779FF16E054
:1025D000B348844208D101218020FFF771FF002118
:1025E0008020FFF76DFF0AE0AE48844207D1012149
:1025F0008015FFF765FF0021A015FFF761FF10BDF3
:1026000010B501210846FFF75BFF00210120FFF70D
:1026100057FF10BD2DE9F04102460025002600209D
:1026200000230024002791F803C00CF00F0591F857
:1026300003C00CF0100CBCF1000F03D091F802C0E5
:102640004CEA050591F800C0BCF1000F31D01468C8
:1026500000202BE04FF0010C0CFA00F3B1F800C0A1
:102660000CEA03069E4220D183004FF00F0C0CFAB7
:1026700003F7BC4305FA03FC4CEA040491F803C0D9
:10268000BCF1280F06D14FF0010C0CFA00FCC2F887
:1026900014C00AE091F803C0BCF1480F05D14FF017
:1026A000010C0CFA00FCC2F810C0401C0828D1D361
:1026B0001460B1F800C0BCF1FF0F34DD5468002095
:1026C0002EE000F1080C4FF0010808FA0CF3B1F805
:1026D00000C00CEA03069E4221D183004FF00F0C8C
:1026E0000CFA03F7BC4305FA03FC4CEA040491F826
:1026F00003C0BCF1280F05D100F1080C08FA0CF852
:10270000C2F8148091F803C0BCF1480F07D100F162
:10271000080C4FF0010808FA0CF8C2F81080401CB1
:102720000828CED35460BDE8F0814FF6FF710180D8
:10273000022181700421C170704702460020936815
:102740000B400BB1012000E0002070470146886873
:1027500080B2704702460020D3680B400BB10120C5
:1027600000E0002070470146C86880B270470161F0
:102770007047416170470AB1016100E041617047F3
:10278000C16070474FF480320A4382618161826187
:1027900082698269704702460020434B18684FF6F1
:1027A0008073184040EA021008433F4B186070479E
:1027B0003E49C8617047F0B50A4600230024002155
:1027C000002500F00046B6F1004F02D1364EF16907
:1027D00001E0354E7168C0F3034583B200F4401642
:1027E000B6F5401F08D121F070612F4E766826F0B3
:1027F00070662D4F7E6012E000F48016B6F5801FE3
:1028000006D1032606FA05F4A14341F0706106E003
:10281000460D360103FA06F6B14341F0706122B16C
:10282000460D360103FA06F6314300F00046B6F1D4
:10283000004F02D11C4EF16101E01B4E7160F0BDF2
:1028400030B500228B071C0F0F2303FA04F2164B3E
:1028500008338C1053F824309343134C08348D10F4
:1028600044F8253023468C1053F824308C07240F6D
:1028700000FA04F423430C4C08348D1044F825303E
:1028800030BD0A49DC310860704700000008014093
:10289000000C0140001001400014014000180140EC
:1028A000001C0140002001400000014000002042C7
:1028B00010B50446FB48844209D101218803FFF783
:1028C000FFFD00214FF48040FFF7FAFD32E0F648AB
:1028D000844209D101214804FFF7FFFD00214FF494
:1028E0000030FFF7FAFD25E0F048844209D10121CC
:1028F0008804FFF7F2FD00214FF48020FFF7EDFD83
:1029000018E0EB48844209D10121C804FFF7E5FD36
:1029100000214FF40020FFF7E0FD0BE0E548844282
:1029200008D101210805FFF7D8FD00214FF48010E0
:10293000FFF7D3FD10BD2DE9F04786B005460E46E2
:102940000024A24600BFA1460027B08900B100BF05
:102950002F462C8A4CF6FF700440F08804432C82EA
:10296000AC894EF6F3100440B08831890843718970
:1029700008430443AC81AC8A4FF6FF400440B08961
:102980000443AC8201A8FFF714FDC648874202D178
:10299000DDF810A001E0DDF80CA0A88900F40040EB
:1029A00040B10AEBCA0000EB0A1031684900B0FBE5
:1029B000F1F807E00AEBCA0000EB0A103168890061
:1029C000B0FBF1F86420B8FBF0F0040120096421A9
:1029D00001FB1089A88900F4004040B1322000EBCF
:1029E000C900B0FBF1F000F00700044308E032201A
:1029F00000EB09106421B0FBF1F000F00F0004437C
:102A00002C8106B0BDE8F0874FF41651016000211B
:102A10008180C18001810C21418100218181704729
:102A200010B502460020108A4FF2FF0318400B88B1
:102A30004C8823438C882343CC882343184310823B
:102A400010BD0021018041808180C180704721B18B
:102A5000828942F40052828104E082894DF6FF733C
:102A60001A4082817047F0B50346002400260025F5
:102A7000002040F66A17B94200D100BF1846C1F3E2
:102A8000421401F01F06012707FA06F5012C01D1B7
:102A90000C3004E0022C01D1103000E014301AB1E7
:102AA00007682F43076002E00768AF430760F0BD87
:102AB0001AB1838A0B43838202E0838A8B43838229
:102AC0007047028A4FF6F0731A400282028A0A4364
:102AD0000282704782894FF2FF731A408281828995
:102AE0000A438281704721B1828942F002028281C9
:102AF00004E082894FF6FD731A4082817047028A92
:102B00004FF6DF731A400282028A0A43028270473C
:102B100021B1028A42F48042028204E0028A4BF62A
:102B2000FF731A4002827047C1F308028280704727
:102B300001468888C0F308007047818941F001018F
:102B400081817047028BD2B20283028B42EA01225A
:102B500002837047028B02F47F420283028B0A4396
:102B60000283704721B1828A42F02002828204E00F
:102B7000828A4FF6DF731A408282704721B1828ABF
:102B800042F01002828204E0828A4FF6EF731A400C
:102B90008282704721B1828A42F00802828204E078
:102BA000828A4FF6F7731A408282704721B1828978
:102BB00042F40042828103E08289C2F30E028281E4
:102BC000704721B1828A42F40062828204E0828AE4
:102BD0004FF2FF731A4082827047828A4FF6FB736E
:102BE0001A408282828A0A438282704721B1828A95
:102BF00042F00202828204E0828A4FF6FD731A409C
:102C00008282704702460020B1F5007F00D100BFEC
:102C100013880B400BB1012000E00020704701F445
:102C20000072B2F5007F00D100BFCA430280704736
:102C300070B50246002400230025002040F66A16E5
:102C4000B14200D100BFC1F3421501F01F030126BC
:102C500006FA03F3012D02D19689334006E0022DD6
:102C600002D1168A334001E0968A33400C120126C5
:102C700006FA04F41688344013B10CB1012000E0C8
:102C8000002070BD10B50022002340F66A14A14256
:102C900000D100BF0A1201249440A3B2DC43048097
:102CA00010BD0000003801400044004000480040D2
:102CB000004C00400050004006488047064800474E
:102CC000FEE7FEE7FEE7FEE7FEE7FEE7FEE7FEE7DC
:102CD000FEE7FEE7BB2D0008310100080CB500201F
:102CE000019000906C48006840F480306A490860A8
:102CF00000BF6948006800F4003000900198401C53
:102D00000190009818B90198B0F5A06FF1D1624810
:102D1000006800F4003010B10120009001E00020B4
:102D200000900098012843D15C48006840F01000F2
:102D30005A4908600846006820F003000860084609
:102D4000006840F0020008605348406852494860FB
:102D50000846406848600846406840F48060486023
:102D60000846406820F47C1048600846406840F4FB
:102D7000E81048600846006840F08070086000BFB6
:102D80004548006800F000700028F9D042484068CB
:102D900020F00300404948600846406840F00200C7
:102DA000486000BF3C48406800F00C000828F9D19A
:102DB0000CBD10B5FFF792FF10BD10B53648006886
:102DC00040F0010034490860084640683449084032
:102DD0003149486008460068324908402E49086079
:102DE0000846006820F4802008600846406820F407
:102DF000FE0048604FF41F008860FFF7DAFF4FF0D5
:102E000000602949086010BD10B500210020002293
:102E1000214B5B6803F00C0121B1042906D008297D
:102E200028D107E0214B224C236027E01F4B204C88
:102E3000236023E0184B5B6803F47010164B5B684B
:102E400003F48032022303EB904022B9194B434331
:102E5000174C23600DE0104B5B6803F4003323B183
:102E6000144B4343124C236003E0104B4343104C7C
:102E7000236003E00D4B0E4C236000BF00BF064BE8
:102E80005B68C3F303130C4CE15C094B1B68CB403C
:102E9000074C236010BD00000010024000200240DB
:102EA0000000FFF8FFFFF6FE08ED00E000127A00D8
:102EB0004000002000093D004400002040EA0103DA
:102EC0009B0703D009E008C9121F08C0042AFAD2E0
:102ED00003E011F8013B00F8013B521EF9D27047A4
:102EE000421C10F8011B0029FBD1801A704700001A
:102EF000064C074D06E0E06840F0010394E8070047
:102F000098471034AC42F6D3FDF716F94C30000860
:102F10006C300008014A024900F013B8E71A0008B3
:102F20005400002002E008C8121F08C1002AFAD18C
:102F300070477047002001E001C1121F002AFBD139
:102F400070472DE9F04116460F460446002503E080
:102F50003946B047641C6D1C20780028F8D12846FB
:102F6000BDE8F081202053657269616C507574531F
:102F70007472696E6720496D6167652046726F6D76
:102F8000207468652053544D3332463130782049DF
:102F90006E7465726E616C20466C617368202D2DB5
:102FA0002D2D2D2D2D20320D0A0A00002E2E2E61E2
:102FB0006E6420612053797374656D20526573656A
:102FC000742077696C6C2062652067656E6572613C
:102FD00074656420746F2072652D6C6F6164207459
:102FE0006865206E6577206F7074696F6E206279F6
:102FF0007465730D0A0000000A0A0D2050726F6795
:1030000072616D6D696E6720436F6D706C6574657C
:1030100064205375636365737366756C6C79210AFC
:103020000D2D2D2D2D2D2D2D2D2D2D2D2D2D2D2DF0
:103030002D2D2D2D2D2D2D2D2D2D2D2D2D2D2D2DC0
:103040002D0D0A204E616D653A2000006C3000089D
:103050000000002058000000242F0008C4300008A1
:1030600058000020501D0000342F00080080000888
:103070000008000000000000000000000400000044
:103080000000000000000000000000000000000040
:103090000000000000000000000000000102030426
:1030A00001020304060708090204060800A24A04F4
:1030B00000000000000000000102030406070809E8
:0430C000000000000C
:0400000508000131BD
:00000001FF
